{
	"contracts/nft-market.sol": {
		"Market": {
			"abi": [
				{
					"inputs": [
						{
							"internalType": "contract IERC20",
							"name": "_erc20",
							"type": "address"
						},
						{
							"internalType": "contract IERC721",
							"name": "_erc721",
							"type": "address"
						}
					],
					"stateMutability": "nonpayable",
					"type": "constructor"
				},
				{
					"anonymous": false,
					"inputs": [
						{
							"indexed": false,
							"internalType": "address",
							"name": "seller",
							"type": "address"
						},
						{
							"indexed": false,
							"internalType": "uint256",
							"name": "tokenId",
							"type": "uint256"
						}
					],
					"name": "CancelOrder",
					"type": "event"
				},
				{
					"anonymous": false,
					"inputs": [
						{
							"indexed": false,
							"internalType": "address",
							"name": "seller",
							"type": "address"
						},
						{
							"indexed": false,
							"internalType": "uint256",
							"name": "tokenId",
							"type": "uint256"
						},
						{
							"indexed": false,
							"internalType": "uint256",
							"name": "previousPrice",
							"type": "uint256"
						},
						{
							"indexed": false,
							"internalType": "uint256",
							"name": "price",
							"type": "uint256"
						}
					],
					"name": "ChangePrice",
					"type": "event"
				},
				{
					"anonymous": false,
					"inputs": [
						{
							"indexed": false,
							"internalType": "address",
							"name": "buyer",
							"type": "address"
						},
						{
							"indexed": false,
							"internalType": "address",
							"name": "seller",
							"type": "address"
						},
						{
							"indexed": false,
							"internalType": "uint256",
							"name": "tokenId",
							"type": "uint256"
						},
						{
							"indexed": false,
							"internalType": "uint256",
							"name": "price",
							"type": "uint256"
						}
					],
					"name": "Deal",
					"type": "event"
				},
				{
					"anonymous": false,
					"inputs": [
						{
							"indexed": false,
							"internalType": "address",
							"name": "seller",
							"type": "address"
						},
						{
							"indexed": false,
							"internalType": "uint256",
							"name": "tokenId",
							"type": "uint256"
						},
						{
							"indexed": false,
							"internalType": "uint256",
							"name": "price",
							"type": "uint256"
						}
					],
					"name": "NewOrder",
					"type": "event"
				},
				{
					"inputs": [
						{
							"internalType": "uint256",
							"name": "_tokenId",
							"type": "uint256"
						}
					],
					"name": "buy",
					"outputs": [],
					"stateMutability": "nonpayable",
					"type": "function"
				},
				{
					"inputs": [
						{
							"internalType": "uint256",
							"name": "_tokenId",
							"type": "uint256"
						}
					],
					"name": "cancelOrder",
					"outputs": [],
					"stateMutability": "nonpayable",
					"type": "function"
				},
				{
					"inputs": [
						{
							"internalType": "uint256",
							"name": "_tokenId",
							"type": "uint256"
						},
						{
							"internalType": "uint256",
							"name": "_price",
							"type": "uint256"
						}
					],
					"name": "changePrice",
					"outputs": [],
					"stateMutability": "nonpayable",
					"type": "function"
				},
				{
					"inputs": [],
					"name": "erc20",
					"outputs": [
						{
							"internalType": "contract IERC20",
							"name": "",
							"type": "address"
						}
					],
					"stateMutability": "view",
					"type": "function"
				},
				{
					"inputs": [],
					"name": "erc721",
					"outputs": [
						{
							"internalType": "contract IERC721",
							"name": "",
							"type": "address"
						}
					],
					"stateMutability": "view",
					"type": "function"
				},
				{
					"inputs": [],
					"name": "getAllNFTs",
					"outputs": [
						{
							"components": [
								{
									"internalType": "address",
									"name": "seller",
									"type": "address"
								},
								{
									"internalType": "uint256",
									"name": "tokenId",
									"type": "uint256"
								},
								{
									"internalType": "uint256",
									"name": "price",
									"type": "uint256"
								}
							],
							"internalType": "struct Market.Order[]",
							"name": "",
							"type": "tuple[]"
						}
					],
					"stateMutability": "view",
					"type": "function"
				},
				{
					"inputs": [],
					"name": "getMyNFTs",
					"outputs": [
						{
							"components": [
								{
									"internalType": "address",
									"name": "seller",
									"type": "address"
								},
								{
									"internalType": "uint256",
									"name": "tokenId",
									"type": "uint256"
								},
								{
									"internalType": "uint256",
									"name": "price",
									"type": "uint256"
								}
							],
							"internalType": "struct Market.Order[]",
							"name": "",
							"type": "tuple[]"
						}
					],
					"stateMutability": "view",
					"type": "function"
				},
				{
					"inputs": [],
					"name": "getOrderLength",
					"outputs": [
						{
							"internalType": "uint256",
							"name": "",
							"type": "uint256"
						}
					],
					"stateMutability": "view",
					"type": "function"
				},
				{
					"inputs": [
						{
							"internalType": "uint256",
							"name": "",
							"type": "uint256"
						}
					],
					"name": "idToOrderIndex",
					"outputs": [
						{
							"internalType": "uint256",
							"name": "",
							"type": "uint256"
						}
					],
					"stateMutability": "view",
					"type": "function"
				},
				{
					"inputs": [
						{
							"internalType": "uint256",
							"name": "_tokenId",
							"type": "uint256"
						}
					],
					"name": "isListed",
					"outputs": [
						{
							"internalType": "bool",
							"name": "",
							"type": "bool"
						}
					],
					"stateMutability": "view",
					"type": "function"
				},
				{
					"inputs": [
						{
							"internalType": "address",
							"name": "_operator",
							"type": "address"
						},
						{
							"internalType": "address",
							"name": "_seller",
							"type": "address"
						},
						{
							"internalType": "uint256",
							"name": "_tokenId",
							"type": "uint256"
						},
						{
							"internalType": "bytes",
							"name": "_data",
							"type": "bytes"
						}
					],
					"name": "onERC721Received",
					"outputs": [
						{
							"internalType": "bytes4",
							"name": "",
							"type": "bytes4"
						}
					],
					"stateMutability": "nonpayable",
					"type": "function"
				},
				{
					"inputs": [
						{
							"internalType": "uint256",
							"name": "",
							"type": "uint256"
						}
					],
					"name": "orderOfId",
					"outputs": [
						{
							"internalType": "address",
							"name": "seller",
							"type": "address"
						},
						{
							"internalType": "uint256",
							"name": "tokenId",
							"type": "uint256"
						},
						{
							"internalType": "uint256",
							"name": "price",
							"type": "uint256"
						}
					],
					"stateMutability": "view",
					"type": "function"
				},
				{
					"inputs": [
						{
							"internalType": "uint256",
							"name": "",
							"type": "uint256"
						}
					],
					"name": "orders",
					"outputs": [
						{
							"internalType": "address",
							"name": "seller",
							"type": "address"
						},
						{
							"internalType": "uint256",
							"name": "tokenId",
							"type": "uint256"
						},
						{
							"internalType": "uint256",
							"name": "price",
							"type": "uint256"
						}
					],
					"stateMutability": "view",
					"type": "function"
				},
				{
					"inputs": [
						{
							"internalType": "bytes",
							"name": "_bytes",
							"type": "bytes"
						},
						{
							"internalType": "uint256",
							"name": "_start",
							"type": "uint256"
						}
					],
					"name": "toUint256",
					"outputs": [
						{
							"internalType": "uint256",
							"name": "",
							"type": "uint256"
						}
					],
					"stateMutability": "pure",
					"type": "function"
				}
			],
			"devdoc": {
				"kind": "dev",
				"methods": {
					"onERC721Received(address,address,uint256,bytes)": {
						"details": "List a good using a ERC721 receiver hook",
						"params": {
							"_data": "contains the pricing data as the first 32 bytes",
							"_operator": "the caller of this function",
							"_seller": "the good seller",
							"_tokenId": "the good id to list"
						}
					}
				},
				"title": "NFTMarket contract that allows atomic swaps of ERC20 and ERC721",
				"version": 1
			},
			"evm": {
				"assembly": "    /* \"contracts/nft-market.sol\":320:6586  contract Market is IERC721Receiver {... */\n  mstore(0x40, 0x80)\n    /* \"contracts/nft-market.sol\":1321:1692  constructor(IERC20 _erc20, IERC721 _erc721) {... */\n  callvalue\n  dup1\n  iszero\n  tag_1\n  jumpi\n  0x00\n  dup1\n  revert\ntag_1:\n  pop\n  mload(0x40)\n  sub(codesize, bytecodeSize)\n  dup1\n  bytecodeSize\n  dup4\n  codecopy\n  dup2\n  dup2\n  add\n  0x40\n  mstore\n  dup2\n  add\n  swap1\n  tag_2\n  swap2\n  swap1\n  tag_3\n  jump\t// in\ntag_2:\n    /* \"contracts/nft-market.sol\":1423:1424  0 */\n  0x00\n    /* \"contracts/nft-market.sol\":1396:1425  address(_erc20) != address(0) */\n  0xffffffffffffffffffffffffffffffffffffffff\n  and\n    /* \"contracts/nft-market.sol\":1404:1410  _erc20 */\n  dup3\n    /* \"contracts/nft-market.sol\":1396:1425  address(_erc20) != address(0) */\n  0xffffffffffffffffffffffffffffffffffffffff\n  and\n  sub\n    /* \"contracts/nft-market.sol\":1375:1499  require(... */\n  tag_6\n  jumpi\n  mload(0x40)\n  0x08c379a000000000000000000000000000000000000000000000000000000000\n  dup2\n  mstore\n  0x04\n  add\n  tag_7\n  swap1\n  tag_8\n  jump\t// in\ntag_7:\n  mload(0x40)\n  dup1\n  swap2\n  sub\n  swap1\n  revert\ntag_6:\n    /* \"contracts/nft-market.sol\":1558:1559  0 */\n  0x00\n    /* \"contracts/nft-market.sol\":1530:1560  address(_erc721) != address(0) */\n  0xffffffffffffffffffffffffffffffffffffffff\n  and\n    /* \"contracts/nft-market.sol\":1538:1545  _erc721 */\n  dup2\n    /* \"contracts/nft-market.sol\":1530:1560  address(_erc721) != address(0) */\n  0xffffffffffffffffffffffffffffffffffffffff\n  and\n  sub\n    /* \"contracts/nft-market.sol\":1509:1635  require(... */\n  tag_9\n  jumpi\n  mload(0x40)\n  0x08c379a000000000000000000000000000000000000000000000000000000000\n  dup2\n  mstore\n  0x04\n  add\n  tag_10\n  swap1\n  tag_11\n  jump\t// in\ntag_10:\n  mload(0x40)\n  dup1\n  swap2\n  sub\n  swap1\n  revert\ntag_9:\n    /* \"contracts/nft-market.sol\":1653:1659  _erc20 */\n  dup2\n    /* \"contracts/nft-market.sol\":1645:1650  erc20 */\n  0x00\n  dup1\n    /* \"contracts/nft-market.sol\":1645:1659  erc20 = _erc20 */\n  0x0100\n  exp\n  dup2\n  sload\n  dup2\n  0xffffffffffffffffffffffffffffffffffffffff\n  mul\n  not\n  and\n  swap1\n  dup4\n  0xffffffffffffffffffffffffffffffffffffffff\n  and\n  mul\n  or\n  swap1\n  sstore\n  pop\n    /* \"contracts/nft-market.sol\":1678:1685  _erc721 */\n  dup1\n    /* \"contracts/nft-market.sol\":1669:1675  erc721 */\n  0x01\n  0x00\n    /* \"contracts/nft-market.sol\":1669:1685  erc721 = _erc721 */\n  0x0100\n  exp\n  dup2\n  sload\n  dup2\n  0xffffffffffffffffffffffffffffffffffffffff\n  mul\n  not\n  and\n  swap1\n  dup4\n  0xffffffffffffffffffffffffffffffffffffffff\n  and\n  mul\n  or\n  swap1\n  sstore\n  pop\n    /* \"contracts/nft-market.sol\":1321:1692  constructor(IERC20 _erc20, IERC721 _erc721) {... */\n  pop\n  pop\n    /* \"contracts/nft-market.sol\":320:6586  contract Market is IERC721Receiver {... */\n  jump(tag_12)\n    /* \"#utility.yul\":88:205   */\ntag_14:\n    /* \"#utility.yul\":197:198   */\n  0x00\n    /* \"#utility.yul\":194:195   */\n  dup1\n    /* \"#utility.yul\":187:199   */\n  revert\n    /* \"#utility.yul\":334:460   */\ntag_16:\n    /* \"#utility.yul\":371:378   */\n  0x00\n    /* \"#utility.yul\":411:453   */\n  0xffffffffffffffffffffffffffffffffffffffff\n    /* \"#utility.yul\":404:409   */\n  dup3\n    /* \"#utility.yul\":400:454   */\n  and\n    /* \"#utility.yul\":389:454   */\n  swap1\n  pop\n    /* \"#utility.yul\":334:460   */\n  swap2\n  swap1\n  pop\n  jump\t// out\n    /* \"#utility.yul\":466:562   */\ntag_17:\n    /* \"#utility.yul\":503:510   */\n  0x00\n    /* \"#utility.yul\":532:556   */\n  tag_35\n    /* \"#utility.yul\":550:555   */\n  dup3\n    /* \"#utility.yul\":532:556   */\n  tag_16\n  jump\t// in\ntag_35:\n    /* \"#utility.yul\":521:556   */\n  swap1\n  pop\n    /* \"#utility.yul\":466:562   */\n  swap2\n  swap1\n  pop\n  jump\t// out\n    /* \"#utility.yul\":568:677   */\ntag_18:\n    /* \"#utility.yul\":618:625   */\n  0x00\n    /* \"#utility.yul\":647:671   */\n  tag_37\n    /* \"#utility.yul\":665:670   */\n  dup3\n    /* \"#utility.yul\":647:671   */\n  tag_17\n  jump\t// in\ntag_37:\n    /* \"#utility.yul\":636:671   */\n  swap1\n  pop\n    /* \"#utility.yul\":568:677   */\n  swap2\n  swap1\n  pop\n  jump\t// out\n    /* \"#utility.yul\":683:831   */\ntag_19:\n    /* \"#utility.yul\":769:806   */\n  tag_39\n    /* \"#utility.yul\":800:805   */\n  dup2\n    /* \"#utility.yul\":769:806   */\n  tag_18\n  jump\t// in\ntag_39:\n    /* \"#utility.yul\":762:767   */\n  dup2\n    /* \"#utility.yul\":759:807   */\n  eq\n    /* \"#utility.yul\":749:825   */\n  tag_40\n  jumpi\n    /* \"#utility.yul\":821:822   */\n  0x00\n    /* \"#utility.yul\":818:819   */\n  dup1\n    /* \"#utility.yul\":811:823   */\n  revert\n    /* \"#utility.yul\":749:825   */\ntag_40:\n    /* \"#utility.yul\":683:831   */\n  pop\n  jump\t// out\n    /* \"#utility.yul\":837:1006   */\ntag_20:\n    /* \"#utility.yul\":907:912   */\n  0x00\n    /* \"#utility.yul\":938:944   */\n  dup2\n    /* \"#utility.yul\":932:945   */\n  mload\n    /* \"#utility.yul\":923:945   */\n  swap1\n  pop\n    /* \"#utility.yul\":954:1000   */\n  tag_42\n    /* \"#utility.yul\":994:999   */\n  dup2\n    /* \"#utility.yul\":954:1000   */\n  tag_19\n  jump\t// in\ntag_42:\n    /* \"#utility.yul\":837:1006   */\n  swap3\n  swap2\n  pop\n  pop\n  jump\t// out\n    /* \"#utility.yul\":1012:1123   */\ntag_21:\n    /* \"#utility.yul\":1064:1071   */\n  0x00\n    /* \"#utility.yul\":1093:1117   */\n  tag_44\n    /* \"#utility.yul\":1111:1116   */\n  dup3\n    /* \"#utility.yul\":1093:1117   */\n  tag_17\n  jump\t// in\ntag_44:\n    /* \"#utility.yul\":1082:1117   */\n  swap1\n  pop\n    /* \"#utility.yul\":1012:1123   */\n  swap2\n  swap1\n  pop\n  jump\t// out\n    /* \"#utility.yul\":1129:1281   */\ntag_22:\n    /* \"#utility.yul\":1217:1256   */\n  tag_46\n    /* \"#utility.yul\":1250:1255   */\n  dup2\n    /* \"#utility.yul\":1217:1256   */\n  tag_21\n  jump\t// in\ntag_46:\n    /* \"#utility.yul\":1210:1215   */\n  dup2\n    /* \"#utility.yul\":1207:1257   */\n  eq\n    /* \"#utility.yul\":1197:1275   */\n  tag_47\n  jumpi\n    /* \"#utility.yul\":1271:1272   */\n  0x00\n    /* \"#utility.yul\":1268:1269   */\n  dup1\n    /* \"#utility.yul\":1261:1273   */\n  revert\n    /* \"#utility.yul\":1197:1275   */\ntag_47:\n    /* \"#utility.yul\":1129:1281   */\n  pop\n  jump\t// out\n    /* \"#utility.yul\":1287:1460   */\ntag_23:\n    /* \"#utility.yul\":1359:1364   */\n  0x00\n    /* \"#utility.yul\":1390:1396   */\n  dup2\n    /* \"#utility.yul\":1384:1397   */\n  mload\n    /* \"#utility.yul\":1375:1397   */\n  swap1\n  pop\n    /* \"#utility.yul\":1406:1454   */\n  tag_49\n    /* \"#utility.yul\":1448:1453   */\n  dup2\n    /* \"#utility.yul\":1406:1454   */\n  tag_22\n  jump\t// in\ntag_49:\n    /* \"#utility.yul\":1287:1460   */\n  swap3\n  swap2\n  pop\n  pop\n  jump\t// out\n    /* \"#utility.yul\":1466:2029   */\ntag_3:\n    /* \"#utility.yul\":1573:1579   */\n  0x00\n    /* \"#utility.yul\":1581:1587   */\n  dup1\n    /* \"#utility.yul\":1630:1632   */\n  0x40\n    /* \"#utility.yul\":1618:1627   */\n  dup4\n    /* \"#utility.yul\":1609:1616   */\n  dup6\n    /* \"#utility.yul\":1605:1628   */\n  sub\n    /* \"#utility.yul\":1601:1633   */\n  slt\n    /* \"#utility.yul\":1598:1717   */\n  iszero\n  tag_51\n  jumpi\n    /* \"#utility.yul\":1636:1715   */\n  tag_52\n  tag_14\n  jump\t// in\ntag_52:\n    /* \"#utility.yul\":1598:1717   */\ntag_51:\n    /* \"#utility.yul\":1756:1757   */\n  0x00\n    /* \"#utility.yul\":1781:1858   */\n  tag_53\n    /* \"#utility.yul\":1850:1857   */\n  dup6\n    /* \"#utility.yul\":1841:1847   */\n  dup3\n    /* \"#utility.yul\":1830:1839   */\n  dup7\n    /* \"#utility.yul\":1826:1848   */\n  add\n    /* \"#utility.yul\":1781:1858   */\n  tag_20\n  jump\t// in\ntag_53:\n    /* \"#utility.yul\":1771:1858   */\n  swap3\n  pop\n    /* \"#utility.yul\":1727:1868   */\n  pop\n    /* \"#utility.yul\":1907:1909   */\n  0x20\n    /* \"#utility.yul\":1933:2012   */\n  tag_54\n    /* \"#utility.yul\":2004:2011   */\n  dup6\n    /* \"#utility.yul\":1995:2001   */\n  dup3\n    /* \"#utility.yul\":1984:1993   */\n  dup7\n    /* \"#utility.yul\":1980:2002   */\n  add\n    /* \"#utility.yul\":1933:2012   */\n  tag_23\n  jump\t// in\ntag_54:\n    /* \"#utility.yul\":1923:2012   */\n  swap2\n  pop\n    /* \"#utility.yul\":1878:2022   */\n  pop\n    /* \"#utility.yul\":1466:2029   */\n  swap3\n  pop\n  swap3\n  swap1\n  pop\n  jump\t// out\n    /* \"#utility.yul\":2035:2204   */\ntag_24:\n    /* \"#utility.yul\":2119:2130   */\n  0x00\n    /* \"#utility.yul\":2153:2159   */\n  dup3\n    /* \"#utility.yul\":2148:2151   */\n  dup3\n    /* \"#utility.yul\":2141:2160   */\n  mstore\n    /* \"#utility.yul\":2193:2197   */\n  0x20\n    /* \"#utility.yul\":2188:2191   */\n  dup3\n    /* \"#utility.yul\":2184:2198   */\n  add\n    /* \"#utility.yul\":2169:2198   */\n  swap1\n  pop\n    /* \"#utility.yul\":2035:2204   */\n  swap3\n  swap2\n  pop\n  pop\n  jump\t// out\n    /* \"#utility.yul\":2210:2445   */\ntag_25:\n    /* \"#utility.yul\":2350:2384   */\n  0x4d61726b65743a2049455243323020636f6e7472616374206164647265737320\n    /* \"#utility.yul\":2346:2347   */\n  0x00\n    /* \"#utility.yul\":2338:2344   */\n  dup3\n    /* \"#utility.yul\":2334:2348   */\n  add\n    /* \"#utility.yul\":2327:2385   */\n  mstore\n    /* \"#utility.yul\":2419:2437   */\n  0x6d757374206265206e6f6e2d6e756c6c00000000000000000000000000000000\n    /* \"#utility.yul\":2414:2416   */\n  0x20\n    /* \"#utility.yul\":2406:2412   */\n  dup3\n    /* \"#utility.yul\":2402:2417   */\n  add\n    /* \"#utility.yul\":2395:2438   */\n  mstore\n    /* \"#utility.yul\":2210:2445   */\n  pop\n  jump\t// out\n    /* \"#utility.yul\":2451:2817   */\ntag_26:\n    /* \"#utility.yul\":2593:2596   */\n  0x00\n    /* \"#utility.yul\":2614:2681   */\n  tag_58\n    /* \"#utility.yul\":2678:2680   */\n  0x30\n    /* \"#utility.yul\":2673:2676   */\n  dup4\n    /* \"#utility.yul\":2614:2681   */\n  tag_24\n  jump\t// in\ntag_58:\n    /* \"#utility.yul\":2607:2681   */\n  swap2\n  pop\n    /* \"#utility.yul\":2690:2783   */\n  tag_59\n    /* \"#utility.yul\":2779:2782   */\n  dup3\n    /* \"#utility.yul\":2690:2783   */\n  tag_25\n  jump\t// in\ntag_59:\n    /* \"#utility.yul\":2808:2810   */\n  0x40\n    /* \"#utility.yul\":2803:2806   */\n  dup3\n    /* \"#utility.yul\":2799:2811   */\n  add\n    /* \"#utility.yul\":2792:2811   */\n  swap1\n  pop\n    /* \"#utility.yul\":2451:2817   */\n  swap2\n  swap1\n  pop\n  jump\t// out\n    /* \"#utility.yul\":2823:3242   */\ntag_8:\n    /* \"#utility.yul\":2989:2993   */\n  0x00\n    /* \"#utility.yul\":3027:3029   */\n  0x20\n    /* \"#utility.yul\":3016:3025   */\n  dup3\n    /* \"#utility.yul\":3012:3030   */\n  add\n    /* \"#utility.yul\":3004:3030   */\n  swap1\n  pop\n    /* \"#utility.yul\":3076:3085   */\n  dup2\n    /* \"#utility.yul\":3070:3074   */\n  dup2\n    /* \"#utility.yul\":3066:3086   */\n  sub\n    /* \"#utility.yul\":3062:3063   */\n  0x00\n    /* \"#utility.yul\":3051:3060   */\n  dup4\n    /* \"#utility.yul\":3047:3064   */\n  add\n    /* \"#utility.yul\":3040:3087   */\n  mstore\n    /* \"#utility.yul\":3104:3235   */\n  tag_61\n    /* \"#utility.yul\":3230:3234   */\n  dup2\n    /* \"#utility.yul\":3104:3235   */\n  tag_26\n  jump\t// in\ntag_61:\n    /* \"#utility.yul\":3096:3235   */\n  swap1\n  pop\n    /* \"#utility.yul\":2823:3242   */\n  swap2\n  swap1\n  pop\n  jump\t// out\n    /* \"#utility.yul\":3248:3484   */\ntag_27:\n    /* \"#utility.yul\":3388:3422   */\n  0x4d61726b65743a204945524337323120636f6e74726163742061646472657373\n    /* \"#utility.yul\":3384:3385   */\n  0x00\n    /* \"#utility.yul\":3376:3382   */\n  dup3\n    /* \"#utility.yul\":3372:3386   */\n  add\n    /* \"#utility.yul\":3365:3423   */\n  mstore\n    /* \"#utility.yul\":3457:3476   */\n  0x206d757374206265206e6f6e2d6e756c6c000000000000000000000000000000\n    /* \"#utility.yul\":3452:3454   */\n  0x20\n    /* \"#utility.yul\":3444:3450   */\n  dup3\n    /* \"#utility.yul\":3440:3455   */\n  add\n    /* \"#utility.yul\":3433:3477   */\n  mstore\n    /* \"#utility.yul\":3248:3484   */\n  pop\n  jump\t// out\n    /* \"#utility.yul\":3490:3856   */\ntag_28:\n    /* \"#utility.yul\":3632:3635   */\n  0x00\n    /* \"#utility.yul\":3653:3720   */\n  tag_64\n    /* \"#utility.yul\":3717:3719   */\n  0x31\n    /* \"#utility.yul\":3712:3715   */\n  dup4\n    /* \"#utility.yul\":3653:3720   */\n  tag_24\n  jump\t// in\ntag_64:\n    /* \"#utility.yul\":3646:3720   */\n  swap2\n  pop\n    /* \"#utility.yul\":3729:3822   */\n  tag_65\n    /* \"#utility.yul\":3818:3821   */\n  dup3\n    /* \"#utility.yul\":3729:3822   */\n  tag_27\n  jump\t// in\ntag_65:\n    /* \"#utility.yul\":3847:3849   */\n  0x40\n    /* \"#utility.yul\":3842:3845   */\n  dup3\n    /* \"#utility.yul\":3838:3850   */\n  add\n    /* \"#utility.yul\":3831:3850   */\n  swap1\n  pop\n    /* \"#utility.yul\":3490:3856   */\n  swap2\n  swap1\n  pop\n  jump\t// out\n    /* \"#utility.yul\":3862:4281   */\ntag_11:\n    /* \"#utility.yul\":4028:4032   */\n  0x00\n    /* \"#utility.yul\":4066:4068   */\n  0x20\n    /* \"#utility.yul\":4055:4064   */\n  dup3\n    /* \"#utility.yul\":4051:4069   */\n  add\n    /* \"#utility.yul\":4043:4069   */\n  swap1\n  pop\n    /* \"#utility.yul\":4115:4124   */\n  dup2\n    /* \"#utility.yul\":4109:4113   */\n  dup2\n    /* \"#utility.yul\":4105:4125   */\n  sub\n    /* \"#utility.yul\":4101:4102   */\n  0x00\n    /* \"#utility.yul\":4090:4099   */\n  dup4\n    /* \"#utility.yul\":4086:4103   */\n  add\n    /* \"#utility.yul\":4079:4126   */\n  mstore\n    /* \"#utility.yul\":4143:4274   */\n  tag_67\n    /* \"#utility.yul\":4269:4273   */\n  dup2\n    /* \"#utility.yul\":4143:4274   */\n  tag_28\n  jump\t// in\ntag_67:\n    /* \"#utility.yul\":4135:4274   */\n  swap1\n  pop\n    /* \"#utility.yul\":3862:4281   */\n  swap2\n  swap1\n  pop\n  jump\t// out\n    /* \"contracts/nft-market.sol\":320:6586  contract Market is IERC721Receiver {... */\ntag_12:\n  dataSize(sub_0)\n  dup1\n  dataOffset(sub_0)\n  0x00\n  codecopy\n  0x00\n  return\nstop\n\nsub_0: assembly {\n        /* \"contracts/nft-market.sol\":320:6586  contract Market is IERC721Receiver {... */\n      mstore(0x40, 0x80)\n      callvalue\n      dup1\n      iszero\n      tag_1\n      jumpi\n      0x00\n      dup1\n      revert\n    tag_1:\n      pop\n      jumpi(tag_2, lt(calldatasize, 0x04))\n      shr(0xe0, calldataload(0x00))\n      dup1\n      0xb3de019c\n      gt\n      tag_17\n      jumpi\n      dup1\n      0xd96a094a\n      gt\n      tag_18\n      jumpi\n      dup1\n      0xd96a094a\n      eq\n      tag_13\n      jumpi\n      dup1\n      0xda694df0\n      eq\n      tag_14\n      jumpi\n      dup1\n      0xe0391b09\n      eq\n      tag_15\n      jumpi\n      dup1\n      0xfcce4883\n      eq\n      tag_16\n      jumpi\n      jump(tag_2)\n    tag_18:\n      dup1\n      0xb3de019c\n      eq\n      tag_10\n      jumpi\n      dup1\n      0xb5cdf924\n      eq\n      tag_11\n      jumpi\n      dup1\n      0xbca6ce64\n      eq\n      tag_12\n      jumpi\n      jump(tag_2)\n    tag_17:\n      dup1\n      0x629cb2e4\n      gt\n      tag_19\n      jumpi\n      dup1\n      0x629cb2e4\n      eq\n      tag_6\n      jumpi\n      dup1\n      0x785e9e86\n      eq\n      tag_7\n      jumpi\n      dup1\n      0x9d4971b7\n      eq\n      tag_8\n      jumpi\n      dup1\n      0xa85c38ef\n      eq\n      tag_9\n      jumpi\n      jump(tag_2)\n    tag_19:\n      dup1\n      0x150b7a02\n      eq\n      tag_3\n      jumpi\n      dup1\n      0x394a9077\n      eq\n      tag_4\n      jumpi\n      dup1\n      0x514fcac7\n      eq\n      tag_5\n      jumpi\n    tag_2:\n      0x00\n      dup1\n      revert\n        /* \"contracts/nft-market.sol\":4381:4770  function onERC721Received(... */\n    tag_3:\n      tag_20\n      0x04\n      dup1\n      calldatasize\n      sub\n      dup2\n      add\n      swap1\n      tag_21\n      swap2\n      swap1\n      tag_22\n      jump\t// in\n    tag_21:\n      tag_23\n      jump\t// in\n    tag_20:\n      mload(0x40)\n      tag_24\n      swap2\n      swap1\n      tag_25\n      jump\t// in\n    tag_24:\n      mload(0x40)\n      dup1\n      swap2\n      sub\n      swap1\n      return\n        /* \"contracts/nft-market.sol\":807:849  mapping(uint256 => Order) public orderOfId */\n    tag_4:\n      tag_26\n      0x04\n      dup1\n      calldatasize\n      sub\n      dup2\n      add\n      swap1\n      tag_27\n      swap2\n      swap1\n      tag_28\n      jump\t// in\n    tag_27:\n      tag_29\n      jump\t// in\n    tag_26:\n      mload(0x40)\n      tag_30\n      swap4\n      swap3\n      swap2\n      swap1\n      tag_31\n      jump\t// in\n    tag_30:\n      mload(0x40)\n      dup1\n      swap2\n      sub\n      swap1\n      return\n        /* \"contracts/nft-market.sol\":2248:2644  function cancelOrder(uint256 _tokenId) external {... */\n    tag_5:\n      tag_32\n      0x04\n      dup1\n      calldatasize\n      sub\n      dup2\n      add\n      swap1\n      tag_33\n      swap2\n      swap1\n      tag_28\n      jump\t// in\n    tag_33:\n      tag_34\n      jump\t// in\n    tag_32:\n      stop\n        /* \"contracts/nft-market.sol\":3283:3873  function getMyNFTs() public view returns (Order[] memory) {... */\n    tag_6:\n      tag_35\n      tag_36\n      jump\t// in\n    tag_35:\n      mload(0x40)\n      tag_37\n      swap2\n      swap1\n      tag_38\n      jump\t// in\n    tag_37:\n      mload(0x40)\n      dup1\n      swap2\n      sub\n      swap1\n      return\n        /* \"contracts/nft-market.sol\":361:380  IERC20 public erc20 */\n    tag_7:\n      tag_39\n      tag_40\n      jump\t// in\n    tag_39:\n      mload(0x40)\n      tag_41\n      swap2\n      swap1\n      tag_42\n      jump\t// in\n    tag_41:\n      mload(0x40)\n      dup1\n      swap2\n      sub\n      swap1\n      return\n        /* \"contracts/nft-market.sol\":4012:4105  function getOrderLength() public view returns (uint256) {... */\n    tag_8:\n      tag_43\n      tag_44\n      jump\t// in\n    tag_43:\n      mload(0x40)\n      tag_45\n      swap2\n      swap1\n      tag_46\n      jump\t// in\n    tag_45:\n      mload(0x40)\n      dup1\n      swap2\n      sub\n      swap1\n      return\n        /* \"contracts/nft-market.sol\":876:897  Order[] public orders */\n    tag_9:\n      tag_47\n      0x04\n      dup1\n      calldatasize\n      sub\n      dup2\n      add\n      swap1\n      tag_48\n      swap2\n      swap1\n      tag_28\n      jump\t// in\n    tag_48:\n      tag_49\n      jump\t// in\n    tag_47:\n      mload(0x40)\n      tag_50\n      swap4\n      swap3\n      swap2\n      swap1\n      tag_31\n      jump\t// in\n    tag_50:\n      mload(0x40)\n      dup1\n      swap2\n      sub\n      swap1\n      return\n        /* \"contracts/nft-market.sol\":2650:3182  function changePrice(uint256 _tokenId, uint256 _price) external {... */\n    tag_10:\n      tag_51\n      0x04\n      dup1\n      calldatasize\n      sub\n      dup2\n      add\n      swap1\n      tag_52\n      swap2\n      swap1\n      tag_53\n      jump\t// in\n    tag_52:\n      tag_54\n      jump\t// in\n    tag_51:\n      stop\n        /* \"contracts/nft-market.sol\":4894:5303  function toUint256(... */\n    tag_11:\n      tag_55\n      0x04\n      dup1\n      calldatasize\n      sub\n      dup2\n      add\n      swap1\n      tag_56\n      swap2\n      swap1\n      tag_57\n      jump\t// in\n    tag_56:\n      tag_58\n      jump\t// in\n    tag_55:\n      mload(0x40)\n      tag_59\n      swap2\n      swap1\n      tag_46\n      jump\t// in\n    tag_59:\n      mload(0x40)\n      dup1\n      swap2\n      sub\n      swap1\n      return\n        /* \"contracts/nft-market.sol\":386:407  IERC721 public erc721 */\n    tag_12:\n      tag_60\n      tag_61\n      jump\t// in\n    tag_60:\n      mload(0x40)\n      tag_62\n      swap2\n      swap1\n      tag_63\n      jump\t// in\n    tag_62:\n      mload(0x40)\n      dup1\n      swap2\n      sub\n      swap1\n      return\n        /* \"contracts/nft-market.sol\":1698:2242  function buy(uint256 _tokenId) external {... */\n    tag_13:\n      tag_64\n      0x04\n      dup1\n      calldatasize\n      sub\n      dup2\n      add\n      swap1\n      tag_65\n      swap2\n      swap1\n      tag_28\n      jump\t// in\n    tag_65:\n      tag_66\n      jump\t// in\n    tag_64:\n      stop\n        /* \"contracts/nft-market.sol\":903:952  mapping(uint256 => uint256) public idToOrderIndex */\n    tag_14:\n      tag_67\n      0x04\n      dup1\n      calldatasize\n      sub\n      dup2\n      add\n      swap1\n      tag_68\n      swap2\n      swap1\n      tag_28\n      jump\t// in\n    tag_68:\n      tag_69\n      jump\t// in\n    tag_67:\n      mload(0x40)\n      tag_70\n      swap2\n      swap1\n      tag_46\n      jump\t// in\n    tag_70:\n      mload(0x40)\n      dup1\n      swap2\n      sub\n      swap1\n      return\n        /* \"contracts/nft-market.sol\":3188:3277  function getAllNFTs() public view returns (Order[] memory) {... */\n    tag_15:\n      tag_71\n      tag_72\n      jump\t// in\n    tag_71:\n      mload(0x40)\n      tag_73\n      swap2\n      swap1\n      tag_38\n      jump\t// in\n    tag_73:\n      mload(0x40)\n      dup1\n      swap2\n      sub\n      swap1\n      return\n        /* \"contracts/nft-market.sol\":3879:4006  function isListed(uint256 _tokenId) public view returns (bool) {... */\n    tag_16:\n      tag_74\n      0x04\n      dup1\n      calldatasize\n      sub\n      dup2\n      add\n      swap1\n      tag_75\n      swap2\n      swap1\n      tag_28\n      jump\t// in\n    tag_75:\n      tag_76\n      jump\t// in\n    tag_74:\n      mload(0x40)\n      tag_77\n      swap2\n      swap1\n      tag_78\n      jump\t// in\n    tag_77:\n      mload(0x40)\n      dup1\n      swap2\n      sub\n      swap1\n      return\n        /* \"contracts/nft-market.sol\":4381:4770  function onERC721Received(... */\n    tag_23:\n        /* \"contracts/nft-market.sol\":4546:4552  bytes4 */\n      0x00\n        /* \"contracts/nft-market.sol\":4585:4592  _seller */\n      dup5\n        /* \"contracts/nft-market.sol\":4572:4592  _operator == _seller */\n      0xffffffffffffffffffffffffffffffffffffffff\n      and\n        /* \"contracts/nft-market.sol\":4572:4581  _operator */\n      dup7\n        /* \"contracts/nft-market.sol\":4572:4592  _operator == _seller */\n      0xffffffffffffffffffffffffffffffffffffffff\n      and\n      eq\n        /* \"contracts/nft-market.sol\":4564:4628  require(_operator == _seller, \"Market: Seller must be operator\") */\n      tag_80\n      jumpi\n      mload(0x40)\n      0x08c379a000000000000000000000000000000000000000000000000000000000\n      dup2\n      mstore\n      0x04\n      add\n      tag_81\n      swap1\n      tag_82\n      jump\t// in\n    tag_81:\n      mload(0x40)\n      dup1\n      swap2\n      sub\n      swap1\n      revert\n    tag_80:\n        /* \"contracts/nft-market.sol\":4638:4652  uint256 _price */\n      0x00\n        /* \"contracts/nft-market.sol\":4655:4674  toUint256(_data, 0) */\n      tag_83\n        /* \"contracts/nft-market.sol\":4665:4670  _data */\n      dup5\n      dup5\n        /* \"contracts/nft-market.sol\":4655:4674  toUint256(_data, 0) */\n      dup1\n      dup1\n      0x1f\n      add\n      0x20\n      dup1\n      swap2\n      div\n      mul\n      0x20\n      add\n      mload(0x40)\n      swap1\n      dup2\n      add\n      0x40\n      mstore\n      dup1\n      swap4\n      swap3\n      swap2\n      swap1\n      dup2\n      dup2\n      mstore\n      0x20\n      add\n      dup4\n      dup4\n      dup1\n      dup3\n      dup5\n      calldatacopy\n      0x00\n      dup2\n      dup5\n      add\n      mstore\n      not(0x1f)\n      0x1f\n      dup3\n      add\n      and\n      swap1\n      pop\n      dup1\n      dup4\n      add\n      swap3\n      pop\n      pop\n      pop\n      pop\n      pop\n      pop\n      pop\n        /* \"contracts/nft-market.sol\":4672:4673  0 */\n      0x00\n        /* \"contracts/nft-market.sol\":4655:4664  toUint256 */\n      tag_58\n        /* \"contracts/nft-market.sol\":4655:4674  toUint256(_data, 0) */\n      jump\t// in\n    tag_83:\n        /* \"contracts/nft-market.sol\":4638:4674  uint256 _price = toUint256(_data, 0) */\n      swap1\n      pop\n        /* \"contracts/nft-market.sol\":4684:4721  placeOrder(_seller, _tokenId, _price) */\n      tag_84\n        /* \"contracts/nft-market.sol\":4695:4702  _seller */\n      dup7\n        /* \"contracts/nft-market.sol\":4704:4712  _tokenId */\n      dup7\n        /* \"contracts/nft-market.sol\":4714:4720  _price */\n      dup4\n        /* \"contracts/nft-market.sol\":4684:4694  placeOrder */\n      tag_85\n        /* \"contracts/nft-market.sol\":4684:4721  placeOrder(_seller, _tokenId, _price) */\n      jump\t// in\n    tag_84:\n        /* \"contracts/nft-market.sol\":692:702  0x150b7a02 */\n      0x150b7a02\n        /* \"contracts/nft-market.sol\":4739:4763  MAGIC_ON_ERC721_RECEIVED */\n      0xe0\n      shl\n        /* \"contracts/nft-market.sol\":4732:4763  return MAGIC_ON_ERC721_RECEIVED */\n      swap2\n      pop\n      pop\n        /* \"contracts/nft-market.sol\":4381:4770  function onERC721Received(... */\n      swap6\n      swap5\n      pop\n      pop\n      pop\n      pop\n      pop\n      jump\t// out\n        /* \"contracts/nft-market.sol\":807:849  mapping(uint256 => Order) public orderOfId */\n    tag_29:\n      mstore(0x20, 0x02)\n      dup1\n      0x00\n      mstore\n      keccak256(0x00, 0x40)\n      0x00\n      swap2\n      pop\n      swap1\n      pop\n      dup1\n      0x00\n      add\n      0x00\n      swap1\n      sload\n      swap1\n      0x0100\n      exp\n      swap1\n      div\n      0xffffffffffffffffffffffffffffffffffffffff\n      and\n      swap1\n      dup1\n      0x01\n      add\n      sload\n      swap1\n      dup1\n      0x02\n      add\n      sload\n      swap1\n      pop\n      dup4\n      jump\t// out\n        /* \"contracts/nft-market.sol\":2248:2644  function cancelOrder(uint256 _tokenId) external {... */\n    tag_34:\n        /* \"contracts/nft-market.sol\":2314:2332  isListed(_tokenId) */\n      tag_87\n        /* \"contracts/nft-market.sol\":2323:2331  _tokenId */\n      dup2\n        /* \"contracts/nft-market.sol\":2314:2322  isListed */\n      tag_76\n        /* \"contracts/nft-market.sol\":2314:2332  isListed(_tokenId) */\n      jump\t// in\n    tag_87:\n        /* \"contracts/nft-market.sol\":2306:2367  require(isListed(_tokenId), \"Market: Token ID is not listed\") */\n      tag_88\n      jumpi\n      mload(0x40)\n      0x08c379a000000000000000000000000000000000000000000000000000000000\n      dup2\n      mstore\n      0x04\n      add\n      tag_89\n      swap1\n      tag_90\n      jump\t// in\n    tag_89:\n      mload(0x40)\n      dup1\n      swap2\n      sub\n      swap1\n      revert\n    tag_88:\n        /* \"contracts/nft-market.sol\":2378:2392  address seller */\n      0x00\n        /* \"contracts/nft-market.sol\":2395:2404  orderOfId */\n      0x02\n        /* \"contracts/nft-market.sol\":2395:2414  orderOfId[_tokenId] */\n      0x00\n        /* \"contracts/nft-market.sol\":2405:2413  _tokenId */\n      dup4\n        /* \"contracts/nft-market.sol\":2395:2414  orderOfId[_tokenId] */\n      dup2\n      mstore\n      0x20\n      add\n      swap1\n      dup2\n      mstore\n      0x20\n      add\n      0x00\n      keccak256\n        /* \"contracts/nft-market.sol\":2395:2421  orderOfId[_tokenId].seller */\n      0x00\n      add\n      0x00\n      swap1\n      sload\n      swap1\n      0x0100\n      exp\n      swap1\n      div\n      0xffffffffffffffffffffffffffffffffffffffff\n      and\n        /* \"contracts/nft-market.sol\":2378:2421  address seller = orderOfId[_tokenId].seller */\n      swap1\n      pop\n        /* \"contracts/nft-market.sol\":2449:2459  msg.sender */\n      caller\n        /* \"contracts/nft-market.sol\":2439:2459  seller == msg.sender */\n      0xffffffffffffffffffffffffffffffffffffffff\n      and\n        /* \"contracts/nft-market.sol\":2439:2445  seller */\n      dup2\n        /* \"contracts/nft-market.sol\":2439:2459  seller == msg.sender */\n      0xffffffffffffffffffffffffffffffffffffffff\n      and\n      eq\n        /* \"contracts/nft-market.sol\":2431:2492  require(seller == msg.sender, \"Market: Sender is not seller\") */\n      tag_91\n      jumpi\n      mload(0x40)\n      0x08c379a000000000000000000000000000000000000000000000000000000000\n      dup2\n      mstore\n      0x04\n      add\n      tag_92\n      swap1\n      tag_93\n      jump\t// in\n    tag_92:\n      mload(0x40)\n      dup1\n      swap2\n      sub\n      swap1\n      revert\n    tag_91:\n        /* \"contracts/nft-market.sol\":2503:2509  erc721 */\n      0x01\n      0x00\n      swap1\n      sload\n      swap1\n      0x0100\n      exp\n      swap1\n      div\n      0xffffffffffffffffffffffffffffffffffffffff\n      and\n        /* \"contracts/nft-market.sol\":2503:2526  erc721.safeTransferFrom */\n      0xffffffffffffffffffffffffffffffffffffffff\n      and\n      0x42842e0e\n        /* \"contracts/nft-market.sol\":2535:2539  this */\n      address\n        /* \"contracts/nft-market.sol\":2542:2548  seller */\n      dup4\n        /* \"contracts/nft-market.sol\":2550:2558  _tokenId */\n      dup6\n        /* \"contracts/nft-market.sol\":2503:2559  erc721.safeTransferFrom(address(this), seller, _tokenId) */\n      mload(0x40)\n      dup5\n      0xffffffff\n      and\n      0xe0\n      shl\n      dup2\n      mstore\n      0x04\n      add\n      tag_94\n      swap4\n      swap3\n      swap2\n      swap1\n      tag_95\n      jump\t// in\n    tag_94:\n      0x00\n      mload(0x40)\n      dup1\n      dup4\n      sub\n      dup2\n      0x00\n      dup8\n      dup1\n      extcodesize\n      iszero\n      dup1\n      iszero\n      tag_96\n      jumpi\n      0x00\n      dup1\n      revert\n    tag_96:\n      pop\n      gas\n      call\n      iszero\n      dup1\n      iszero\n      tag_98\n      jumpi\n      returndatasize\n      0x00\n      dup1\n      returndatacopy\n      revert(0x00, returndatasize)\n    tag_98:\n      pop\n      pop\n      pop\n      pop\n        /* \"contracts/nft-market.sol\":2569:2592  removeListing(_tokenId) */\n      tag_99\n        /* \"contracts/nft-market.sol\":2583:2591  _tokenId */\n      dup3\n        /* \"contracts/nft-market.sol\":2569:2582  removeListing */\n      tag_100\n        /* \"contracts/nft-market.sol\":2569:2592  removeListing(_tokenId) */\n      jump\t// in\n    tag_99:\n        /* \"contracts/nft-market.sol\":2608:2637  CancelOrder(seller, _tokenId) */\n      0xc0e68d6b69f741c21e955cad2ae4d505b6f6735c7e7b278251b3f6283a5f07eb\n        /* \"contracts/nft-market.sol\":2620:2626  seller */\n      dup2\n        /* \"contracts/nft-market.sol\":2628:2636  _tokenId */\n      dup4\n        /* \"contracts/nft-market.sol\":2608:2637  CancelOrder(seller, _tokenId) */\n      mload(0x40)\n      tag_101\n      swap3\n      swap2\n      swap1\n      tag_102\n      jump\t// in\n    tag_101:\n      mload(0x40)\n      dup1\n      swap2\n      sub\n      swap1\n      log1\n        /* \"contracts/nft-market.sol\":2296:2644  {... */\n      pop\n        /* \"contracts/nft-market.sol\":2248:2644  function cancelOrder(uint256 _tokenId) external {... */\n      pop\n      jump\t// out\n        /* \"contracts/nft-market.sol\":3283:3873  function getMyNFTs() public view returns (Order[] memory) {... */\n    tag_36:\n        /* \"contracts/nft-market.sol\":3325:3339  Order[] memory */\n      0x60\n        /* \"contracts/nft-market.sol\":3351:3374  Order[] memory myOrders */\n      0x00\n        /* \"contracts/nft-market.sol\":3389:3395  orders */\n      0x03\n        /* \"contracts/nft-market.sol\":3389:3402  orders.length */\n      dup1\n      sload\n      swap1\n      pop\n        /* \"contracts/nft-market.sol\":3377:3403  new Order[](orders.length) */\n      0xffffffffffffffff\n      dup2\n      gt\n      iszero\n      tag_104\n      jumpi\n      tag_105\n      tag_106\n      jump\t// in\n    tag_105:\n    tag_104:\n      mload(0x40)\n      swap1\n      dup1\n      dup3\n      mstore\n      dup1\n      0x20\n      mul\n      0x20\n      add\n      dup3\n      add\n      0x40\n      mstore\n      dup1\n      iszero\n      tag_107\n      jumpi\n      dup2\n      0x20\n      add\n    tag_108:\n      tag_109\n      tag_110\n      jump\t// in\n    tag_109:\n      dup2\n      mstore\n      0x20\n      add\n      swap1\n      0x01\n      swap1\n      sub\n      swap1\n      dup2\n      tag_108\n      jumpi\n      swap1\n      pop\n    tag_107:\n      pop\n        /* \"contracts/nft-market.sol\":3351:3403  Order[] memory myOrders = new Order[](orders.length) */\n      swap1\n      pop\n        /* \"contracts/nft-market.sol\":3413:3434  uint256 myOrdersCount */\n      0x00\n        /* \"contracts/nft-market.sol\":3454:3463  uint256 i */\n      dup1\n        /* \"contracts/nft-market.sol\":3449:3654  for (uint256 i = 0; i < orders.length; i++) {... */\n    tag_111:\n        /* \"contracts/nft-market.sol\":3473:3479  orders */\n      0x03\n        /* \"contracts/nft-market.sol\":3473:3486  orders.length */\n      dup1\n      sload\n      swap1\n      pop\n        /* \"contracts/nft-market.sol\":3469:3470  i */\n      dup2\n        /* \"contracts/nft-market.sol\":3469:3486  i < orders.length */\n      lt\n        /* \"contracts/nft-market.sol\":3449:3654  for (uint256 i = 0; i < orders.length; i++) {... */\n      iszero\n      tag_112\n      jumpi\n        /* \"contracts/nft-market.sol\":3531:3541  msg.sender */\n      caller\n        /* \"contracts/nft-market.sol\":3511:3541  orders[i].seller == msg.sender */\n      0xffffffffffffffffffffffffffffffffffffffff\n      and\n        /* \"contracts/nft-market.sol\":3511:3517  orders */\n      0x03\n        /* \"contracts/nft-market.sol\":3518:3519  i */\n      dup3\n        /* \"contracts/nft-market.sol\":3511:3520  orders[i] */\n      dup2\n      sload\n      dup2\n      lt\n      tag_114\n      jumpi\n      tag_115\n      tag_116\n      jump\t// in\n    tag_115:\n    tag_114:\n      swap1\n      0x00\n      mstore\n      keccak256(0x00, 0x20)\n      swap1\n      0x03\n      mul\n      add\n        /* \"contracts/nft-market.sol\":3511:3527  orders[i].seller */\n      0x00\n      add\n      0x00\n      swap1\n      sload\n      swap1\n      0x0100\n      exp\n      swap1\n      div\n      0xffffffffffffffffffffffffffffffffffffffff\n      and\n        /* \"contracts/nft-market.sol\":3511:3541  orders[i].seller == msg.sender */\n      0xffffffffffffffffffffffffffffffffffffffff\n      and\n      sub\n        /* \"contracts/nft-market.sol\":3507:3644  if (orders[i].seller == msg.sender) {... */\n      tag_118\n      jumpi\n        /* \"contracts/nft-market.sol\":3587:3593  orders */\n      0x03\n        /* \"contracts/nft-market.sol\":3594:3595  i */\n      dup2\n        /* \"contracts/nft-market.sol\":3587:3596  orders[i] */\n      dup2\n      sload\n      dup2\n      lt\n      tag_119\n      jumpi\n      tag_120\n      tag_116\n      jump\t// in\n    tag_120:\n    tag_119:\n      swap1\n      0x00\n      mstore\n      keccak256(0x00, 0x20)\n      swap1\n      0x03\n      mul\n      add\n        /* \"contracts/nft-market.sol\":3561:3596  myOrders[myOrdersCount] = orders[i] */\n      mload(0x40)\n      dup1\n      0x60\n      add\n      0x40\n      mstore\n      swap1\n      dup2\n      0x00\n      dup3\n      add\n      0x00\n      swap1\n      sload\n      swap1\n      0x0100\n      exp\n      swap1\n      div\n      0xffffffffffffffffffffffffffffffffffffffff\n      and\n      0xffffffffffffffffffffffffffffffffffffffff\n      and\n      0xffffffffffffffffffffffffffffffffffffffff\n      and\n      dup2\n      mstore\n      0x20\n      add\n      0x01\n      dup3\n      add\n      sload\n      dup2\n      mstore\n      0x20\n      add\n      0x02\n      dup3\n      add\n      sload\n      dup2\n      mstore\n      pop\n      pop\n        /* \"contracts/nft-market.sol\":3561:3569  myOrders */\n      dup4\n        /* \"contracts/nft-market.sol\":3570:3583  myOrdersCount */\n      dup4\n        /* \"contracts/nft-market.sol\":3561:3584  myOrders[myOrdersCount] */\n      dup2\n      mload\n      dup2\n      lt\n      tag_122\n      jumpi\n      tag_123\n      tag_116\n      jump\t// in\n    tag_123:\n    tag_122:\n      0x20\n      mul\n      0x20\n      add\n      add\n        /* \"contracts/nft-market.sol\":3561:3596  myOrders[myOrdersCount] = orders[i] */\n      dup2\n      swap1\n      mstore\n      pop\n        /* \"contracts/nft-market.sol\":3614:3629  myOrdersCount++ */\n      dup2\n      dup1\n      tag_124\n      swap1\n      tag_125\n      jump\t// in\n    tag_124:\n      swap3\n      pop\n      pop\n        /* \"contracts/nft-market.sol\":3507:3644  if (orders[i].seller == msg.sender) {... */\n    tag_118:\n        /* \"contracts/nft-market.sol\":3488:3491  i++ */\n      dup1\n      dup1\n      0x01\n      add\n      swap2\n      pop\n      pop\n        /* \"contracts/nft-market.sol\":3449:3654  for (uint256 i = 0; i < orders.length; i++) {... */\n      jump(tag_111)\n    tag_112:\n      pop\n        /* \"contracts/nft-market.sol\":3664:3694  Order[] memory myOrdersTrimmed */\n      0x00\n        /* \"contracts/nft-market.sol\":3709:3722  myOrdersCount */\n      dup2\n        /* \"contracts/nft-market.sol\":3697:3723  new Order[](myOrdersCount) */\n      0xffffffffffffffff\n      dup2\n      gt\n      iszero\n      tag_126\n      jumpi\n      tag_127\n      tag_106\n      jump\t// in\n    tag_127:\n    tag_126:\n      mload(0x40)\n      swap1\n      dup1\n      dup3\n      mstore\n      dup1\n      0x20\n      mul\n      0x20\n      add\n      dup3\n      add\n      0x40\n      mstore\n      dup1\n      iszero\n      tag_128\n      jumpi\n      dup2\n      0x20\n      add\n    tag_129:\n      tag_130\n      tag_110\n      jump\t// in\n    tag_130:\n      dup2\n      mstore\n      0x20\n      add\n      swap1\n      0x01\n      swap1\n      sub\n      swap1\n      dup2\n      tag_129\n      jumpi\n      swap1\n      pop\n    tag_128:\n      pop\n        /* \"contracts/nft-market.sol\":3664:3723  Order[] memory myOrdersTrimmed = new Order[](myOrdersCount) */\n      swap1\n      pop\n        /* \"contracts/nft-market.sol\":3738:3747  uint256 i */\n      0x00\n        /* \"contracts/nft-market.sol\":3733:3834  for (uint256 i = 0; i < myOrdersCount; i++) {... */\n    tag_131:\n        /* \"contracts/nft-market.sol\":3757:3770  myOrdersCount */\n      dup3\n        /* \"contracts/nft-market.sol\":3753:3754  i */\n      dup2\n        /* \"contracts/nft-market.sol\":3753:3770  i < myOrdersCount */\n      lt\n        /* \"contracts/nft-market.sol\":3733:3834  for (uint256 i = 0; i < myOrdersCount; i++) {... */\n      iszero\n      tag_132\n      jumpi\n        /* \"contracts/nft-market.sol\":3812:3820  myOrders */\n      dup4\n        /* \"contracts/nft-market.sol\":3821:3822  i */\n      dup2\n        /* \"contracts/nft-market.sol\":3812:3823  myOrders[i] */\n      dup2\n      mload\n      dup2\n      lt\n      tag_134\n      jumpi\n      tag_135\n      tag_116\n      jump\t// in\n    tag_135:\n    tag_134:\n      0x20\n      mul\n      0x20\n      add\n      add\n      mload\n        /* \"contracts/nft-market.sol\":3791:3806  myOrdersTrimmed */\n      dup3\n        /* \"contracts/nft-market.sol\":3807:3808  i */\n      dup3\n        /* \"contracts/nft-market.sol\":3791:3809  myOrdersTrimmed[i] */\n      dup2\n      mload\n      dup2\n      lt\n      tag_136\n      jumpi\n      tag_137\n      tag_116\n      jump\t// in\n    tag_137:\n    tag_136:\n      0x20\n      mul\n      0x20\n      add\n      add\n        /* \"contracts/nft-market.sol\":3791:3823  myOrdersTrimmed[i] = myOrders[i] */\n      dup2\n      swap1\n      mstore\n      pop\n        /* \"contracts/nft-market.sol\":3772:3775  i++ */\n      dup1\n      dup1\n      0x01\n      add\n      swap2\n      pop\n      pop\n        /* \"contracts/nft-market.sol\":3733:3834  for (uint256 i = 0; i < myOrdersCount; i++) {... */\n      jump(tag_131)\n    tag_132:\n      pop\n        /* \"contracts/nft-market.sol\":3851:3866  myOrdersTrimmed */\n      dup1\n        /* \"contracts/nft-market.sol\":3844:3866  return myOrdersTrimmed */\n      swap4\n      pop\n      pop\n      pop\n      pop\n        /* \"contracts/nft-market.sol\":3283:3873  function getMyNFTs() public view returns (Order[] memory) {... */\n      swap1\n      jump\t// out\n        /* \"contracts/nft-market.sol\":361:380  IERC20 public erc20 */\n    tag_40:\n      0x00\n      dup1\n      sload\n      swap1\n      0x0100\n      exp\n      swap1\n      div\n      0xffffffffffffffffffffffffffffffffffffffff\n      and\n      dup2\n      jump\t// out\n        /* \"contracts/nft-market.sol\":4012:4105  function getOrderLength() public view returns (uint256) {... */\n    tag_44:\n        /* \"contracts/nft-market.sol\":4059:4066  uint256 */\n      0x00\n        /* \"contracts/nft-market.sol\":4085:4091  orders */\n      0x03\n        /* \"contracts/nft-market.sol\":4085:4098  orders.length */\n      dup1\n      sload\n      swap1\n      pop\n        /* \"contracts/nft-market.sol\":4078:4098  return orders.length */\n      swap1\n      pop\n        /* \"contracts/nft-market.sol\":4012:4105  function getOrderLength() public view returns (uint256) {... */\n      swap1\n      jump\t// out\n        /* \"contracts/nft-market.sol\":876:897  Order[] public orders */\n    tag_49:\n      0x03\n      dup2\n      dup2\n      sload\n      dup2\n      lt\n      tag_139\n      jumpi\n      0x00\n      dup1\n      revert\n    tag_139:\n      swap1\n      0x00\n      mstore\n      keccak256(0x00, 0x20)\n      swap1\n      0x03\n      mul\n      add\n      0x00\n      swap2\n      pop\n      swap1\n      pop\n      dup1\n      0x00\n      add\n      0x00\n      swap1\n      sload\n      swap1\n      0x0100\n      exp\n      swap1\n      div\n      0xffffffffffffffffffffffffffffffffffffffff\n      and\n      swap1\n      dup1\n      0x01\n      add\n      sload\n      swap1\n      dup1\n      0x02\n      add\n      sload\n      swap1\n      pop\n      dup4\n      jump\t// out\n        /* \"contracts/nft-market.sol\":2650:3182  function changePrice(uint256 _tokenId, uint256 _price) external {... */\n    tag_54:\n        /* \"contracts/nft-market.sol\":2732:2750  isListed(_tokenId) */\n      tag_142\n        /* \"contracts/nft-market.sol\":2741:2749  _tokenId */\n      dup3\n        /* \"contracts/nft-market.sol\":2732:2740  isListed */\n      tag_76\n        /* \"contracts/nft-market.sol\":2732:2750  isListed(_tokenId) */\n      jump\t// in\n    tag_142:\n        /* \"contracts/nft-market.sol\":2724:2785  require(isListed(_tokenId), \"Market: Token ID is not listed\") */\n      tag_143\n      jumpi\n      mload(0x40)\n      0x08c379a000000000000000000000000000000000000000000000000000000000\n      dup2\n      mstore\n      0x04\n      add\n      tag_144\n      swap1\n      tag_90\n      jump\t// in\n    tag_144:\n      mload(0x40)\n      dup1\n      swap2\n      sub\n      swap1\n      revert\n    tag_143:\n        /* \"contracts/nft-market.sol\":2795:2809  address seller */\n      0x00\n        /* \"contracts/nft-market.sol\":2812:2821  orderOfId */\n      0x02\n        /* \"contracts/nft-market.sol\":2812:2831  orderOfId[_tokenId] */\n      0x00\n        /* \"contracts/nft-market.sol\":2822:2830  _tokenId */\n      dup5\n        /* \"contracts/nft-market.sol\":2812:2831  orderOfId[_tokenId] */\n      dup2\n      mstore\n      0x20\n      add\n      swap1\n      dup2\n      mstore\n      0x20\n      add\n      0x00\n      keccak256\n        /* \"contracts/nft-market.sol\":2812:2838  orderOfId[_tokenId].seller */\n      0x00\n      add\n      0x00\n      swap1\n      sload\n      swap1\n      0x0100\n      exp\n      swap1\n      div\n      0xffffffffffffffffffffffffffffffffffffffff\n      and\n        /* \"contracts/nft-market.sol\":2795:2838  address seller = orderOfId[_tokenId].seller */\n      swap1\n      pop\n        /* \"contracts/nft-market.sol\":2866:2876  msg.sender */\n      caller\n        /* \"contracts/nft-market.sol\":2856:2876  seller == msg.sender */\n      0xffffffffffffffffffffffffffffffffffffffff\n      and\n        /* \"contracts/nft-market.sol\":2856:2862  seller */\n      dup2\n        /* \"contracts/nft-market.sol\":2856:2876  seller == msg.sender */\n      0xffffffffffffffffffffffffffffffffffffffff\n      and\n      eq\n        /* \"contracts/nft-market.sol\":2848:2909  require(seller == msg.sender, \"Market: Sender is not seller\") */\n      tag_145\n      jumpi\n      mload(0x40)\n      0x08c379a000000000000000000000000000000000000000000000000000000000\n      dup2\n      mstore\n      0x04\n      add\n      tag_146\n      swap1\n      tag_93\n      jump\t// in\n    tag_146:\n      mload(0x40)\n      dup1\n      swap2\n      sub\n      swap1\n      revert\n    tag_145:\n        /* \"contracts/nft-market.sol\":2920:2941  uint256 previousPrice */\n      0x00\n        /* \"contracts/nft-market.sol\":2944:2953  orderOfId */\n      0x02\n        /* \"contracts/nft-market.sol\":2944:2963  orderOfId[_tokenId] */\n      0x00\n        /* \"contracts/nft-market.sol\":2954:2962  _tokenId */\n      dup6\n        /* \"contracts/nft-market.sol\":2944:2963  orderOfId[_tokenId] */\n      dup2\n      mstore\n      0x20\n      add\n      swap1\n      dup2\n      mstore\n      0x20\n      add\n      0x00\n      keccak256\n        /* \"contracts/nft-market.sol\":2944:2969  orderOfId[_tokenId].price */\n      0x02\n      add\n      sload\n        /* \"contracts/nft-market.sol\":2920:2969  uint256 previousPrice = orderOfId[_tokenId].price */\n      swap1\n      pop\n        /* \"contracts/nft-market.sol\":3007:3013  _price */\n      dup3\n        /* \"contracts/nft-market.sol\":2979:2988  orderOfId */\n      0x02\n        /* \"contracts/nft-market.sol\":2979:2998  orderOfId[_tokenId] */\n      0x00\n        /* \"contracts/nft-market.sol\":2989:2997  _tokenId */\n      dup7\n        /* \"contracts/nft-market.sol\":2979:2998  orderOfId[_tokenId] */\n      dup2\n      mstore\n      0x20\n      add\n      swap1\n      dup2\n      mstore\n      0x20\n      add\n      0x00\n      keccak256\n        /* \"contracts/nft-market.sol\":2979:3004  orderOfId[_tokenId].price */\n      0x02\n      add\n        /* \"contracts/nft-market.sol\":2979:3013  orderOfId[_tokenId].price = _price */\n      dup2\n      swap1\n      sstore\n      pop\n        /* \"contracts/nft-market.sol\":3023:3042  Order storage order */\n      0x00\n        /* \"contracts/nft-market.sol\":3045:3051  orders */\n      0x03\n        /* \"contracts/nft-market.sol\":3052:3066  idToOrderIndex */\n      0x04\n        /* \"contracts/nft-market.sol\":3052:3076  idToOrderIndex[_tokenId] */\n      0x00\n        /* \"contracts/nft-market.sol\":3067:3075  _tokenId */\n      dup8\n        /* \"contracts/nft-market.sol\":3052:3076  idToOrderIndex[_tokenId] */\n      dup2\n      mstore\n      0x20\n      add\n      swap1\n      dup2\n      mstore\n      0x20\n      add\n      0x00\n      keccak256\n      sload\n        /* \"contracts/nft-market.sol\":3045:3077  orders[idToOrderIndex[_tokenId]] */\n      dup2\n      sload\n      dup2\n      lt\n      tag_147\n      jumpi\n      tag_148\n      tag_116\n      jump\t// in\n    tag_148:\n    tag_147:\n      swap1\n      0x00\n      mstore\n      keccak256(0x00, 0x20)\n      swap1\n      0x03\n      mul\n      add\n        /* \"contracts/nft-market.sol\":3023:3077  Order storage order = orders[idToOrderIndex[_tokenId]] */\n      swap1\n      pop\n        /* \"contracts/nft-market.sol\":3101:3107  _price */\n      dup4\n        /* \"contracts/nft-market.sol\":3087:3092  order */\n      dup2\n        /* \"contracts/nft-market.sol\":3087:3098  order.price */\n      0x02\n      add\n        /* \"contracts/nft-market.sol\":3087:3107  order.price = _price */\n      dup2\n      swap1\n      sstore\n      pop\n        /* \"contracts/nft-market.sol\":3123:3175  ChangePrice(seller, _tokenId, previousPrice, _price) */\n      0x342a7f6248980b0f191b96eb6b7a439c4da78b2c97b86ca66cc7ee90d4b04cce\n        /* \"contracts/nft-market.sol\":3135:3141  seller */\n      dup4\n        /* \"contracts/nft-market.sol\":3143:3151  _tokenId */\n      dup7\n        /* \"contracts/nft-market.sol\":3153:3166  previousPrice */\n      dup5\n        /* \"contracts/nft-market.sol\":3168:3174  _price */\n      dup8\n        /* \"contracts/nft-market.sol\":3123:3175  ChangePrice(seller, _tokenId, previousPrice, _price) */\n      mload(0x40)\n      tag_150\n      swap5\n      swap4\n      swap3\n      swap2\n      swap1\n      tag_151\n      jump\t// in\n    tag_150:\n      mload(0x40)\n      dup1\n      swap2\n      sub\n      swap1\n      log1\n        /* \"contracts/nft-market.sol\":2714:3182  {... */\n      pop\n      pop\n      pop\n        /* \"contracts/nft-market.sol\":2650:3182  function changePrice(uint256 _tokenId, uint256 _price) external {... */\n      pop\n      pop\n      jump\t// out\n        /* \"contracts/nft-market.sol\":4894:5303  function toUint256(... */\n    tag_58:\n        /* \"contracts/nft-market.sol\":4993:5000  uint256 */\n      0x00\n        /* \"contracts/nft-market.sol\":5035:5041  _start */\n      dup2\n        /* \"contracts/nft-market.sol\":5029:5031  32 */\n      0x20\n        /* \"contracts/nft-market.sol\":5020:5026  _start */\n      dup4\n        /* \"contracts/nft-market.sol\":5020:5031  _start + 32 */\n      tag_153\n      swap2\n      swap1\n      tag_154\n      jump\t// in\n    tag_153:\n        /* \"contracts/nft-market.sol\":5020:5041  _start + 32 >= _start */\n      lt\n      iszero\n        /* \"contracts/nft-market.sol\":5012:5072  require(_start + 32 >= _start, \"Market: toUint256_overflow\") */\n      tag_155\n      jumpi\n      mload(0x40)\n      0x08c379a000000000000000000000000000000000000000000000000000000000\n      dup2\n      mstore\n      0x04\n      add\n      tag_156\n      swap1\n      tag_157\n      jump\t// in\n    tag_156:\n      mload(0x40)\n      dup1\n      swap2\n      sub\n      swap1\n      revert\n    tag_155:\n        /* \"contracts/nft-market.sol\":5116:5118  32 */\n      0x20\n        /* \"contracts/nft-market.sol\":5107:5113  _start */\n      dup3\n        /* \"contracts/nft-market.sol\":5107:5118  _start + 32 */\n      tag_158\n      swap2\n      swap1\n      tag_154\n      jump\t// in\n    tag_158:\n        /* \"contracts/nft-market.sol\":5090:5096  _bytes */\n      dup4\n        /* \"contracts/nft-market.sol\":5090:5103  _bytes.length */\n      mload\n        /* \"contracts/nft-market.sol\":5090:5118  _bytes.length >= _start + 32 */\n      lt\n      iszero\n        /* \"contracts/nft-market.sol\":5082:5152  require(_bytes.length >= _start + 32, \"Market: toUint256_outOfBounds\") */\n      tag_159\n      jumpi\n      mload(0x40)\n      0x08c379a000000000000000000000000000000000000000000000000000000000\n      dup2\n      mstore\n      0x04\n      add\n      tag_160\n      swap1\n      tag_161\n      jump\t// in\n    tag_160:\n      mload(0x40)\n      dup1\n      swap2\n      sub\n      swap1\n      revert\n    tag_159:\n        /* \"contracts/nft-market.sol\":5162:5178  uint256 tempUint */\n      0x00\n        /* \"contracts/nft-market.sol\":5253:5259  _start */\n      dup3\n        /* \"contracts/nft-market.sol\":5246:5250  0x20 */\n      0x20\n        /* \"contracts/nft-market.sol\":5238:5244  _bytes */\n      dup6\n        /* \"contracts/nft-market.sol\":5234:5251  add(_bytes, 0x20) */\n      add\n        /* \"contracts/nft-market.sol\":5230:5260  add(add(_bytes, 0x20), _start) */\n      add\n        /* \"contracts/nft-market.sol\":5224:5261  mload(add(add(_bytes, 0x20), _start)) */\n      mload\n        /* \"contracts/nft-market.sol\":5212:5261  tempUint := mload(add(add(_bytes, 0x20), _start)) */\n      swap1\n      pop\n        /* \"contracts/nft-market.sol\":5288:5296  tempUint */\n      dup1\n        /* \"contracts/nft-market.sol\":5281:5296  return tempUint */\n      swap2\n      pop\n      pop\n        /* \"contracts/nft-market.sol\":4894:5303  function toUint256(... */\n      swap3\n      swap2\n      pop\n      pop\n      jump\t// out\n        /* \"contracts/nft-market.sol\":386:407  IERC721 public erc721 */\n    tag_61:\n      0x01\n      0x00\n      swap1\n      sload\n      swap1\n      0x0100\n      exp\n      swap1\n      div\n      0xffffffffffffffffffffffffffffffffffffffff\n      and\n      dup2\n      jump\t// out\n        /* \"contracts/nft-market.sol\":1698:2242  function buy(uint256 _tokenId) external {... */\n    tag_66:\n        /* \"contracts/nft-market.sol\":1756:1774  isListed(_tokenId) */\n      tag_163\n        /* \"contracts/nft-market.sol\":1765:1773  _tokenId */\n      dup2\n        /* \"contracts/nft-market.sol\":1756:1764  isListed */\n      tag_76\n        /* \"contracts/nft-market.sol\":1756:1774  isListed(_tokenId) */\n      jump\t// in\n    tag_163:\n        /* \"contracts/nft-market.sol\":1748:1809  require(isListed(_tokenId), \"Market: Token ID is not listed\") */\n      tag_164\n      jumpi\n      mload(0x40)\n      0x08c379a000000000000000000000000000000000000000000000000000000000\n      dup2\n      mstore\n      0x04\n      add\n      tag_165\n      swap1\n      tag_90\n      jump\t// in\n    tag_165:\n      mload(0x40)\n      dup1\n      swap2\n      sub\n      swap1\n      revert\n    tag_164:\n        /* \"contracts/nft-market.sol\":1820:1834  address seller */\n      0x00\n        /* \"contracts/nft-market.sol\":1837:1846  orderOfId */\n      0x02\n        /* \"contracts/nft-market.sol\":1837:1856  orderOfId[_tokenId] */\n      0x00\n        /* \"contracts/nft-market.sol\":1847:1855  _tokenId */\n      dup4\n        /* \"contracts/nft-market.sol\":1837:1856  orderOfId[_tokenId] */\n      dup2\n      mstore\n      0x20\n      add\n      swap1\n      dup2\n      mstore\n      0x20\n      add\n      0x00\n      keccak256\n        /* \"contracts/nft-market.sol\":1837:1863  orderOfId[_tokenId].seller */\n      0x00\n      add\n      0x00\n      swap1\n      sload\n      swap1\n      0x0100\n      exp\n      swap1\n      div\n      0xffffffffffffffffffffffffffffffffffffffff\n      and\n        /* \"contracts/nft-market.sol\":1820:1863  address seller = orderOfId[_tokenId].seller */\n      swap1\n      pop\n        /* \"contracts/nft-market.sol\":1873:1886  address buyer */\n      0x00\n        /* \"contracts/nft-market.sol\":1889:1899  msg.sender */\n      caller\n        /* \"contracts/nft-market.sol\":1873:1899  address buyer = msg.sender */\n      swap1\n      pop\n        /* \"contracts/nft-market.sol\":1909:1922  uint256 price */\n      0x00\n        /* \"contracts/nft-market.sol\":1925:1934  orderOfId */\n      0x02\n        /* \"contracts/nft-market.sol\":1925:1944  orderOfId[_tokenId] */\n      0x00\n        /* \"contracts/nft-market.sol\":1935:1943  _tokenId */\n      dup6\n        /* \"contracts/nft-market.sol\":1925:1944  orderOfId[_tokenId] */\n      dup2\n      mstore\n      0x20\n      add\n      swap1\n      dup2\n      mstore\n      0x20\n      add\n      0x00\n      keccak256\n        /* \"contracts/nft-market.sol\":1925:1950  orderOfId[_tokenId].price */\n      0x02\n      add\n      sload\n        /* \"contracts/nft-market.sol\":1909:1950  uint256 price = orderOfId[_tokenId].price */\n      swap1\n      pop\n        /* \"contracts/nft-market.sol\":1982:1987  erc20 */\n      0x00\n      dup1\n      sload\n      swap1\n      0x0100\n      exp\n      swap1\n      div\n      0xffffffffffffffffffffffffffffffffffffffff\n      and\n        /* \"contracts/nft-market.sol\":1982:2000  erc20.transferFrom */\n      0xffffffffffffffffffffffffffffffffffffffff\n      and\n      0x23b872dd\n        /* \"contracts/nft-market.sol\":2001:2006  buyer */\n      dup4\n        /* \"contracts/nft-market.sol\":2008:2014  seller */\n      dup6\n        /* \"contracts/nft-market.sol\":2016:2021  price */\n      dup5\n        /* \"contracts/nft-market.sol\":1982:2022  erc20.transferFrom(buyer, seller, price) */\n      mload(0x40)\n      dup5\n      0xffffffff\n      and\n      0xe0\n      shl\n      dup2\n      mstore\n      0x04\n      add\n      tag_166\n      swap4\n      swap3\n      swap2\n      swap1\n      tag_95\n      jump\t// in\n    tag_166:\n      0x20\n      mload(0x40)\n      dup1\n      dup4\n      sub\n      dup2\n      0x00\n      dup8\n      gas\n      call\n      iszero\n      dup1\n      iszero\n      tag_168\n      jumpi\n      returndatasize\n      0x00\n      dup1\n      returndatacopy\n      revert(0x00, returndatasize)\n    tag_168:\n      pop\n      pop\n      pop\n      pop\n      mload(0x40)\n      returndatasize\n      not(0x1f)\n      0x1f\n      dup3\n      add\n      and\n      dup3\n      add\n      dup1\n      0x40\n      mstore\n      pop\n      dup2\n      add\n      swap1\n      tag_169\n      swap2\n      swap1\n      tag_170\n      jump\t// in\n    tag_169:\n        /* \"contracts/nft-market.sol\":1961:2085  require(... */\n      tag_171\n      jumpi\n      mload(0x40)\n      0x08c379a000000000000000000000000000000000000000000000000000000000\n      dup2\n      mstore\n      0x04\n      add\n      tag_172\n      swap1\n      tag_173\n      jump\t// in\n    tag_172:\n      mload(0x40)\n      dup1\n      swap2\n      sub\n      swap1\n      revert\n    tag_171:\n        /* \"contracts/nft-market.sol\":2095:2101  erc721 */\n      0x01\n      0x00\n      swap1\n      sload\n      swap1\n      0x0100\n      exp\n      swap1\n      div\n      0xffffffffffffffffffffffffffffffffffffffff\n      and\n        /* \"contracts/nft-market.sol\":2095:2118  erc721.safeTransferFrom */\n      0xffffffffffffffffffffffffffffffffffffffff\n      and\n      0x42842e0e\n        /* \"contracts/nft-market.sol\":2127:2131  this */\n      address\n        /* \"contracts/nft-market.sol\":2134:2139  buyer */\n      dup5\n        /* \"contracts/nft-market.sol\":2141:2149  _tokenId */\n      dup8\n        /* \"contracts/nft-market.sol\":2095:2150  erc721.safeTransferFrom(address(this), buyer, _tokenId) */\n      mload(0x40)\n      dup5\n      0xffffffff\n      and\n      0xe0\n      shl\n      dup2\n      mstore\n      0x04\n      add\n      tag_174\n      swap4\n      swap3\n      swap2\n      swap1\n      tag_95\n      jump\t// in\n    tag_174:\n      0x00\n      mload(0x40)\n      dup1\n      dup4\n      sub\n      dup2\n      0x00\n      dup8\n      dup1\n      extcodesize\n      iszero\n      dup1\n      iszero\n      tag_175\n      jumpi\n      0x00\n      dup1\n      revert\n    tag_175:\n      pop\n      gas\n      call\n      iszero\n      dup1\n      iszero\n      tag_177\n      jumpi\n      returndatasize\n      0x00\n      dup1\n      returndatacopy\n      revert(0x00, returndatasize)\n    tag_177:\n      pop\n      pop\n      pop\n      pop\n        /* \"contracts/nft-market.sol\":2160:2183  removeListing(_tokenId) */\n      tag_178\n        /* \"contracts/nft-market.sol\":2174:2182  _tokenId */\n      dup5\n        /* \"contracts/nft-market.sol\":2160:2173  removeListing */\n      tag_100\n        /* \"contracts/nft-market.sol\":2160:2183  removeListing(_tokenId) */\n      jump\t// in\n    tag_178:\n        /* \"contracts/nft-market.sol\":2199:2235  Deal(buyer, seller, _tokenId, price) */\n      0x424d5e5f0192c7dacdbe646ca31b00299146d883d76a95ef5cddbac7cd342eab\n        /* \"contracts/nft-market.sol\":2204:2209  buyer */\n      dup3\n        /* \"contracts/nft-market.sol\":2211:2217  seller */\n      dup5\n        /* \"contracts/nft-market.sol\":2219:2227  _tokenId */\n      dup7\n        /* \"contracts/nft-market.sol\":2229:2234  price */\n      dup5\n        /* \"contracts/nft-market.sol\":2199:2235  Deal(buyer, seller, _tokenId, price) */\n      mload(0x40)\n      tag_179\n      swap5\n      swap4\n      swap3\n      swap2\n      swap1\n      tag_180\n      jump\t// in\n    tag_179:\n      mload(0x40)\n      dup1\n      swap2\n      sub\n      swap1\n      log1\n        /* \"contracts/nft-market.sol\":1738:2242  {... */\n      pop\n      pop\n      pop\n        /* \"contracts/nft-market.sol\":1698:2242  function buy(uint256 _tokenId) external {... */\n      pop\n      jump\t// out\n        /* \"contracts/nft-market.sol\":903:952  mapping(uint256 => uint256) public idToOrderIndex */\n    tag_69:\n      mstore(0x20, 0x04)\n      dup1\n      0x00\n      mstore\n      keccak256(0x00, 0x40)\n      0x00\n      swap2\n      pop\n      swap1\n      pop\n      sload\n      dup2\n      jump\t// out\n        /* \"contracts/nft-market.sol\":3188:3277  function getAllNFTs() public view returns (Order[] memory) {... */\n    tag_72:\n        /* \"contracts/nft-market.sol\":3231:3245  Order[] memory */\n      0x60\n        /* \"contracts/nft-market.sol\":3264:3270  orders */\n      0x03\n        /* \"contracts/nft-market.sol\":3257:3270  return orders */\n      dup1\n      sload\n      dup1\n      0x20\n      mul\n      0x20\n      add\n      mload(0x40)\n      swap1\n      dup2\n      add\n      0x40\n      mstore\n      dup1\n      swap3\n      swap2\n      swap1\n      dup2\n      dup2\n      mstore\n      0x20\n      add\n      0x00\n      swap1\n    tag_182:\n      dup3\n      dup3\n      lt\n      iszero\n      tag_183\n      jumpi\n      dup4\n      dup3\n      swap1\n      0x00\n      mstore\n      keccak256(0x00, 0x20)\n      swap1\n      0x03\n      mul\n      add\n      mload(0x40)\n      dup1\n      0x60\n      add\n      0x40\n      mstore\n      swap1\n      dup2\n      0x00\n      dup3\n      add\n      0x00\n      swap1\n      sload\n      swap1\n      0x0100\n      exp\n      swap1\n      div\n      0xffffffffffffffffffffffffffffffffffffffff\n      and\n      0xffffffffffffffffffffffffffffffffffffffff\n      and\n      0xffffffffffffffffffffffffffffffffffffffff\n      and\n      dup2\n      mstore\n      0x20\n      add\n      0x01\n      dup3\n      add\n      sload\n      dup2\n      mstore\n      0x20\n      add\n      0x02\n      dup3\n      add\n      sload\n      dup2\n      mstore\n      pop\n      pop\n      dup2\n      mstore\n      0x20\n      add\n      swap1\n      0x01\n      add\n      swap1\n      jump(tag_182)\n    tag_183:\n      pop\n      pop\n      pop\n      pop\n      swap1\n      pop\n        /* \"contracts/nft-market.sol\":3188:3277  function getAllNFTs() public view returns (Order[] memory) {... */\n      swap1\n      jump\t// out\n        /* \"contracts/nft-market.sol\":3879:4006  function isListed(uint256 _tokenId) public view returns (bool) {... */\n    tag_76:\n        /* \"contracts/nft-market.sol\":3936:3940  bool */\n      0x00\n        /* \"contracts/nft-market.sol\":3997:3998  0 */\n      dup1\n        /* \"contracts/nft-market.sol\":3959:3999  orderOfId[_tokenId].seller != address(0) */\n      0xffffffffffffffffffffffffffffffffffffffff\n      and\n        /* \"contracts/nft-market.sol\":3959:3968  orderOfId */\n      0x02\n        /* \"contracts/nft-market.sol\":3959:3978  orderOfId[_tokenId] */\n      0x00\n        /* \"contracts/nft-market.sol\":3969:3977  _tokenId */\n      dup5\n        /* \"contracts/nft-market.sol\":3959:3978  orderOfId[_tokenId] */\n      dup2\n      mstore\n      0x20\n      add\n      swap1\n      dup2\n      mstore\n      0x20\n      add\n      0x00\n      keccak256\n        /* \"contracts/nft-market.sol\":3959:3985  orderOfId[_tokenId].seller */\n      0x00\n      add\n      0x00\n      swap1\n      sload\n      swap1\n      0x0100\n      exp\n      swap1\n      div\n      0xffffffffffffffffffffffffffffffffffffffff\n      and\n        /* \"contracts/nft-market.sol\":3959:3999  orderOfId[_tokenId].seller != address(0) */\n      0xffffffffffffffffffffffffffffffffffffffff\n      and\n      eq\n      iszero\n        /* \"contracts/nft-market.sol\":3952:3999  return orderOfId[_tokenId].seller != address(0) */\n      swap1\n      pop\n        /* \"contracts/nft-market.sol\":3879:4006  function isListed(uint256 _tokenId) public view returns (bool) {... */\n      swap2\n      swap1\n      pop\n      jump\t// out\n        /* \"contracts/nft-market.sol\":5309:5785  function placeOrder(... */\n    tag_85:\n        /* \"contracts/nft-market.sol\":5446:5447  0 */\n      0x00\n        /* \"contracts/nft-market.sol\":5437:5443  _price */\n      dup2\n        /* \"contracts/nft-market.sol\":5437:5447  _price > 0 */\n      gt\n        /* \"contracts/nft-market.sol\":5429:5491  require(_price > 0, \"Market: Price must be greater than zero\") */\n      tag_187\n      jumpi\n      mload(0x40)\n      0x08c379a000000000000000000000000000000000000000000000000000000000\n      dup2\n      mstore\n      0x04\n      add\n      tag_188\n      swap1\n      tag_189\n      jump\t// in\n    tag_188:\n      mload(0x40)\n      dup1\n      swap2\n      sub\n      swap1\n      revert\n    tag_187:\n        /* \"contracts/nft-market.sol\":5531:5538  _seller */\n      dup3\n        /* \"contracts/nft-market.sol\":5502:5511  orderOfId */\n      0x02\n        /* \"contracts/nft-market.sol\":5502:5521  orderOfId[_tokenId] */\n      0x00\n        /* \"contracts/nft-market.sol\":5512:5520  _tokenId */\n      dup5\n        /* \"contracts/nft-market.sol\":5502:5521  orderOfId[_tokenId] */\n      dup2\n      mstore\n      0x20\n      add\n      swap1\n      dup2\n      mstore\n      0x20\n      add\n      0x00\n      keccak256\n        /* \"contracts/nft-market.sol\":5502:5528  orderOfId[_tokenId].seller */\n      0x00\n      add\n      0x00\n        /* \"contracts/nft-market.sol\":5502:5538  orderOfId[_tokenId].seller = _seller */\n      0x0100\n      exp\n      dup2\n      sload\n      dup2\n      0xffffffffffffffffffffffffffffffffffffffff\n      mul\n      not\n      and\n      swap1\n      dup4\n      0xffffffffffffffffffffffffffffffffffffffff\n      and\n      mul\n      or\n      swap1\n      sstore\n      pop\n        /* \"contracts/nft-market.sol\":5576:5582  _price */\n      dup1\n        /* \"contracts/nft-market.sol\":5548:5557  orderOfId */\n      0x02\n        /* \"contracts/nft-market.sol\":5548:5567  orderOfId[_tokenId] */\n      0x00\n        /* \"contracts/nft-market.sol\":5558:5566  _tokenId */\n      dup5\n        /* \"contracts/nft-market.sol\":5548:5567  orderOfId[_tokenId] */\n      dup2\n      mstore\n      0x20\n      add\n      swap1\n      dup2\n      mstore\n      0x20\n      add\n      0x00\n      keccak256\n        /* \"contracts/nft-market.sol\":5548:5573  orderOfId[_tokenId].price */\n      0x02\n      add\n        /* \"contracts/nft-market.sol\":5548:5582  orderOfId[_tokenId].price = _price */\n      dup2\n      swap1\n      sstore\n      pop\n        /* \"contracts/nft-market.sol\":5622:5630  _tokenId */\n      dup2\n        /* \"contracts/nft-market.sol\":5592:5601  orderOfId */\n      0x02\n        /* \"contracts/nft-market.sol\":5592:5611  orderOfId[_tokenId] */\n      0x00\n        /* \"contracts/nft-market.sol\":5602:5610  _tokenId */\n      dup5\n        /* \"contracts/nft-market.sol\":5592:5611  orderOfId[_tokenId] */\n      dup2\n      mstore\n      0x20\n      add\n      swap1\n      dup2\n      mstore\n      0x20\n      add\n      0x00\n      keccak256\n        /* \"contracts/nft-market.sol\":5592:5619  orderOfId[_tokenId].tokenId */\n      0x01\n      add\n        /* \"contracts/nft-market.sol\":5592:5630  orderOfId[_tokenId].tokenId = _tokenId */\n      dup2\n      swap1\n      sstore\n      pop\n        /* \"contracts/nft-market.sol\":5641:5647  orders */\n      0x03\n        /* \"contracts/nft-market.sol\":5653:5662  orderOfId */\n      0x02\n        /* \"contracts/nft-market.sol\":5653:5672  orderOfId[_tokenId] */\n      0x00\n        /* \"contracts/nft-market.sol\":5663:5671  _tokenId */\n      dup5\n        /* \"contracts/nft-market.sol\":5653:5672  orderOfId[_tokenId] */\n      dup2\n      mstore\n      0x20\n      add\n      swap1\n      dup2\n      mstore\n      0x20\n      add\n      0x00\n      keccak256\n        /* \"contracts/nft-market.sol\":5641:5673  orders.push(orderOfId[_tokenId]) */\n      swap1\n      dup1\n      0x01\n      dup2\n      sload\n      add\n      dup1\n      dup3\n      sstore\n      dup1\n      swap2\n      pop\n      pop\n      0x01\n      swap1\n      sub\n      swap1\n      0x00\n      mstore\n      keccak256(0x00, 0x20)\n      swap1\n      0x03\n      mul\n      add\n      0x00\n      swap1\n      swap2\n      swap1\n      swap2\n      swap1\n      swap2\n      pop\n      0x00\n      dup3\n      add\n      0x00\n      swap1\n      sload\n      swap1\n      0x0100\n      exp\n      swap1\n      div\n      0xffffffffffffffffffffffffffffffffffffffff\n      and\n      dup2\n      0x00\n      add\n      exp(0x0100, 0x00)\n      dup2\n      sload\n      dup2\n      0xffffffffffffffffffffffffffffffffffffffff\n      mul\n      not\n      and\n      swap1\n      dup4\n      0xffffffffffffffffffffffffffffffffffffffff\n      and\n      mul\n      or\n      swap1\n      sstore\n      pop\n      0x01\n      dup3\n      add\n      sload\n      dup2\n      0x01\n      add\n      sstore\n      0x02\n      dup3\n      add\n      sload\n      dup2\n      0x02\n      add\n      sstore\n      pop\n      pop\n        /* \"contracts/nft-market.sol\":5726:5727  1 */\n      0x01\n        /* \"contracts/nft-market.sol\":5710:5716  orders */\n      0x03\n        /* \"contracts/nft-market.sol\":5710:5723  orders.length */\n      dup1\n      sload\n      swap1\n      pop\n        /* \"contracts/nft-market.sol\":5710:5727  orders.length - 1 */\n      tag_191\n      swap2\n      swap1\n      tag_192\n      jump\t// in\n    tag_191:\n        /* \"contracts/nft-market.sol\":5683:5697  idToOrderIndex */\n      0x04\n        /* \"contracts/nft-market.sol\":5683:5707  idToOrderIndex[_tokenId] */\n      0x00\n        /* \"contracts/nft-market.sol\":5698:5706  _tokenId */\n      dup5\n        /* \"contracts/nft-market.sol\":5683:5707  idToOrderIndex[_tokenId] */\n      dup2\n      mstore\n      0x20\n      add\n      swap1\n      dup2\n      mstore\n      0x20\n      add\n      0x00\n      keccak256\n        /* \"contracts/nft-market.sol\":5683:5727  idToOrderIndex[_tokenId] = orders.length - 1 */\n      dup2\n      swap1\n      sstore\n      pop\n        /* \"contracts/nft-market.sol\":5743:5778  NewOrder(_seller, _tokenId, _price) */\n      0xd5b509e657d5ec37ae4bdcab658b7340c0453bb630516d26623359a34c1cecf3\n        /* \"contracts/nft-market.sol\":5752:5759  _seller */\n      dup4\n        /* \"contracts/nft-market.sol\":5761:5769  _tokenId */\n      dup4\n        /* \"contracts/nft-market.sol\":5771:5777  _price */\n      dup4\n        /* \"contracts/nft-market.sol\":5743:5778  NewOrder(_seller, _tokenId, _price) */\n      mload(0x40)\n      tag_193\n      swap4\n      swap3\n      swap2\n      swap1\n      tag_31\n      jump\t// in\n    tag_193:\n      mload(0x40)\n      dup1\n      swap2\n      sub\n      swap1\n      log1\n        /* \"contracts/nft-market.sol\":5309:5785  function placeOrder(... */\n      pop\n      pop\n      pop\n      jump\t// out\n        /* \"contracts/nft-market.sol\":6108:6584  function removeListing(uint256 _tokenId) internal {... */\n    tag_100:\n        /* \"contracts/nft-market.sol\":6175:6184  orderOfId */\n      0x02\n        /* \"contracts/nft-market.sol\":6175:6194  orderOfId[_tokenId] */\n      0x00\n        /* \"contracts/nft-market.sol\":6185:6193  _tokenId */\n      dup3\n        /* \"contracts/nft-market.sol\":6175:6194  orderOfId[_tokenId] */\n      dup2\n      mstore\n      0x20\n      add\n      swap1\n      dup2\n      mstore\n      0x20\n      add\n      0x00\n      keccak256\n      0x00\n        /* \"contracts/nft-market.sol\":6168:6194  delete orderOfId[_tokenId] */\n      dup1\n      dup3\n      add\n      exp(0x0100, 0x00)\n      dup2\n      sload\n      swap1\n      0xffffffffffffffffffffffffffffffffffffffff\n      mul\n      not\n      and\n      swap1\n      sstore\n      0x01\n      dup3\n      add\n      0x00\n      swap1\n      sstore\n      0x02\n      dup3\n      add\n      0x00\n      swap1\n      sstore\n      pop\n      pop\n        /* \"contracts/nft-market.sol\":6205:6231  uint256 orderToRemoveIndex */\n      0x00\n        /* \"contracts/nft-market.sol\":6234:6248  idToOrderIndex */\n      0x04\n        /* \"contracts/nft-market.sol\":6234:6258  idToOrderIndex[_tokenId] */\n      0x00\n        /* \"contracts/nft-market.sol\":6249:6257  _tokenId */\n      dup4\n        /* \"contracts/nft-market.sol\":6234:6258  idToOrderIndex[_tokenId] */\n      dup2\n      mstore\n      0x20\n      add\n      swap1\n      dup2\n      mstore\n      0x20\n      add\n      0x00\n      keccak256\n      sload\n        /* \"contracts/nft-market.sol\":6205:6258  uint256 orderToRemoveIndex = idToOrderIndex[_tokenId] */\n      swap1\n      pop\n        /* \"contracts/nft-market.sol\":6268:6290  uint256 lastOrderIndex */\n      0x00\n        /* \"contracts/nft-market.sol\":6309:6310  1 */\n      0x01\n        /* \"contracts/nft-market.sol\":6293:6299  orders */\n      0x03\n        /* \"contracts/nft-market.sol\":6293:6306  orders.length */\n      dup1\n      sload\n      swap1\n      pop\n        /* \"contracts/nft-market.sol\":6293:6310  orders.length - 1 */\n      tag_195\n      swap2\n      swap1\n      tag_192\n      jump\t// in\n    tag_195:\n        /* \"contracts/nft-market.sol\":6268:6310  uint256 lastOrderIndex = orders.length - 1 */\n      swap1\n      pop\n        /* \"contracts/nft-market.sol\":6343:6361  orderToRemoveIndex */\n      dup2\n        /* \"contracts/nft-market.sol\":6325:6339  lastOrderIndex */\n      dup2\n        /* \"contracts/nft-market.sol\":6325:6361  lastOrderIndex != orderToRemoveIndex */\n      eq\n        /* \"contracts/nft-market.sol\":6321:6555  if (lastOrderIndex != orderToRemoveIndex) {... */\n      tag_196\n      jumpi\n        /* \"contracts/nft-market.sol\":6377:6399  Order memory lastOrder */\n      0x00\n        /* \"contracts/nft-market.sol\":6402:6408  orders */\n      0x03\n        /* \"contracts/nft-market.sol\":6409:6423  lastOrderIndex */\n      dup3\n        /* \"contracts/nft-market.sol\":6402:6424  orders[lastOrderIndex] */\n      dup2\n      sload\n      dup2\n      lt\n      tag_197\n      jumpi\n      tag_198\n      tag_116\n      jump\t// in\n    tag_198:\n    tag_197:\n      swap1\n      0x00\n      mstore\n      keccak256(0x00, 0x20)\n      swap1\n      0x03\n      mul\n      add\n        /* \"contracts/nft-market.sol\":6377:6424  Order memory lastOrder = orders[lastOrderIndex] */\n      mload(0x40)\n      dup1\n      0x60\n      add\n      0x40\n      mstore\n      swap1\n      dup2\n      0x00\n      dup3\n      add\n      0x00\n      swap1\n      sload\n      swap1\n      0x0100\n      exp\n      swap1\n      div\n      0xffffffffffffffffffffffffffffffffffffffff\n      and\n      0xffffffffffffffffffffffffffffffffffffffff\n      and\n      0xffffffffffffffffffffffffffffffffffffffff\n      and\n      dup2\n      mstore\n      0x20\n      add\n      0x01\n      dup3\n      add\n      sload\n      dup2\n      mstore\n      0x20\n      add\n      0x02\n      dup3\n      add\n      sload\n      dup2\n      mstore\n      pop\n      pop\n      swap1\n      pop\n        /* \"contracts/nft-market.sol\":6467:6476  lastOrder */\n      dup1\n        /* \"contracts/nft-market.sol\":6438:6444  orders */\n      0x03\n        /* \"contracts/nft-market.sol\":6445:6463  orderToRemoveIndex */\n      dup5\n        /* \"contracts/nft-market.sol\":6438:6464  orders[orderToRemoveIndex] */\n      dup2\n      sload\n      dup2\n      lt\n      tag_200\n      jumpi\n      tag_201\n      tag_116\n      jump\t// in\n    tag_201:\n    tag_200:\n      swap1\n      0x00\n      mstore\n      keccak256(0x00, 0x20)\n      swap1\n      0x03\n      mul\n      add\n        /* \"contracts/nft-market.sol\":6438:6476  orders[orderToRemoveIndex] = lastOrder */\n      0x00\n      dup3\n      add\n      mload\n      dup2\n      0x00\n      add\n      exp(0x0100, 0x00)\n      dup2\n      sload\n      dup2\n      0xffffffffffffffffffffffffffffffffffffffff\n      mul\n      not\n      and\n      swap1\n      dup4\n      0xffffffffffffffffffffffffffffffffffffffff\n      and\n      mul\n      or\n      swap1\n      sstore\n      pop\n      0x20\n      dup3\n      add\n      mload\n      dup2\n      0x01\n      add\n      sstore\n      0x40\n      dup3\n      add\n      mload\n      dup2\n      0x02\n      add\n      sstore\n      swap1\n      pop\n      pop\n        /* \"contracts/nft-market.sol\":6526:6544  orderToRemoveIndex */\n      dup3\n        /* \"contracts/nft-market.sol\":6490:6504  idToOrderIndex */\n      0x04\n        /* \"contracts/nft-market.sol\":6490:6523  idToOrderIndex[lastOrder.tokenId] */\n      0x00\n        /* \"contracts/nft-market.sol\":6505:6514  lastOrder */\n      dup4\n        /* \"contracts/nft-market.sol\":6505:6522  lastOrder.tokenId */\n      0x20\n      add\n      mload\n        /* \"contracts/nft-market.sol\":6490:6523  idToOrderIndex[lastOrder.tokenId] */\n      dup2\n      mstore\n      0x20\n      add\n      swap1\n      dup2\n      mstore\n      0x20\n      add\n      0x00\n      keccak256\n        /* \"contracts/nft-market.sol\":6490:6544  idToOrderIndex[lastOrder.tokenId] = orderToRemoveIndex */\n      dup2\n      swap1\n      sstore\n      pop\n        /* \"contracts/nft-market.sol\":6363:6555  {... */\n      pop\n        /* \"contracts/nft-market.sol\":6321:6555  if (lastOrderIndex != orderToRemoveIndex) {... */\n    tag_196:\n        /* \"contracts/nft-market.sol\":6565:6571  orders */\n      0x03\n        /* \"contracts/nft-market.sol\":6565:6577  orders.pop() */\n      dup1\n      sload\n      dup1\n      tag_203\n      jumpi\n      tag_204\n      tag_205\n      jump\t// in\n    tag_204:\n    tag_203:\n      0x01\n      swap1\n      sub\n      dup2\n      dup2\n      swap1\n      0x00\n      mstore\n      keccak256(0x00, 0x20)\n      swap1\n      0x03\n      mul\n      add\n      0x00\n      dup1\n      dup3\n      add\n      exp(0x0100, 0x00)\n      dup2\n      sload\n      swap1\n      0xffffffffffffffffffffffffffffffffffffffff\n      mul\n      not\n      and\n      swap1\n      sstore\n      0x01\n      dup3\n      add\n      0x00\n      swap1\n      sstore\n      0x02\n      dup3\n      add\n      0x00\n      swap1\n      sstore\n      pop\n      pop\n      swap1\n      sstore\n        /* \"contracts/nft-market.sol\":6158:6584  {... */\n      pop\n      pop\n        /* \"contracts/nft-market.sol\":6108:6584  function removeListing(uint256 _tokenId) internal {... */\n      pop\n      jump\t// out\n    tag_110:\n      mload(0x40)\n      dup1\n      0x60\n      add\n      0x40\n      mstore\n      dup1\n      and(0xffffffffffffffffffffffffffffffffffffffff, 0x00)\n      dup2\n      mstore\n      0x20\n      add\n      0x00\n      dup2\n      mstore\n      0x20\n      add\n      0x00\n      dup2\n      mstore\n      pop\n      swap1\n      jump\t// out\n        /* \"#utility.yul\":7:82   */\n    tag_207:\n        /* \"#utility.yul\":40:46   */\n      0x00\n        /* \"#utility.yul\":73:75   */\n      0x40\n        /* \"#utility.yul\":67:76   */\n      mload\n        /* \"#utility.yul\":57:76   */\n      swap1\n      pop\n        /* \"#utility.yul\":7:82   */\n      swap1\n      jump\t// out\n        /* \"#utility.yul\":88:205   */\n    tag_208:\n        /* \"#utility.yul\":197:198   */\n      0x00\n        /* \"#utility.yul\":194:195   */\n      dup1\n        /* \"#utility.yul\":187:199   */\n      revert\n        /* \"#utility.yul\":211:328   */\n    tag_209:\n        /* \"#utility.yul\":320:321   */\n      0x00\n        /* \"#utility.yul\":317:318   */\n      dup1\n        /* \"#utility.yul\":310:322   */\n      revert\n        /* \"#utility.yul\":334:460   */\n    tag_210:\n        /* \"#utility.yul\":371:378   */\n      0x00\n        /* \"#utility.yul\":411:453   */\n      0xffffffffffffffffffffffffffffffffffffffff\n        /* \"#utility.yul\":404:409   */\n      dup3\n        /* \"#utility.yul\":400:454   */\n      and\n        /* \"#utility.yul\":389:454   */\n      swap1\n      pop\n        /* \"#utility.yul\":334:460   */\n      swap2\n      swap1\n      pop\n      jump\t// out\n        /* \"#utility.yul\":466:562   */\n    tag_211:\n        /* \"#utility.yul\":503:510   */\n      0x00\n        /* \"#utility.yul\":532:556   */\n      tag_275\n        /* \"#utility.yul\":550:555   */\n      dup3\n        /* \"#utility.yul\":532:556   */\n      tag_210\n      jump\t// in\n    tag_275:\n        /* \"#utility.yul\":521:556   */\n      swap1\n      pop\n        /* \"#utility.yul\":466:562   */\n      swap2\n      swap1\n      pop\n      jump\t// out\n        /* \"#utility.yul\":568:690   */\n    tag_212:\n        /* \"#utility.yul\":641:665   */\n      tag_277\n        /* \"#utility.yul\":659:664   */\n      dup2\n        /* \"#utility.yul\":641:665   */\n      tag_211\n      jump\t// in\n    tag_277:\n        /* \"#utility.yul\":634:639   */\n      dup2\n        /* \"#utility.yul\":631:666   */\n      eq\n        /* \"#utility.yul\":621:684   */\n      tag_278\n      jumpi\n        /* \"#utility.yul\":680:681   */\n      0x00\n        /* \"#utility.yul\":677:678   */\n      dup1\n        /* \"#utility.yul\":670:682   */\n      revert\n        /* \"#utility.yul\":621:684   */\n    tag_278:\n        /* \"#utility.yul\":568:690   */\n      pop\n      jump\t// out\n        /* \"#utility.yul\":696:835   */\n    tag_213:\n        /* \"#utility.yul\":742:747   */\n      0x00\n        /* \"#utility.yul\":780:786   */\n      dup2\n        /* \"#utility.yul\":767:787   */\n      calldataload\n        /* \"#utility.yul\":758:787   */\n      swap1\n      pop\n        /* \"#utility.yul\":796:829   */\n      tag_280\n        /* \"#utility.yul\":823:828   */\n      dup2\n        /* \"#utility.yul\":796:829   */\n      tag_212\n      jump\t// in\n    tag_280:\n        /* \"#utility.yul\":696:835   */\n      swap3\n      swap2\n      pop\n      pop\n      jump\t// out\n        /* \"#utility.yul\":841:918   */\n    tag_214:\n        /* \"#utility.yul\":878:885   */\n      0x00\n        /* \"#utility.yul\":907:912   */\n      dup2\n        /* \"#utility.yul\":896:912   */\n      swap1\n      pop\n        /* \"#utility.yul\":841:918   */\n      swap2\n      swap1\n      pop\n      jump\t// out\n        /* \"#utility.yul\":924:1046   */\n    tag_215:\n        /* \"#utility.yul\":997:1021   */\n      tag_283\n        /* \"#utility.yul\":1015:1020   */\n      dup2\n        /* \"#utility.yul\":997:1021   */\n      tag_214\n      jump\t// in\n    tag_283:\n        /* \"#utility.yul\":990:995   */\n      dup2\n        /* \"#utility.yul\":987:1022   */\n      eq\n        /* \"#utility.yul\":977:1040   */\n      tag_284\n      jumpi\n        /* \"#utility.yul\":1036:1037   */\n      0x00\n        /* \"#utility.yul\":1033:1034   */\n      dup1\n        /* \"#utility.yul\":1026:1038   */\n      revert\n        /* \"#utility.yul\":977:1040   */\n    tag_284:\n        /* \"#utility.yul\":924:1046   */\n      pop\n      jump\t// out\n        /* \"#utility.yul\":1052:1191   */\n    tag_216:\n        /* \"#utility.yul\":1098:1103   */\n      0x00\n        /* \"#utility.yul\":1136:1142   */\n      dup2\n        /* \"#utility.yul\":1123:1143   */\n      calldataload\n        /* \"#utility.yul\":1114:1143   */\n      swap1\n      pop\n        /* \"#utility.yul\":1152:1185   */\n      tag_286\n        /* \"#utility.yul\":1179:1184   */\n      dup2\n        /* \"#utility.yul\":1152:1185   */\n      tag_215\n      jump\t// in\n    tag_286:\n        /* \"#utility.yul\":1052:1191   */\n      swap3\n      swap2\n      pop\n      pop\n      jump\t// out\n        /* \"#utility.yul\":1197:1314   */\n    tag_217:\n        /* \"#utility.yul\":1306:1307   */\n      0x00\n        /* \"#utility.yul\":1303:1304   */\n      dup1\n        /* \"#utility.yul\":1296:1308   */\n      revert\n        /* \"#utility.yul\":1320:1437   */\n    tag_218:\n        /* \"#utility.yul\":1429:1430   */\n      0x00\n        /* \"#utility.yul\":1426:1427   */\n      dup1\n        /* \"#utility.yul\":1419:1431   */\n      revert\n        /* \"#utility.yul\":1443:1560   */\n    tag_219:\n        /* \"#utility.yul\":1552:1553   */\n      0x00\n        /* \"#utility.yul\":1549:1550   */\n      dup1\n        /* \"#utility.yul\":1542:1554   */\n      revert\n        /* \"#utility.yul\":1579:2131   */\n    tag_220:\n        /* \"#utility.yul\":1636:1644   */\n      0x00\n        /* \"#utility.yul\":1646:1652   */\n      dup1\n        /* \"#utility.yul\":1696:1699   */\n      dup4\n        /* \"#utility.yul\":1689:1693   */\n      0x1f\n        /* \"#utility.yul\":1681:1687   */\n      dup5\n        /* \"#utility.yul\":1677:1694   */\n      add\n        /* \"#utility.yul\":1673:1700   */\n      slt\n        /* \"#utility.yul\":1663:1785   */\n      tag_291\n      jumpi\n        /* \"#utility.yul\":1704:1783   */\n      tag_292\n      tag_217\n      jump\t// in\n    tag_292:\n        /* \"#utility.yul\":1663:1785   */\n    tag_291:\n        /* \"#utility.yul\":1817:1823   */\n      dup3\n        /* \"#utility.yul\":1804:1824   */\n      calldataload\n        /* \"#utility.yul\":1794:1824   */\n      swap1\n      pop\n        /* \"#utility.yul\":1847:1865   */\n      0xffffffffffffffff\n        /* \"#utility.yul\":1839:1845   */\n      dup2\n        /* \"#utility.yul\":1836:1866   */\n      gt\n        /* \"#utility.yul\":1833:1950   */\n      iszero\n      tag_293\n      jumpi\n        /* \"#utility.yul\":1869:1948   */\n      tag_294\n      tag_218\n      jump\t// in\n    tag_294:\n        /* \"#utility.yul\":1833:1950   */\n    tag_293:\n        /* \"#utility.yul\":1983:1987   */\n      0x20\n        /* \"#utility.yul\":1975:1981   */\n      dup4\n        /* \"#utility.yul\":1971:1988   */\n      add\n        /* \"#utility.yul\":1959:1988   */\n      swap2\n      pop\n        /* \"#utility.yul\":2037:2040   */\n      dup4\n        /* \"#utility.yul\":2029:2033   */\n      0x01\n        /* \"#utility.yul\":2021:2027   */\n      dup3\n        /* \"#utility.yul\":2017:2034   */\n      mul\n        /* \"#utility.yul\":2007:2015   */\n      dup4\n        /* \"#utility.yul\":2003:2035   */\n      add\n        /* \"#utility.yul\":2000:2041   */\n      gt\n        /* \"#utility.yul\":1997:2125   */\n      iszero\n      tag_295\n      jumpi\n        /* \"#utility.yul\":2044:2123   */\n      tag_296\n      tag_219\n      jump\t// in\n    tag_296:\n        /* \"#utility.yul\":1997:2125   */\n    tag_295:\n        /* \"#utility.yul\":1579:2131   */\n      swap3\n      pop\n      swap3\n      swap1\n      pop\n      jump\t// out\n        /* \"#utility.yul\":2137:3100   */\n    tag_22:\n        /* \"#utility.yul\":2234:2240   */\n      0x00\n        /* \"#utility.yul\":2242:2248   */\n      dup1\n        /* \"#utility.yul\":2250:2256   */\n      0x00\n        /* \"#utility.yul\":2258:2264   */\n      dup1\n        /* \"#utility.yul\":2266:2272   */\n      0x00\n        /* \"#utility.yul\":2315:2318   */\n      0x80\n        /* \"#utility.yul\":2303:2312   */\n      dup7\n        /* \"#utility.yul\":2294:2301   */\n      dup9\n        /* \"#utility.yul\":2290:2313   */\n      sub\n        /* \"#utility.yul\":2286:2319   */\n      slt\n        /* \"#utility.yul\":2283:2403   */\n      iszero\n      tag_298\n      jumpi\n        /* \"#utility.yul\":2322:2401   */\n      tag_299\n      tag_208\n      jump\t// in\n    tag_299:\n        /* \"#utility.yul\":2283:2403   */\n    tag_298:\n        /* \"#utility.yul\":2442:2443   */\n      0x00\n        /* \"#utility.yul\":2467:2520   */\n      tag_300\n        /* \"#utility.yul\":2512:2519   */\n      dup9\n        /* \"#utility.yul\":2503:2509   */\n      dup3\n        /* \"#utility.yul\":2492:2501   */\n      dup10\n        /* \"#utility.yul\":2488:2510   */\n      add\n        /* \"#utility.yul\":2467:2520   */\n      tag_213\n      jump\t// in\n    tag_300:\n        /* \"#utility.yul\":2457:2520   */\n      swap6\n      pop\n        /* \"#utility.yul\":2413:2530   */\n      pop\n        /* \"#utility.yul\":2569:2571   */\n      0x20\n        /* \"#utility.yul\":2595:2648   */\n      tag_301\n        /* \"#utility.yul\":2640:2647   */\n      dup9\n        /* \"#utility.yul\":2631:2637   */\n      dup3\n        /* \"#utility.yul\":2620:2629   */\n      dup10\n        /* \"#utility.yul\":2616:2638   */\n      add\n        /* \"#utility.yul\":2595:2648   */\n      tag_213\n      jump\t// in\n    tag_301:\n        /* \"#utility.yul\":2585:2648   */\n      swap5\n      pop\n        /* \"#utility.yul\":2540:2658   */\n      pop\n        /* \"#utility.yul\":2697:2699   */\n      0x40\n        /* \"#utility.yul\":2723:2776   */\n      tag_302\n        /* \"#utility.yul\":2768:2775   */\n      dup9\n        /* \"#utility.yul\":2759:2765   */\n      dup3\n        /* \"#utility.yul\":2748:2757   */\n      dup10\n        /* \"#utility.yul\":2744:2766   */\n      add\n        /* \"#utility.yul\":2723:2776   */\n      tag_216\n      jump\t// in\n    tag_302:\n        /* \"#utility.yul\":2713:2776   */\n      swap4\n      pop\n        /* \"#utility.yul\":2668:2786   */\n      pop\n        /* \"#utility.yul\":2853:2855   */\n      0x60\n        /* \"#utility.yul\":2842:2851   */\n      dup7\n        /* \"#utility.yul\":2838:2856   */\n      add\n        /* \"#utility.yul\":2825:2857   */\n      calldataload\n        /* \"#utility.yul\":2884:2902   */\n      0xffffffffffffffff\n        /* \"#utility.yul\":2876:2882   */\n      dup2\n        /* \"#utility.yul\":2873:2903   */\n      gt\n        /* \"#utility.yul\":2870:2987   */\n      iszero\n      tag_303\n      jumpi\n        /* \"#utility.yul\":2906:2985   */\n      tag_304\n      tag_209\n      jump\t// in\n    tag_304:\n        /* \"#utility.yul\":2870:2987   */\n    tag_303:\n        /* \"#utility.yul\":3019:3083   */\n      tag_305\n        /* \"#utility.yul\":3075:3082   */\n      dup9\n        /* \"#utility.yul\":3066:3072   */\n      dup3\n        /* \"#utility.yul\":3055:3064   */\n      dup10\n        /* \"#utility.yul\":3051:3073   */\n      add\n        /* \"#utility.yul\":3019:3083   */\n      tag_220\n      jump\t// in\n    tag_305:\n        /* \"#utility.yul\":3001:3083   */\n      swap3\n      pop\n      swap3\n      pop\n        /* \"#utility.yul\":2796:3093   */\n      pop\n        /* \"#utility.yul\":2137:3100   */\n      swap3\n      swap6\n      pop\n      swap3\n      swap6\n      swap1\n      swap4\n      pop\n      jump\t// out\n        /* \"#utility.yul\":3106:3255   */\n    tag_221:\n        /* \"#utility.yul\":3142:3149   */\n      0x00\n        /* \"#utility.yul\":3182:3248   */\n      0xffffffff00000000000000000000000000000000000000000000000000000000\n        /* \"#utility.yul\":3175:3180   */\n      dup3\n        /* \"#utility.yul\":3171:3249   */\n      and\n        /* \"#utility.yul\":3160:3249   */\n      swap1\n      pop\n        /* \"#utility.yul\":3106:3255   */\n      swap2\n      swap1\n      pop\n      jump\t// out\n        /* \"#utility.yul\":3261:3376   */\n    tag_222:\n        /* \"#utility.yul\":3346:3369   */\n      tag_308\n        /* \"#utility.yul\":3363:3368   */\n      dup2\n        /* \"#utility.yul\":3346:3369   */\n      tag_221\n      jump\t// in\n    tag_308:\n        /* \"#utility.yul\":3341:3344   */\n      dup3\n        /* \"#utility.yul\":3334:3370   */\n      mstore\n        /* \"#utility.yul\":3261:3376   */\n      pop\n      pop\n      jump\t// out\n        /* \"#utility.yul\":3382:3600   */\n    tag_25:\n        /* \"#utility.yul\":3473:3477   */\n      0x00\n        /* \"#utility.yul\":3511:3513   */\n      0x20\n        /* \"#utility.yul\":3500:3509   */\n      dup3\n        /* \"#utility.yul\":3496:3514   */\n      add\n        /* \"#utility.yul\":3488:3514   */\n      swap1\n      pop\n        /* \"#utility.yul\":3524:3593   */\n      tag_310\n        /* \"#utility.yul\":3590:3591   */\n      0x00\n        /* \"#utility.yul\":3579:3588   */\n      dup4\n        /* \"#utility.yul\":3575:3592   */\n      add\n        /* \"#utility.yul\":3566:3572   */\n      dup5\n        /* \"#utility.yul\":3524:3593   */\n      tag_222\n      jump\t// in\n    tag_310:\n        /* \"#utility.yul\":3382:3600   */\n      swap3\n      swap2\n      pop\n      pop\n      jump\t// out\n        /* \"#utility.yul\":3606:3935   */\n    tag_28:\n        /* \"#utility.yul\":3665:3671   */\n      0x00\n        /* \"#utility.yul\":3714:3716   */\n      0x20\n        /* \"#utility.yul\":3702:3711   */\n      dup3\n        /* \"#utility.yul\":3693:3700   */\n      dup5\n        /* \"#utility.yul\":3689:3712   */\n      sub\n        /* \"#utility.yul\":3685:3717   */\n      slt\n        /* \"#utility.yul\":3682:3801   */\n      iszero\n      tag_312\n      jumpi\n        /* \"#utility.yul\":3720:3799   */\n      tag_313\n      tag_208\n      jump\t// in\n    tag_313:\n        /* \"#utility.yul\":3682:3801   */\n    tag_312:\n        /* \"#utility.yul\":3840:3841   */\n      0x00\n        /* \"#utility.yul\":3865:3918   */\n      tag_314\n        /* \"#utility.yul\":3910:3917   */\n      dup5\n        /* \"#utility.yul\":3901:3907   */\n      dup3\n        /* \"#utility.yul\":3890:3899   */\n      dup6\n        /* \"#utility.yul\":3886:3908   */\n      add\n        /* \"#utility.yul\":3865:3918   */\n      tag_216\n      jump\t// in\n    tag_314:\n        /* \"#utility.yul\":3855:3918   */\n      swap2\n      pop\n        /* \"#utility.yul\":3811:3928   */\n      pop\n        /* \"#utility.yul\":3606:3935   */\n      swap3\n      swap2\n      pop\n      pop\n      jump\t// out\n        /* \"#utility.yul\":3941:4059   */\n    tag_223:\n        /* \"#utility.yul\":4028:4052   */\n      tag_316\n        /* \"#utility.yul\":4046:4051   */\n      dup2\n        /* \"#utility.yul\":4028:4052   */\n      tag_211\n      jump\t// in\n    tag_316:\n        /* \"#utility.yul\":4023:4026   */\n      dup3\n        /* \"#utility.yul\":4016:4053   */\n      mstore\n        /* \"#utility.yul\":3941:4059   */\n      pop\n      pop\n      jump\t// out\n        /* \"#utility.yul\":4065:4183   */\n    tag_224:\n        /* \"#utility.yul\":4152:4176   */\n      tag_318\n        /* \"#utility.yul\":4170:4175   */\n      dup2\n        /* \"#utility.yul\":4152:4176   */\n      tag_214\n      jump\t// in\n    tag_318:\n        /* \"#utility.yul\":4147:4150   */\n      dup3\n        /* \"#utility.yul\":4140:4177   */\n      mstore\n        /* \"#utility.yul\":4065:4183   */\n      pop\n      pop\n      jump\t// out\n        /* \"#utility.yul\":4189:4631   */\n    tag_31:\n        /* \"#utility.yul\":4338:4342   */\n      0x00\n        /* \"#utility.yul\":4376:4378   */\n      0x60\n        /* \"#utility.yul\":4365:4374   */\n      dup3\n        /* \"#utility.yul\":4361:4379   */\n      add\n        /* \"#utility.yul\":4353:4379   */\n      swap1\n      pop\n        /* \"#utility.yul\":4389:4460   */\n      tag_320\n        /* \"#utility.yul\":4457:4458   */\n      0x00\n        /* \"#utility.yul\":4446:4455   */\n      dup4\n        /* \"#utility.yul\":4442:4459   */\n      add\n        /* \"#utility.yul\":4433:4439   */\n      dup7\n        /* \"#utility.yul\":4389:4460   */\n      tag_223\n      jump\t// in\n    tag_320:\n        /* \"#utility.yul\":4470:4542   */\n      tag_321\n        /* \"#utility.yul\":4538:4540   */\n      0x20\n        /* \"#utility.yul\":4527:4536   */\n      dup4\n        /* \"#utility.yul\":4523:4541   */\n      add\n        /* \"#utility.yul\":4514:4520   */\n      dup6\n        /* \"#utility.yul\":4470:4542   */\n      tag_224\n      jump\t// in\n    tag_321:\n        /* \"#utility.yul\":4552:4624   */\n      tag_322\n        /* \"#utility.yul\":4620:4622   */\n      0x40\n        /* \"#utility.yul\":4609:4618   */\n      dup4\n        /* \"#utility.yul\":4605:4623   */\n      add\n        /* \"#utility.yul\":4596:4602   */\n      dup5\n        /* \"#utility.yul\":4552:4624   */\n      tag_224\n      jump\t// in\n    tag_322:\n        /* \"#utility.yul\":4189:4631   */\n      swap5\n      swap4\n      pop\n      pop\n      pop\n      pop\n      jump\t// out\n        /* \"#utility.yul\":4637:4773   */\n    tag_225:\n        /* \"#utility.yul\":4726:4732   */\n      0x00\n        /* \"#utility.yul\":4760:4765   */\n      dup2\n        /* \"#utility.yul\":4754:4766   */\n      mload\n        /* \"#utility.yul\":4744:4766   */\n      swap1\n      pop\n        /* \"#utility.yul\":4637:4773   */\n      swap2\n      swap1\n      pop\n      jump\t// out\n        /* \"#utility.yul\":4779:4985   */\n    tag_226:\n        /* \"#utility.yul\":4900:4911   */\n      0x00\n        /* \"#utility.yul\":4934:4940   */\n      dup3\n        /* \"#utility.yul\":4929:4932   */\n      dup3\n        /* \"#utility.yul\":4922:4941   */\n      mstore\n        /* \"#utility.yul\":4974:4978   */\n      0x20\n        /* \"#utility.yul\":4969:4972   */\n      dup3\n        /* \"#utility.yul\":4965:4979   */\n      add\n        /* \"#utility.yul\":4950:4979   */\n      swap1\n      pop\n        /* \"#utility.yul\":4779:4985   */\n      swap3\n      swap2\n      pop\n      pop\n      jump\t// out\n        /* \"#utility.yul\":4991:5145   */\n    tag_227:\n        /* \"#utility.yul\":5080:5084   */\n      0x00\n        /* \"#utility.yul\":5103:5106   */\n      dup2\n        /* \"#utility.yul\":5095:5106   */\n      swap1\n      pop\n        /* \"#utility.yul\":5133:5137   */\n      0x20\n        /* \"#utility.yul\":5128:5131   */\n      dup3\n        /* \"#utility.yul\":5124:5138   */\n      add\n        /* \"#utility.yul\":5116:5138   */\n      swap1\n      pop\n        /* \"#utility.yul\":4991:5145   */\n      swap2\n      swap1\n      pop\n      jump\t// out\n        /* \"#utility.yul\":5151:5259   */\n    tag_228:\n        /* \"#utility.yul\":5228:5252   */\n      tag_327\n        /* \"#utility.yul\":5246:5251   */\n      dup2\n        /* \"#utility.yul\":5228:5252   */\n      tag_211\n      jump\t// in\n    tag_327:\n        /* \"#utility.yul\":5223:5226   */\n      dup3\n        /* \"#utility.yul\":5216:5253   */\n      mstore\n        /* \"#utility.yul\":5151:5259   */\n      pop\n      pop\n      jump\t// out\n        /* \"#utility.yul\":5265:5373   */\n    tag_229:\n        /* \"#utility.yul\":5342:5366   */\n      tag_329\n        /* \"#utility.yul\":5360:5365   */\n      dup2\n        /* \"#utility.yul\":5342:5366   */\n      tag_214\n      jump\t// in\n    tag_329:\n        /* \"#utility.yul\":5337:5340   */\n      dup3\n        /* \"#utility.yul\":5330:5367   */\n      mstore\n        /* \"#utility.yul\":5265:5373   */\n      pop\n      pop\n      jump\t// out\n        /* \"#utility.yul\":5429:6100   */\n    tag_230:\n        /* \"#utility.yul\":5560:5564   */\n      0x60\n        /* \"#utility.yul\":5555:5558   */\n      dup3\n        /* \"#utility.yul\":5551:5565   */\n      add\n        /* \"#utility.yul\":5649:5653   */\n      0x00\n        /* \"#utility.yul\":5642:5647   */\n      dup3\n        /* \"#utility.yul\":5638:5654   */\n      add\n        /* \"#utility.yul\":5632:5655   */\n      mload\n        /* \"#utility.yul\":5668:5731   */\n      tag_331\n        /* \"#utility.yul\":5725:5729   */\n      0x00\n        /* \"#utility.yul\":5720:5723   */\n      dup6\n        /* \"#utility.yul\":5716:5730   */\n      add\n        /* \"#utility.yul\":5702:5714   */\n      dup3\n        /* \"#utility.yul\":5668:5731   */\n      tag_228\n      jump\t// in\n    tag_331:\n        /* \"#utility.yul\":5575:5741   */\n      pop\n        /* \"#utility.yul\":5826:5830   */\n      0x20\n        /* \"#utility.yul\":5819:5824   */\n      dup3\n        /* \"#utility.yul\":5815:5831   */\n      add\n        /* \"#utility.yul\":5809:5832   */\n      mload\n        /* \"#utility.yul\":5845:5908   */\n      tag_332\n        /* \"#utility.yul\":5902:5906   */\n      0x20\n        /* \"#utility.yul\":5897:5900   */\n      dup6\n        /* \"#utility.yul\":5893:5907   */\n      add\n        /* \"#utility.yul\":5879:5891   */\n      dup3\n        /* \"#utility.yul\":5845:5908   */\n      tag_229\n      jump\t// in\n    tag_332:\n        /* \"#utility.yul\":5751:5918   */\n      pop\n        /* \"#utility.yul\":6001:6005   */\n      0x40\n        /* \"#utility.yul\":5994:5999   */\n      dup3\n        /* \"#utility.yul\":5990:6006   */\n      add\n        /* \"#utility.yul\":5984:6007   */\n      mload\n        /* \"#utility.yul\":6020:6083   */\n      tag_333\n        /* \"#utility.yul\":6077:6081   */\n      0x40\n        /* \"#utility.yul\":6072:6075   */\n      dup6\n        /* \"#utility.yul\":6068:6082   */\n      add\n        /* \"#utility.yul\":6054:6066   */\n      dup3\n        /* \"#utility.yul\":6020:6083   */\n      tag_229\n      jump\t// in\n    tag_333:\n        /* \"#utility.yul\":5928:6093   */\n      pop\n        /* \"#utility.yul\":5529:6100   */\n      pop\n        /* \"#utility.yul\":5429:6100   */\n      pop\n      pop\n      jump\t// out\n        /* \"#utility.yul\":6106:6373   */\n    tag_231:\n        /* \"#utility.yul\":6219:6229   */\n      0x00\n        /* \"#utility.yul\":6240:6330   */\n      tag_335\n        /* \"#utility.yul\":6326:6329   */\n      dup4\n        /* \"#utility.yul\":6318:6324   */\n      dup4\n        /* \"#utility.yul\":6240:6330   */\n      tag_230\n      jump\t// in\n    tag_335:\n        /* \"#utility.yul\":6362:6366   */\n      0x60\n        /* \"#utility.yul\":6357:6360   */\n      dup4\n        /* \"#utility.yul\":6353:6367   */\n      add\n        /* \"#utility.yul\":6339:6367   */\n      swap1\n      pop\n        /* \"#utility.yul\":6106:6373   */\n      swap3\n      swap2\n      pop\n      pop\n      jump\t// out\n        /* \"#utility.yul\":6379:6514   */\n    tag_232:\n        /* \"#utility.yul\":6471:6475   */\n      0x00\n        /* \"#utility.yul\":6503:6507   */\n      0x20\n        /* \"#utility.yul\":6498:6501   */\n      dup3\n        /* \"#utility.yul\":6494:6508   */\n      add\n        /* \"#utility.yul\":6486:6508   */\n      swap1\n      pop\n        /* \"#utility.yul\":6379:6514   */\n      swap2\n      swap1\n      pop\n      jump\t// out\n        /* \"#utility.yul\":6574:7482   */\n    tag_233:\n        /* \"#utility.yul\":6737:6740   */\n      0x00\n        /* \"#utility.yul\":6766:6842   */\n      tag_338\n        /* \"#utility.yul\":6836:6841   */\n      dup3\n        /* \"#utility.yul\":6766:6842   */\n      tag_225\n      jump\t// in\n    tag_338:\n        /* \"#utility.yul\":6858:6966   */\n      tag_339\n        /* \"#utility.yul\":6959:6965   */\n      dup2\n        /* \"#utility.yul\":6954:6957   */\n      dup6\n        /* \"#utility.yul\":6858:6966   */\n      tag_226\n      jump\t// in\n    tag_339:\n        /* \"#utility.yul\":6851:6966   */\n      swap4\n      pop\n        /* \"#utility.yul\":6990:7068   */\n      tag_340\n        /* \"#utility.yul\":7062:7067   */\n      dup4\n        /* \"#utility.yul\":6990:7068   */\n      tag_227\n      jump\t// in\n    tag_340:\n        /* \"#utility.yul\":7091:7098   */\n      dup1\n        /* \"#utility.yul\":7122:7123   */\n      0x00\n        /* \"#utility.yul\":7107:7457   */\n    tag_341:\n        /* \"#utility.yul\":7132:7138   */\n      dup4\n        /* \"#utility.yul\":7129:7130   */\n      dup2\n        /* \"#utility.yul\":7126:7139   */\n      lt\n        /* \"#utility.yul\":7107:7457   */\n      iszero\n      tag_343\n      jumpi\n        /* \"#utility.yul\":7208:7214   */\n      dup2\n        /* \"#utility.yul\":7202:7215   */\n      mload\n        /* \"#utility.yul\":7235:7342   */\n      tag_344\n        /* \"#utility.yul\":7338:7341   */\n      dup9\n        /* \"#utility.yul\":7323:7336   */\n      dup3\n        /* \"#utility.yul\":7235:7342   */\n      tag_231\n      jump\t// in\n    tag_344:\n        /* \"#utility.yul\":7228:7342   */\n      swap8\n      pop\n        /* \"#utility.yul\":7365:7447   */\n      tag_345\n        /* \"#utility.yul\":7440:7446   */\n      dup4\n        /* \"#utility.yul\":7365:7447   */\n      tag_232\n      jump\t// in\n    tag_345:\n        /* \"#utility.yul\":7355:7447   */\n      swap3\n      pop\n        /* \"#utility.yul\":7167:7457   */\n      pop\n        /* \"#utility.yul\":7154:7155   */\n      0x01\n        /* \"#utility.yul\":7151:7152   */\n      dup2\n        /* \"#utility.yul\":7147:7156   */\n      add\n        /* \"#utility.yul\":7142:7156   */\n      swap1\n      pop\n        /* \"#utility.yul\":7107:7457   */\n      jump(tag_341)\n    tag_343:\n        /* \"#utility.yul\":7111:7125   */\n      pop\n        /* \"#utility.yul\":7473:7476   */\n      dup6\n        /* \"#utility.yul\":7466:7476   */\n      swap4\n      pop\n        /* \"#utility.yul\":6742:7482   */\n      pop\n      pop\n      pop\n        /* \"#utility.yul\":6574:7482   */\n      swap3\n      swap2\n      pop\n      pop\n      jump\t// out\n        /* \"#utility.yul\":7488:7949   */\n    tag_38:\n        /* \"#utility.yul\":7675:7679   */\n      0x00\n        /* \"#utility.yul\":7713:7715   */\n      0x20\n        /* \"#utility.yul\":7702:7711   */\n      dup3\n        /* \"#utility.yul\":7698:7716   */\n      add\n        /* \"#utility.yul\":7690:7716   */\n      swap1\n      pop\n        /* \"#utility.yul\":7762:7771   */\n      dup2\n        /* \"#utility.yul\":7756:7760   */\n      dup2\n        /* \"#utility.yul\":7752:7772   */\n      sub\n        /* \"#utility.yul\":7748:7749   */\n      0x00\n        /* \"#utility.yul\":7737:7746   */\n      dup4\n        /* \"#utility.yul\":7733:7750   */\n      add\n        /* \"#utility.yul\":7726:7773   */\n      mstore\n        /* \"#utility.yul\":7790:7942   */\n      tag_347\n        /* \"#utility.yul\":7937:7941   */\n      dup2\n        /* \"#utility.yul\":7928:7934   */\n      dup5\n        /* \"#utility.yul\":7790:7942   */\n      tag_233\n      jump\t// in\n    tag_347:\n        /* \"#utility.yul\":7782:7942   */\n      swap1\n      pop\n        /* \"#utility.yul\":7488:7949   */\n      swap3\n      swap2\n      pop\n      pop\n      jump\t// out\n        /* \"#utility.yul\":7955:8015   */\n    tag_234:\n        /* \"#utility.yul\":7983:7986   */\n      0x00\n        /* \"#utility.yul\":8004:8009   */\n      dup2\n        /* \"#utility.yul\":7997:8009   */\n      swap1\n      pop\n        /* \"#utility.yul\":7955:8015   */\n      swap2\n      swap1\n      pop\n      jump\t// out\n        /* \"#utility.yul\":8021:8163   */\n    tag_235:\n        /* \"#utility.yul\":8071:8080   */\n      0x00\n        /* \"#utility.yul\":8104:8157   */\n      tag_350\n        /* \"#utility.yul\":8122:8156   */\n      tag_351\n        /* \"#utility.yul\":8131:8155   */\n      tag_352\n        /* \"#utility.yul\":8149:8154   */\n      dup5\n        /* \"#utility.yul\":8131:8155   */\n      tag_210\n      jump\t// in\n    tag_352:\n        /* \"#utility.yul\":8122:8156   */\n      tag_234\n      jump\t// in\n    tag_351:\n        /* \"#utility.yul\":8104:8157   */\n      tag_210\n      jump\t// in\n    tag_350:\n        /* \"#utility.yul\":8091:8157   */\n      swap1\n      pop\n        /* \"#utility.yul\":8021:8163   */\n      swap2\n      swap1\n      pop\n      jump\t// out\n        /* \"#utility.yul\":8169:8295   */\n    tag_236:\n        /* \"#utility.yul\":8219:8228   */\n      0x00\n        /* \"#utility.yul\":8252:8289   */\n      tag_354\n        /* \"#utility.yul\":8283:8288   */\n      dup3\n        /* \"#utility.yul\":8252:8289   */\n      tag_235\n      jump\t// in\n    tag_354:\n        /* \"#utility.yul\":8239:8289   */\n      swap1\n      pop\n        /* \"#utility.yul\":8169:8295   */\n      swap2\n      swap1\n      pop\n      jump\t// out\n        /* \"#utility.yul\":8301:8440   */\n    tag_237:\n        /* \"#utility.yul\":8364:8373   */\n      0x00\n        /* \"#utility.yul\":8397:8434   */\n      tag_356\n        /* \"#utility.yul\":8428:8433   */\n      dup3\n        /* \"#utility.yul\":8397:8434   */\n      tag_236\n      jump\t// in\n    tag_356:\n        /* \"#utility.yul\":8384:8434   */\n      swap1\n      pop\n        /* \"#utility.yul\":8301:8440   */\n      swap2\n      swap1\n      pop\n      jump\t// out\n        /* \"#utility.yul\":8446:8603   */\n    tag_238:\n        /* \"#utility.yul\":8546:8596   */\n      tag_358\n        /* \"#utility.yul\":8590:8595   */\n      dup2\n        /* \"#utility.yul\":8546:8596   */\n      tag_237\n      jump\t// in\n    tag_358:\n        /* \"#utility.yul\":8541:8544   */\n      dup3\n        /* \"#utility.yul\":8534:8597   */\n      mstore\n        /* \"#utility.yul\":8446:8603   */\n      pop\n      pop\n      jump\t// out\n        /* \"#utility.yul\":8609:8857   */\n    tag_42:\n        /* \"#utility.yul\":8715:8719   */\n      0x00\n        /* \"#utility.yul\":8753:8755   */\n      0x20\n        /* \"#utility.yul\":8742:8751   */\n      dup3\n        /* \"#utility.yul\":8738:8756   */\n      add\n        /* \"#utility.yul\":8730:8756   */\n      swap1\n      pop\n        /* \"#utility.yul\":8766:8850   */\n      tag_360\n        /* \"#utility.yul\":8847:8848   */\n      0x00\n        /* \"#utility.yul\":8836:8845   */\n      dup4\n        /* \"#utility.yul\":8832:8849   */\n      add\n        /* \"#utility.yul\":8823:8829   */\n      dup5\n        /* \"#utility.yul\":8766:8850   */\n      tag_238\n      jump\t// in\n    tag_360:\n        /* \"#utility.yul\":8609:8857   */\n      swap3\n      swap2\n      pop\n      pop\n      jump\t// out\n        /* \"#utility.yul\":8863:9085   */\n    tag_46:\n        /* \"#utility.yul\":8956:8960   */\n      0x00\n        /* \"#utility.yul\":8994:8996   */\n      0x20\n        /* \"#utility.yul\":8983:8992   */\n      dup3\n        /* \"#utility.yul\":8979:8997   */\n      add\n        /* \"#utility.yul\":8971:8997   */\n      swap1\n      pop\n        /* \"#utility.yul\":9007:9078   */\n      tag_362\n        /* \"#utility.yul\":9075:9076   */\n      0x00\n        /* \"#utility.yul\":9064:9073   */\n      dup4\n        /* \"#utility.yul\":9060:9077   */\n      add\n        /* \"#utility.yul\":9051:9057   */\n      dup5\n        /* \"#utility.yul\":9007:9078   */\n      tag_224\n      jump\t// in\n    tag_362:\n        /* \"#utility.yul\":8863:9085   */\n      swap3\n      swap2\n      pop\n      pop\n      jump\t// out\n        /* \"#utility.yul\":9091:9565   */\n    tag_53:\n        /* \"#utility.yul\":9159:9165   */\n      0x00\n        /* \"#utility.yul\":9167:9173   */\n      dup1\n        /* \"#utility.yul\":9216:9218   */\n      0x40\n        /* \"#utility.yul\":9204:9213   */\n      dup4\n        /* \"#utility.yul\":9195:9202   */\n      dup6\n        /* \"#utility.yul\":9191:9214   */\n      sub\n        /* \"#utility.yul\":9187:9219   */\n      slt\n        /* \"#utility.yul\":9184:9303   */\n      iszero\n      tag_364\n      jumpi\n        /* \"#utility.yul\":9222:9301   */\n      tag_365\n      tag_208\n      jump\t// in\n    tag_365:\n        /* \"#utility.yul\":9184:9303   */\n    tag_364:\n        /* \"#utility.yul\":9342:9343   */\n      0x00\n        /* \"#utility.yul\":9367:9420   */\n      tag_366\n        /* \"#utility.yul\":9412:9419   */\n      dup6\n        /* \"#utility.yul\":9403:9409   */\n      dup3\n        /* \"#utility.yul\":9392:9401   */\n      dup7\n        /* \"#utility.yul\":9388:9410   */\n      add\n        /* \"#utility.yul\":9367:9420   */\n      tag_216\n      jump\t// in\n    tag_366:\n        /* \"#utility.yul\":9357:9420   */\n      swap3\n      pop\n        /* \"#utility.yul\":9313:9430   */\n      pop\n        /* \"#utility.yul\":9469:9471   */\n      0x20\n        /* \"#utility.yul\":9495:9548   */\n      tag_367\n        /* \"#utility.yul\":9540:9547   */\n      dup6\n        /* \"#utility.yul\":9531:9537   */\n      dup3\n        /* \"#utility.yul\":9520:9529   */\n      dup7\n        /* \"#utility.yul\":9516:9538   */\n      add\n        /* \"#utility.yul\":9495:9548   */\n      tag_216\n      jump\t// in\n    tag_367:\n        /* \"#utility.yul\":9485:9548   */\n      swap2\n      pop\n        /* \"#utility.yul\":9440:9558   */\n      pop\n        /* \"#utility.yul\":9091:9565   */\n      swap3\n      pop\n      swap3\n      swap1\n      pop\n      jump\t// out\n        /* \"#utility.yul\":9571:9688   */\n    tag_239:\n        /* \"#utility.yul\":9680:9681   */\n      0x00\n        /* \"#utility.yul\":9677:9678   */\n      dup1\n        /* \"#utility.yul\":9670:9682   */\n      revert\n        /* \"#utility.yul\":9694:9796   */\n    tag_240:\n        /* \"#utility.yul\":9735:9741   */\n      0x00\n        /* \"#utility.yul\":9786:9788   */\n      0x1f\n        /* \"#utility.yul\":9782:9789   */\n      not\n        /* \"#utility.yul\":9777:9779   */\n      0x1f\n        /* \"#utility.yul\":9770:9775   */\n      dup4\n        /* \"#utility.yul\":9766:9780   */\n      add\n        /* \"#utility.yul\":9762:9790   */\n      and\n        /* \"#utility.yul\":9752:9790   */\n      swap1\n      pop\n        /* \"#utility.yul\":9694:9796   */\n      swap2\n      swap1\n      pop\n      jump\t// out\n        /* \"#utility.yul\":9802:9982   */\n    tag_106:\n        /* \"#utility.yul\":9850:9927   */\n      0x4e487b7100000000000000000000000000000000000000000000000000000000\n        /* \"#utility.yul\":9847:9848   */\n      0x00\n        /* \"#utility.yul\":9840:9928   */\n      mstore\n        /* \"#utility.yul\":9947:9951   */\n      0x41\n        /* \"#utility.yul\":9944:9945   */\n      0x04\n        /* \"#utility.yul\":9937:9952   */\n      mstore\n        /* \"#utility.yul\":9971:9975   */\n      0x24\n        /* \"#utility.yul\":9968:9969   */\n      0x00\n        /* \"#utility.yul\":9961:9976   */\n      revert\n        /* \"#utility.yul\":9988:10269   */\n    tag_241:\n        /* \"#utility.yul\":10071:10098   */\n      tag_372\n        /* \"#utility.yul\":10093:10097   */\n      dup3\n        /* \"#utility.yul\":10071:10098   */\n      tag_240\n      jump\t// in\n    tag_372:\n        /* \"#utility.yul\":10063:10069   */\n      dup2\n        /* \"#utility.yul\":10059:10099   */\n      add\n        /* \"#utility.yul\":10201:10207   */\n      dup2\n        /* \"#utility.yul\":10189:10199   */\n      dup2\n        /* \"#utility.yul\":10186:10208   */\n      lt\n        /* \"#utility.yul\":10165:10183   */\n      0xffffffffffffffff\n        /* \"#utility.yul\":10153:10163   */\n      dup3\n        /* \"#utility.yul\":10150:10184   */\n      gt\n        /* \"#utility.yul\":10147:10209   */\n      or\n        /* \"#utility.yul\":10144:10232   */\n      iszero\n      tag_373\n      jumpi\n        /* \"#utility.yul\":10212:10230   */\n      tag_374\n      tag_106\n      jump\t// in\n    tag_374:\n        /* \"#utility.yul\":10144:10232   */\n    tag_373:\n        /* \"#utility.yul\":10252:10262   */\n      dup1\n        /* \"#utility.yul\":10248:10250   */\n      0x40\n        /* \"#utility.yul\":10241:10263   */\n      mstore\n        /* \"#utility.yul\":10031:10269   */\n      pop\n        /* \"#utility.yul\":9988:10269   */\n      pop\n      pop\n      jump\t// out\n        /* \"#utility.yul\":10275:10404   */\n    tag_242:\n        /* \"#utility.yul\":10309:10315   */\n      0x00\n        /* \"#utility.yul\":10336:10356   */\n      tag_376\n      tag_207\n      jump\t// in\n    tag_376:\n        /* \"#utility.yul\":10326:10356   */\n      swap1\n      pop\n        /* \"#utility.yul\":10365:10398   */\n      tag_377\n        /* \"#utility.yul\":10393:10397   */\n      dup3\n        /* \"#utility.yul\":10385:10391   */\n      dup3\n        /* \"#utility.yul\":10365:10398   */\n      tag_241\n      jump\t// in\n    tag_377:\n        /* \"#utility.yul\":10275:10404   */\n      swap2\n      swap1\n      pop\n      jump\t// out\n        /* \"#utility.yul\":10410:10717   */\n    tag_243:\n        /* \"#utility.yul\":10471:10475   */\n      0x00\n        /* \"#utility.yul\":10561:10579   */\n      0xffffffffffffffff\n        /* \"#utility.yul\":10553:10559   */\n      dup3\n        /* \"#utility.yul\":10550:10580   */\n      gt\n        /* \"#utility.yul\":10547:10603   */\n      iszero\n      tag_379\n      jumpi\n        /* \"#utility.yul\":10583:10601   */\n      tag_380\n      tag_106\n      jump\t// in\n    tag_380:\n        /* \"#utility.yul\":10547:10603   */\n    tag_379:\n        /* \"#utility.yul\":10621:10650   */\n      tag_381\n        /* \"#utility.yul\":10643:10649   */\n      dup3\n        /* \"#utility.yul\":10621:10650   */\n      tag_240\n      jump\t// in\n    tag_381:\n        /* \"#utility.yul\":10613:10650   */\n      swap1\n      pop\n        /* \"#utility.yul\":10705:10709   */\n      0x20\n        /* \"#utility.yul\":10699:10703   */\n      dup2\n        /* \"#utility.yul\":10695:10710   */\n      add\n        /* \"#utility.yul\":10687:10710   */\n      swap1\n      pop\n        /* \"#utility.yul\":10410:10717   */\n      swap2\n      swap1\n      pop\n      jump\t// out\n        /* \"#utility.yul\":10723:10871   */\n    tag_244:\n        /* \"#utility.yul\":10821:10827   */\n      dup3\n        /* \"#utility.yul\":10816:10819   */\n      dup2\n        /* \"#utility.yul\":10811:10814   */\n      dup4\n        /* \"#utility.yul\":10798:10828   */\n      calldatacopy\n        /* \"#utility.yul\":10862:10863   */\n      0x00\n        /* \"#utility.yul\":10853:10859   */\n      dup4\n        /* \"#utility.yul\":10848:10851   */\n      dup4\n        /* \"#utility.yul\":10844:10860   */\n      add\n        /* \"#utility.yul\":10837:10864   */\n      mstore\n        /* \"#utility.yul\":10723:10871   */\n      pop\n      pop\n      pop\n      jump\t// out\n        /* \"#utility.yul\":10877:11300   */\n    tag_245:\n        /* \"#utility.yul\":10954:10959   */\n      0x00\n        /* \"#utility.yul\":10979:11044   */\n      tag_384\n        /* \"#utility.yul\":10995:11043   */\n      tag_385\n        /* \"#utility.yul\":11036:11042   */\n      dup5\n        /* \"#utility.yul\":10995:11043   */\n      tag_243\n      jump\t// in\n    tag_385:\n        /* \"#utility.yul\":10979:11044   */\n      tag_242\n      jump\t// in\n    tag_384:\n        /* \"#utility.yul\":10970:11044   */\n      swap1\n      pop\n        /* \"#utility.yul\":11067:11073   */\n      dup3\n        /* \"#utility.yul\":11060:11065   */\n      dup2\n        /* \"#utility.yul\":11053:11074   */\n      mstore\n        /* \"#utility.yul\":11105:11109   */\n      0x20\n        /* \"#utility.yul\":11098:11103   */\n      dup2\n        /* \"#utility.yul\":11094:11110   */\n      add\n        /* \"#utility.yul\":11143:11146   */\n      dup5\n        /* \"#utility.yul\":11134:11140   */\n      dup5\n        /* \"#utility.yul\":11129:11132   */\n      dup5\n        /* \"#utility.yul\":11125:11141   */\n      add\n        /* \"#utility.yul\":11122:11147   */\n      gt\n        /* \"#utility.yul\":11119:11231   */\n      iszero\n      tag_386\n      jumpi\n        /* \"#utility.yul\":11150:11229   */\n      tag_387\n      tag_239\n      jump\t// in\n    tag_387:\n        /* \"#utility.yul\":11119:11231   */\n    tag_386:\n        /* \"#utility.yul\":11240:11294   */\n      tag_388\n        /* \"#utility.yul\":11287:11293   */\n      dup5\n        /* \"#utility.yul\":11282:11285   */\n      dup3\n        /* \"#utility.yul\":11277:11280   */\n      dup6\n        /* \"#utility.yul\":11240:11294   */\n      tag_244\n      jump\t// in\n    tag_388:\n        /* \"#utility.yul\":10960:11300   */\n      pop\n        /* \"#utility.yul\":10877:11300   */\n      swap4\n      swap3\n      pop\n      pop\n      pop\n      jump\t// out\n        /* \"#utility.yul\":11319:11657   */\n    tag_246:\n        /* \"#utility.yul\":11374:11379   */\n      0x00\n        /* \"#utility.yul\":11423:11426   */\n      dup3\n        /* \"#utility.yul\":11416:11420   */\n      0x1f\n        /* \"#utility.yul\":11408:11414   */\n      dup4\n        /* \"#utility.yul\":11404:11421   */\n      add\n        /* \"#utility.yul\":11400:11427   */\n      slt\n        /* \"#utility.yul\":11390:11512   */\n      tag_390\n      jumpi\n        /* \"#utility.yul\":11431:11510   */\n      tag_391\n      tag_217\n      jump\t// in\n    tag_391:\n        /* \"#utility.yul\":11390:11512   */\n    tag_390:\n        /* \"#utility.yul\":11548:11554   */\n      dup2\n        /* \"#utility.yul\":11535:11555   */\n      calldataload\n        /* \"#utility.yul\":11573:11651   */\n      tag_392\n        /* \"#utility.yul\":11647:11650   */\n      dup5\n        /* \"#utility.yul\":11639:11645   */\n      dup3\n        /* \"#utility.yul\":11632:11636   */\n      0x20\n        /* \"#utility.yul\":11624:11630   */\n      dup7\n        /* \"#utility.yul\":11620:11637   */\n      add\n        /* \"#utility.yul\":11573:11651   */\n      tag_245\n      jump\t// in\n    tag_392:\n        /* \"#utility.yul\":11564:11651   */\n      swap2\n      pop\n        /* \"#utility.yul\":11380:11657   */\n      pop\n        /* \"#utility.yul\":11319:11657   */\n      swap3\n      swap2\n      pop\n      pop\n      jump\t// out\n        /* \"#utility.yul\":11663:12315   */\n    tag_57:\n        /* \"#utility.yul\":11740:11746   */\n      0x00\n        /* \"#utility.yul\":11748:11754   */\n      dup1\n        /* \"#utility.yul\":11797:11799   */\n      0x40\n        /* \"#utility.yul\":11785:11794   */\n      dup4\n        /* \"#utility.yul\":11776:11783   */\n      dup6\n        /* \"#utility.yul\":11772:11795   */\n      sub\n        /* \"#utility.yul\":11768:11800   */\n      slt\n        /* \"#utility.yul\":11765:11884   */\n      iszero\n      tag_394\n      jumpi\n        /* \"#utility.yul\":11803:11882   */\n      tag_395\n      tag_208\n      jump\t// in\n    tag_395:\n        /* \"#utility.yul\":11765:11884   */\n    tag_394:\n        /* \"#utility.yul\":11951:11952   */\n      0x00\n        /* \"#utility.yul\":11940:11949   */\n      dup4\n        /* \"#utility.yul\":11936:11953   */\n      add\n        /* \"#utility.yul\":11923:11954   */\n      calldataload\n        /* \"#utility.yul\":11981:11999   */\n      0xffffffffffffffff\n        /* \"#utility.yul\":11973:11979   */\n      dup2\n        /* \"#utility.yul\":11970:12000   */\n      gt\n        /* \"#utility.yul\":11967:12084   */\n      iszero\n      tag_396\n      jumpi\n        /* \"#utility.yul\":12003:12082   */\n      tag_397\n      tag_209\n      jump\t// in\n    tag_397:\n        /* \"#utility.yul\":11967:12084   */\n    tag_396:\n        /* \"#utility.yul\":12108:12170   */\n      tag_398\n        /* \"#utility.yul\":12162:12169   */\n      dup6\n        /* \"#utility.yul\":12153:12159   */\n      dup3\n        /* \"#utility.yul\":12142:12151   */\n      dup7\n        /* \"#utility.yul\":12138:12160   */\n      add\n        /* \"#utility.yul\":12108:12170   */\n      tag_246\n      jump\t// in\n    tag_398:\n        /* \"#utility.yul\":12098:12170   */\n      swap3\n      pop\n        /* \"#utility.yul\":11894:12180   */\n      pop\n        /* \"#utility.yul\":12219:12221   */\n      0x20\n        /* \"#utility.yul\":12245:12298   */\n      tag_399\n        /* \"#utility.yul\":12290:12297   */\n      dup6\n        /* \"#utility.yul\":12281:12287   */\n      dup3\n        /* \"#utility.yul\":12270:12279   */\n      dup7\n        /* \"#utility.yul\":12266:12288   */\n      add\n        /* \"#utility.yul\":12245:12298   */\n      tag_216\n      jump\t// in\n    tag_399:\n        /* \"#utility.yul\":12235:12298   */\n      swap2\n      pop\n        /* \"#utility.yul\":12190:12308   */\n      pop\n        /* \"#utility.yul\":11663:12315   */\n      swap3\n      pop\n      swap3\n      swap1\n      pop\n      jump\t// out\n        /* \"#utility.yul\":12321:12462   */\n    tag_247:\n        /* \"#utility.yul\":12386:12395   */\n      0x00\n        /* \"#utility.yul\":12419:12456   */\n      tag_401\n        /* \"#utility.yul\":12450:12455   */\n      dup3\n        /* \"#utility.yul\":12419:12456   */\n      tag_236\n      jump\t// in\n    tag_401:\n        /* \"#utility.yul\":12406:12456   */\n      swap1\n      pop\n        /* \"#utility.yul\":12321:12462   */\n      swap2\n      swap1\n      pop\n      jump\t// out\n        /* \"#utility.yul\":12468:12629   */\n    tag_248:\n        /* \"#utility.yul\":12570:12622   */\n      tag_403\n        /* \"#utility.yul\":12616:12621   */\n      dup2\n        /* \"#utility.yul\":12570:12622   */\n      tag_247\n      jump\t// in\n    tag_403:\n        /* \"#utility.yul\":12565:12568   */\n      dup3\n        /* \"#utility.yul\":12558:12623   */\n      mstore\n        /* \"#utility.yul\":12468:12629   */\n      pop\n      pop\n      jump\t// out\n        /* \"#utility.yul\":12635:12887   */\n    tag_63:\n        /* \"#utility.yul\":12743:12747   */\n      0x00\n        /* \"#utility.yul\":12781:12783   */\n      0x20\n        /* \"#utility.yul\":12770:12779   */\n      dup3\n        /* \"#utility.yul\":12766:12784   */\n      add\n        /* \"#utility.yul\":12758:12784   */\n      swap1\n      pop\n        /* \"#utility.yul\":12794:12880   */\n      tag_405\n        /* \"#utility.yul\":12877:12878   */\n      0x00\n        /* \"#utility.yul\":12866:12875   */\n      dup4\n        /* \"#utility.yul\":12862:12879   */\n      add\n        /* \"#utility.yul\":12853:12859   */\n      dup5\n        /* \"#utility.yul\":12794:12880   */\n      tag_248\n      jump\t// in\n    tag_405:\n        /* \"#utility.yul\":12635:12887   */\n      swap3\n      swap2\n      pop\n      pop\n      jump\t// out\n        /* \"#utility.yul\":12893:12983   */\n    tag_249:\n        /* \"#utility.yul\":12927:12934   */\n      0x00\n        /* \"#utility.yul\":12970:12975   */\n      dup2\n        /* \"#utility.yul\":12963:12976   */\n      iszero\n        /* \"#utility.yul\":12956:12977   */\n      iszero\n        /* \"#utility.yul\":12945:12977   */\n      swap1\n      pop\n        /* \"#utility.yul\":12893:12983   */\n      swap2\n      swap1\n      pop\n      jump\t// out\n        /* \"#utility.yul\":12989:13098   */\n    tag_250:\n        /* \"#utility.yul\":13070:13091   */\n      tag_408\n        /* \"#utility.yul\":13085:13090   */\n      dup2\n        /* \"#utility.yul\":13070:13091   */\n      tag_249\n      jump\t// in\n    tag_408:\n        /* \"#utility.yul\":13065:13068   */\n      dup3\n        /* \"#utility.yul\":13058:13092   */\n      mstore\n        /* \"#utility.yul\":12989:13098   */\n      pop\n      pop\n      jump\t// out\n        /* \"#utility.yul\":13104:13314   */\n    tag_78:\n        /* \"#utility.yul\":13191:13195   */\n      0x00\n        /* \"#utility.yul\":13229:13231   */\n      0x20\n        /* \"#utility.yul\":13218:13227   */\n      dup3\n        /* \"#utility.yul\":13214:13232   */\n      add\n        /* \"#utility.yul\":13206:13232   */\n      swap1\n      pop\n        /* \"#utility.yul\":13242:13307   */\n      tag_410\n        /* \"#utility.yul\":13304:13305   */\n      0x00\n        /* \"#utility.yul\":13293:13302   */\n      dup4\n        /* \"#utility.yul\":13289:13306   */\n      add\n        /* \"#utility.yul\":13280:13286   */\n      dup5\n        /* \"#utility.yul\":13242:13307   */\n      tag_250\n      jump\t// in\n    tag_410:\n        /* \"#utility.yul\":13104:13314   */\n      swap3\n      swap2\n      pop\n      pop\n      jump\t// out\n        /* \"#utility.yul\":13320:13489   */\n    tag_251:\n        /* \"#utility.yul\":13404:13415   */\n      0x00\n        /* \"#utility.yul\":13438:13444   */\n      dup3\n        /* \"#utility.yul\":13433:13436   */\n      dup3\n        /* \"#utility.yul\":13426:13445   */\n      mstore\n        /* \"#utility.yul\":13478:13482   */\n      0x20\n        /* \"#utility.yul\":13473:13476   */\n      dup3\n        /* \"#utility.yul\":13469:13483   */\n      add\n        /* \"#utility.yul\":13454:13483   */\n      swap1\n      pop\n        /* \"#utility.yul\":13320:13489   */\n      swap3\n      swap2\n      pop\n      pop\n      jump\t// out\n        /* \"#utility.yul\":13495:13676   */\n    tag_252:\n        /* \"#utility.yul\":13635:13668   */\n      0x4d61726b65743a2053656c6c6572206d757374206265206f70657261746f7200\n        /* \"#utility.yul\":13631:13632   */\n      0x00\n        /* \"#utility.yul\":13623:13629   */\n      dup3\n        /* \"#utility.yul\":13619:13633   */\n      add\n        /* \"#utility.yul\":13612:13669   */\n      mstore\n        /* \"#utility.yul\":13495:13676   */\n      pop\n      jump\t// out\n        /* \"#utility.yul\":13682:14048   */\n    tag_253:\n        /* \"#utility.yul\":13824:13827   */\n      0x00\n        /* \"#utility.yul\":13845:13912   */\n      tag_414\n        /* \"#utility.yul\":13909:13911   */\n      0x1f\n        /* \"#utility.yul\":13904:13907   */\n      dup4\n        /* \"#utility.yul\":13845:13912   */\n      tag_251\n      jump\t// in\n    tag_414:\n        /* \"#utility.yul\":13838:13912   */\n      swap2\n      pop\n        /* \"#utility.yul\":13921:14014   */\n      tag_415\n        /* \"#utility.yul\":14010:14013   */\n      dup3\n        /* \"#utility.yul\":13921:14014   */\n      tag_252\n      jump\t// in\n    tag_415:\n        /* \"#utility.yul\":14039:14041   */\n      0x20\n        /* \"#utility.yul\":14034:14037   */\n      dup3\n        /* \"#utility.yul\":14030:14042   */\n      add\n        /* \"#utility.yul\":14023:14042   */\n      swap1\n      pop\n        /* \"#utility.yul\":13682:14048   */\n      swap2\n      swap1\n      pop\n      jump\t// out\n        /* \"#utility.yul\":14054:14473   */\n    tag_82:\n        /* \"#utility.yul\":14220:14224   */\n      0x00\n        /* \"#utility.yul\":14258:14260   */\n      0x20\n        /* \"#utility.yul\":14247:14256   */\n      dup3\n        /* \"#utility.yul\":14243:14261   */\n      add\n        /* \"#utility.yul\":14235:14261   */\n      swap1\n      pop\n        /* \"#utility.yul\":14307:14316   */\n      dup2\n        /* \"#utility.yul\":14301:14305   */\n      dup2\n        /* \"#utility.yul\":14297:14317   */\n      sub\n        /* \"#utility.yul\":14293:14294   */\n      0x00\n        /* \"#utility.yul\":14282:14291   */\n      dup4\n        /* \"#utility.yul\":14278:14295   */\n      add\n        /* \"#utility.yul\":14271:14318   */\n      mstore\n        /* \"#utility.yul\":14335:14466   */\n      tag_417\n        /* \"#utility.yul\":14461:14465   */\n      dup2\n        /* \"#utility.yul\":14335:14466   */\n      tag_253\n      jump\t// in\n    tag_417:\n        /* \"#utility.yul\":14327:14466   */\n      swap1\n      pop\n        /* \"#utility.yul\":14054:14473   */\n      swap2\n      swap1\n      pop\n      jump\t// out\n        /* \"#utility.yul\":14479:14659   */\n    tag_254:\n        /* \"#utility.yul\":14619:14651   */\n      0x4d61726b65743a20546f6b656e204944206973206e6f74206c69737465640000\n        /* \"#utility.yul\":14615:14616   */\n      0x00\n        /* \"#utility.yul\":14607:14613   */\n      dup3\n        /* \"#utility.yul\":14603:14617   */\n      add\n        /* \"#utility.yul\":14596:14652   */\n      mstore\n        /* \"#utility.yul\":14479:14659   */\n      pop\n      jump\t// out\n        /* \"#utility.yul\":14665:15031   */\n    tag_255:\n        /* \"#utility.yul\":14807:14810   */\n      0x00\n        /* \"#utility.yul\":14828:14895   */\n      tag_420\n        /* \"#utility.yul\":14892:14894   */\n      0x1e\n        /* \"#utility.yul\":14887:14890   */\n      dup4\n        /* \"#utility.yul\":14828:14895   */\n      tag_251\n      jump\t// in\n    tag_420:\n        /* \"#utility.yul\":14821:14895   */\n      swap2\n      pop\n        /* \"#utility.yul\":14904:14997   */\n      tag_421\n        /* \"#utility.yul\":14993:14996   */\n      dup3\n        /* \"#utility.yul\":14904:14997   */\n      tag_254\n      jump\t// in\n    tag_421:\n        /* \"#utility.yul\":15022:15024   */\n      0x20\n        /* \"#utility.yul\":15017:15020   */\n      dup3\n        /* \"#utility.yul\":15013:15025   */\n      add\n        /* \"#utility.yul\":15006:15025   */\n      swap1\n      pop\n        /* \"#utility.yul\":14665:15031   */\n      swap2\n      swap1\n      pop\n      jump\t// out\n        /* \"#utility.yul\":15037:15456   */\n    tag_90:\n        /* \"#utility.yul\":15203:15207   */\n      0x00\n        /* \"#utility.yul\":15241:15243   */\n      0x20\n        /* \"#utility.yul\":15230:15239   */\n      dup3\n        /* \"#utility.yul\":15226:15244   */\n      add\n        /* \"#utility.yul\":15218:15244   */\n      swap1\n      pop\n        /* \"#utility.yul\":15290:15299   */\n      dup2\n        /* \"#utility.yul\":15284:15288   */\n      dup2\n        /* \"#utility.yul\":15280:15300   */\n      sub\n        /* \"#utility.yul\":15276:15277   */\n      0x00\n        /* \"#utility.yul\":15265:15274   */\n      dup4\n        /* \"#utility.yul\":15261:15278   */\n      add\n        /* \"#utility.yul\":15254:15301   */\n      mstore\n        /* \"#utility.yul\":15318:15449   */\n      tag_423\n        /* \"#utility.yul\":15444:15448   */\n      dup2\n        /* \"#utility.yul\":15318:15449   */\n      tag_255\n      jump\t// in\n    tag_423:\n        /* \"#utility.yul\":15310:15449   */\n      swap1\n      pop\n        /* \"#utility.yul\":15037:15456   */\n      swap2\n      swap1\n      pop\n      jump\t// out\n        /* \"#utility.yul\":15462:15640   */\n    tag_256:\n        /* \"#utility.yul\":15602:15632   */\n      0x4d61726b65743a2053656e646572206973206e6f742073656c6c657200000000\n        /* \"#utility.yul\":15598:15599   */\n      0x00\n        /* \"#utility.yul\":15590:15596   */\n      dup3\n        /* \"#utility.yul\":15586:15600   */\n      add\n        /* \"#utility.yul\":15579:15633   */\n      mstore\n        /* \"#utility.yul\":15462:15640   */\n      pop\n      jump\t// out\n        /* \"#utility.yul\":15646:16012   */\n    tag_257:\n        /* \"#utility.yul\":15788:15791   */\n      0x00\n        /* \"#utility.yul\":15809:15876   */\n      tag_426\n        /* \"#utility.yul\":15873:15875   */\n      0x1c\n        /* \"#utility.yul\":15868:15871   */\n      dup4\n        /* \"#utility.yul\":15809:15876   */\n      tag_251\n      jump\t// in\n    tag_426:\n        /* \"#utility.yul\":15802:15876   */\n      swap2\n      pop\n        /* \"#utility.yul\":15885:15978   */\n      tag_427\n        /* \"#utility.yul\":15974:15977   */\n      dup3\n        /* \"#utility.yul\":15885:15978   */\n      tag_256\n      jump\t// in\n    tag_427:\n        /* \"#utility.yul\":16003:16005   */\n      0x20\n        /* \"#utility.yul\":15998:16001   */\n      dup3\n        /* \"#utility.yul\":15994:16006   */\n      add\n        /* \"#utility.yul\":15987:16006   */\n      swap1\n      pop\n        /* \"#utility.yul\":15646:16012   */\n      swap2\n      swap1\n      pop\n      jump\t// out\n        /* \"#utility.yul\":16018:16437   */\n    tag_93:\n        /* \"#utility.yul\":16184:16188   */\n      0x00\n        /* \"#utility.yul\":16222:16224   */\n      0x20\n        /* \"#utility.yul\":16211:16220   */\n      dup3\n        /* \"#utility.yul\":16207:16225   */\n      add\n        /* \"#utility.yul\":16199:16225   */\n      swap1\n      pop\n        /* \"#utility.yul\":16271:16280   */\n      dup2\n        /* \"#utility.yul\":16265:16269   */\n      dup2\n        /* \"#utility.yul\":16261:16281   */\n      sub\n        /* \"#utility.yul\":16257:16258   */\n      0x00\n        /* \"#utility.yul\":16246:16255   */\n      dup4\n        /* \"#utility.yul\":16242:16259   */\n      add\n        /* \"#utility.yul\":16235:16282   */\n      mstore\n        /* \"#utility.yul\":16299:16430   */\n      tag_429\n        /* \"#utility.yul\":16425:16429   */\n      dup2\n        /* \"#utility.yul\":16299:16430   */\n      tag_257\n      jump\t// in\n    tag_429:\n        /* \"#utility.yul\":16291:16430   */\n      swap1\n      pop\n        /* \"#utility.yul\":16018:16437   */\n      swap2\n      swap1\n      pop\n      jump\t// out\n        /* \"#utility.yul\":16443:16885   */\n    tag_95:\n        /* \"#utility.yul\":16592:16596   */\n      0x00\n        /* \"#utility.yul\":16630:16632   */\n      0x60\n        /* \"#utility.yul\":16619:16628   */\n      dup3\n        /* \"#utility.yul\":16615:16633   */\n      add\n        /* \"#utility.yul\":16607:16633   */\n      swap1\n      pop\n        /* \"#utility.yul\":16643:16714   */\n      tag_431\n        /* \"#utility.yul\":16711:16712   */\n      0x00\n        /* \"#utility.yul\":16700:16709   */\n      dup4\n        /* \"#utility.yul\":16696:16713   */\n      add\n        /* \"#utility.yul\":16687:16693   */\n      dup7\n        /* \"#utility.yul\":16643:16714   */\n      tag_223\n      jump\t// in\n    tag_431:\n        /* \"#utility.yul\":16724:16796   */\n      tag_432\n        /* \"#utility.yul\":16792:16794   */\n      0x20\n        /* \"#utility.yul\":16781:16790   */\n      dup4\n        /* \"#utility.yul\":16777:16795   */\n      add\n        /* \"#utility.yul\":16768:16774   */\n      dup6\n        /* \"#utility.yul\":16724:16796   */\n      tag_223\n      jump\t// in\n    tag_432:\n        /* \"#utility.yul\":16806:16878   */\n      tag_433\n        /* \"#utility.yul\":16874:16876   */\n      0x40\n        /* \"#utility.yul\":16863:16872   */\n      dup4\n        /* \"#utility.yul\":16859:16877   */\n      add\n        /* \"#utility.yul\":16850:16856   */\n      dup5\n        /* \"#utility.yul\":16806:16878   */\n      tag_224\n      jump\t// in\n    tag_433:\n        /* \"#utility.yul\":16443:16885   */\n      swap5\n      swap4\n      pop\n      pop\n      pop\n      pop\n      jump\t// out\n        /* \"#utility.yul\":16891:17223   */\n    tag_102:\n        /* \"#utility.yul\":17012:17016   */\n      0x00\n        /* \"#utility.yul\":17050:17052   */\n      0x40\n        /* \"#utility.yul\":17039:17048   */\n      dup3\n        /* \"#utility.yul\":17035:17053   */\n      add\n        /* \"#utility.yul\":17027:17053   */\n      swap1\n      pop\n        /* \"#utility.yul\":17063:17134   */\n      tag_435\n        /* \"#utility.yul\":17131:17132   */\n      0x00\n        /* \"#utility.yul\":17120:17129   */\n      dup4\n        /* \"#utility.yul\":17116:17133   */\n      add\n        /* \"#utility.yul\":17107:17113   */\n      dup6\n        /* \"#utility.yul\":17063:17134   */\n      tag_223\n      jump\t// in\n    tag_435:\n        /* \"#utility.yul\":17144:17216   */\n      tag_436\n        /* \"#utility.yul\":17212:17214   */\n      0x20\n        /* \"#utility.yul\":17201:17210   */\n      dup4\n        /* \"#utility.yul\":17197:17215   */\n      add\n        /* \"#utility.yul\":17188:17194   */\n      dup5\n        /* \"#utility.yul\":17144:17216   */\n      tag_224\n      jump\t// in\n    tag_436:\n        /* \"#utility.yul\":16891:17223   */\n      swap4\n      swap3\n      pop\n      pop\n      pop\n      jump\t// out\n        /* \"#utility.yul\":17229:17409   */\n    tag_116:\n        /* \"#utility.yul\":17277:17354   */\n      0x4e487b7100000000000000000000000000000000000000000000000000000000\n        /* \"#utility.yul\":17274:17275   */\n      0x00\n        /* \"#utility.yul\":17267:17355   */\n      mstore\n        /* \"#utility.yul\":17374:17378   */\n      0x32\n        /* \"#utility.yul\":17371:17372   */\n      0x04\n        /* \"#utility.yul\":17364:17379   */\n      mstore\n        /* \"#utility.yul\":17398:17402   */\n      0x24\n        /* \"#utility.yul\":17395:17396   */\n      0x00\n        /* \"#utility.yul\":17388:17403   */\n      revert\n        /* \"#utility.yul\":17415:17595   */\n    tag_258:\n        /* \"#utility.yul\":17463:17540   */\n      0x4e487b7100000000000000000000000000000000000000000000000000000000\n        /* \"#utility.yul\":17460:17461   */\n      0x00\n        /* \"#utility.yul\":17453:17541   */\n      mstore\n        /* \"#utility.yul\":17560:17564   */\n      0x11\n        /* \"#utility.yul\":17557:17558   */\n      0x04\n        /* \"#utility.yul\":17550:17565   */\n      mstore\n        /* \"#utility.yul\":17584:17588   */\n      0x24\n        /* \"#utility.yul\":17581:17582   */\n      0x00\n        /* \"#utility.yul\":17574:17589   */\n      revert\n        /* \"#utility.yul\":17601:17834   */\n    tag_125:\n        /* \"#utility.yul\":17640:17643   */\n      0x00\n        /* \"#utility.yul\":17663:17687   */\n      tag_440\n        /* \"#utility.yul\":17681:17686   */\n      dup3\n        /* \"#utility.yul\":17663:17687   */\n      tag_214\n      jump\t// in\n    tag_440:\n        /* \"#utility.yul\":17654:17687   */\n      swap2\n      pop\n        /* \"#utility.yul\":17709:17775   */\n      0xffffffffffffffffffffffffffffffffffffffffffffffffffffffffffffffff\n        /* \"#utility.yul\":17702:17707   */\n      dup3\n        /* \"#utility.yul\":17699:17776   */\n      sub\n        /* \"#utility.yul\":17696:17799   */\n      tag_441\n      jumpi\n        /* \"#utility.yul\":17779:17797   */\n      tag_442\n      tag_258\n      jump\t// in\n    tag_442:\n        /* \"#utility.yul\":17696:17799   */\n    tag_441:\n        /* \"#utility.yul\":17826:17827   */\n      0x01\n        /* \"#utility.yul\":17819:17824   */\n      dup3\n        /* \"#utility.yul\":17815:17828   */\n      add\n        /* \"#utility.yul\":17808:17828   */\n      swap1\n      pop\n        /* \"#utility.yul\":17601:17834   */\n      swap2\n      swap1\n      pop\n      jump\t// out\n        /* \"#utility.yul\":17840:18393   */\n    tag_151:\n        /* \"#utility.yul\":18017:18021   */\n      0x00\n        /* \"#utility.yul\":18055:18058   */\n      0x80\n        /* \"#utility.yul\":18044:18053   */\n      dup3\n        /* \"#utility.yul\":18040:18059   */\n      add\n        /* \"#utility.yul\":18032:18059   */\n      swap1\n      pop\n        /* \"#utility.yul\":18069:18140   */\n      tag_444\n        /* \"#utility.yul\":18137:18138   */\n      0x00\n        /* \"#utility.yul\":18126:18135   */\n      dup4\n        /* \"#utility.yul\":18122:18139   */\n      add\n        /* \"#utility.yul\":18113:18119   */\n      dup8\n        /* \"#utility.yul\":18069:18140   */\n      tag_223\n      jump\t// in\n    tag_444:\n        /* \"#utility.yul\":18150:18222   */\n      tag_445\n        /* \"#utility.yul\":18218:18220   */\n      0x20\n        /* \"#utility.yul\":18207:18216   */\n      dup4\n        /* \"#utility.yul\":18203:18221   */\n      add\n        /* \"#utility.yul\":18194:18200   */\n      dup7\n        /* \"#utility.yul\":18150:18222   */\n      tag_224\n      jump\t// in\n    tag_445:\n        /* \"#utility.yul\":18232:18304   */\n      tag_446\n        /* \"#utility.yul\":18300:18302   */\n      0x40\n        /* \"#utility.yul\":18289:18298   */\n      dup4\n        /* \"#utility.yul\":18285:18303   */\n      add\n        /* \"#utility.yul\":18276:18282   */\n      dup6\n        /* \"#utility.yul\":18232:18304   */\n      tag_224\n      jump\t// in\n    tag_446:\n        /* \"#utility.yul\":18314:18386   */\n      tag_447\n        /* \"#utility.yul\":18382:18384   */\n      0x60\n        /* \"#utility.yul\":18371:18380   */\n      dup4\n        /* \"#utility.yul\":18367:18385   */\n      add\n        /* \"#utility.yul\":18358:18364   */\n      dup5\n        /* \"#utility.yul\":18314:18386   */\n      tag_224\n      jump\t// in\n    tag_447:\n        /* \"#utility.yul\":17840:18393   */\n      swap6\n      swap5\n      pop\n      pop\n      pop\n      pop\n      pop\n      jump\t// out\n        /* \"#utility.yul\":18399:18590   */\n    tag_154:\n        /* \"#utility.yul\":18439:18442   */\n      0x00\n        /* \"#utility.yul\":18458:18478   */\n      tag_449\n        /* \"#utility.yul\":18476:18477   */\n      dup3\n        /* \"#utility.yul\":18458:18478   */\n      tag_214\n      jump\t// in\n    tag_449:\n        /* \"#utility.yul\":18453:18478   */\n      swap2\n      pop\n        /* \"#utility.yul\":18492:18512   */\n      tag_450\n        /* \"#utility.yul\":18510:18511   */\n      dup4\n        /* \"#utility.yul\":18492:18512   */\n      tag_214\n      jump\t// in\n    tag_450:\n        /* \"#utility.yul\":18487:18512   */\n      swap3\n      pop\n        /* \"#utility.yul\":18535:18536   */\n      dup3\n        /* \"#utility.yul\":18532:18533   */\n      dup3\n        /* \"#utility.yul\":18528:18537   */\n      add\n        /* \"#utility.yul\":18521:18537   */\n      swap1\n      pop\n        /* \"#utility.yul\":18556:18559   */\n      dup1\n        /* \"#utility.yul\":18553:18554   */\n      dup3\n        /* \"#utility.yul\":18550:18560   */\n      gt\n        /* \"#utility.yul\":18547:18583   */\n      iszero\n      tag_451\n      jumpi\n        /* \"#utility.yul\":18563:18581   */\n      tag_452\n      tag_258\n      jump\t// in\n    tag_452:\n        /* \"#utility.yul\":18547:18583   */\n    tag_451:\n        /* \"#utility.yul\":18399:18590   */\n      swap3\n      swap2\n      pop\n      pop\n      jump\t// out\n        /* \"#utility.yul\":18596:18772   */\n    tag_259:\n        /* \"#utility.yul\":18736:18764   */\n      0x4d61726b65743a20746f55696e743235365f6f766572666c6f77000000000000\n        /* \"#utility.yul\":18732:18733   */\n      0x00\n        /* \"#utility.yul\":18724:18730   */\n      dup3\n        /* \"#utility.yul\":18720:18734   */\n      add\n        /* \"#utility.yul\":18713:18765   */\n      mstore\n        /* \"#utility.yul\":18596:18772   */\n      pop\n      jump\t// out\n        /* \"#utility.yul\":18778:19144   */\n    tag_260:\n        /* \"#utility.yul\":18920:18923   */\n      0x00\n        /* \"#utility.yul\":18941:19008   */\n      tag_455\n        /* \"#utility.yul\":19005:19007   */\n      0x1a\n        /* \"#utility.yul\":19000:19003   */\n      dup4\n        /* \"#utility.yul\":18941:19008   */\n      tag_251\n      jump\t// in\n    tag_455:\n        /* \"#utility.yul\":18934:19008   */\n      swap2\n      pop\n        /* \"#utility.yul\":19017:19110   */\n      tag_456\n        /* \"#utility.yul\":19106:19109   */\n      dup3\n        /* \"#utility.yul\":19017:19110   */\n      tag_259\n      jump\t// in\n    tag_456:\n        /* \"#utility.yul\":19135:19137   */\n      0x20\n        /* \"#utility.yul\":19130:19133   */\n      dup3\n        /* \"#utility.yul\":19126:19138   */\n      add\n        /* \"#utility.yul\":19119:19138   */\n      swap1\n      pop\n        /* \"#utility.yul\":18778:19144   */\n      swap2\n      swap1\n      pop\n      jump\t// out\n        /* \"#utility.yul\":19150:19569   */\n    tag_157:\n        /* \"#utility.yul\":19316:19320   */\n      0x00\n        /* \"#utility.yul\":19354:19356   */\n      0x20\n        /* \"#utility.yul\":19343:19352   */\n      dup3\n        /* \"#utility.yul\":19339:19357   */\n      add\n        /* \"#utility.yul\":19331:19357   */\n      swap1\n      pop\n        /* \"#utility.yul\":19403:19412   */\n      dup2\n        /* \"#utility.yul\":19397:19401   */\n      dup2\n        /* \"#utility.yul\":19393:19413   */\n      sub\n        /* \"#utility.yul\":19389:19390   */\n      0x00\n        /* \"#utility.yul\":19378:19387   */\n      dup4\n        /* \"#utility.yul\":19374:19391   */\n      add\n        /* \"#utility.yul\":19367:19414   */\n      mstore\n        /* \"#utility.yul\":19431:19562   */\n      tag_458\n        /* \"#utility.yul\":19557:19561   */\n      dup2\n        /* \"#utility.yul\":19431:19562   */\n      tag_260\n      jump\t// in\n    tag_458:\n        /* \"#utility.yul\":19423:19562   */\n      swap1\n      pop\n        /* \"#utility.yul\":19150:19569   */\n      swap2\n      swap1\n      pop\n      jump\t// out\n        /* \"#utility.yul\":19575:19754   */\n    tag_261:\n        /* \"#utility.yul\":19715:19746   */\n      0x4d61726b65743a20746f55696e743235365f6f75744f66426f756e6473000000\n        /* \"#utility.yul\":19711:19712   */\n      0x00\n        /* \"#utility.yul\":19703:19709   */\n      dup3\n        /* \"#utility.yul\":19699:19713   */\n      add\n        /* \"#utility.yul\":19692:19747   */\n      mstore\n        /* \"#utility.yul\":19575:19754   */\n      pop\n      jump\t// out\n        /* \"#utility.yul\":19760:20126   */\n    tag_262:\n        /* \"#utility.yul\":19902:19905   */\n      0x00\n        /* \"#utility.yul\":19923:19990   */\n      tag_461\n        /* \"#utility.yul\":19987:19989   */\n      0x1d\n        /* \"#utility.yul\":19982:19985   */\n      dup4\n        /* \"#utility.yul\":19923:19990   */\n      tag_251\n      jump\t// in\n    tag_461:\n        /* \"#utility.yul\":19916:19990   */\n      swap2\n      pop\n        /* \"#utility.yul\":19999:20092   */\n      tag_462\n        /* \"#utility.yul\":20088:20091   */\n      dup3\n        /* \"#utility.yul\":19999:20092   */\n      tag_261\n      jump\t// in\n    tag_462:\n        /* \"#utility.yul\":20117:20119   */\n      0x20\n        /* \"#utility.yul\":20112:20115   */\n      dup3\n        /* \"#utility.yul\":20108:20120   */\n      add\n        /* \"#utility.yul\":20101:20120   */\n      swap1\n      pop\n        /* \"#utility.yul\":19760:20126   */\n      swap2\n      swap1\n      pop\n      jump\t// out\n        /* \"#utility.yul\":20132:20551   */\n    tag_161:\n        /* \"#utility.yul\":20298:20302   */\n      0x00\n        /* \"#utility.yul\":20336:20338   */\n      0x20\n        /* \"#utility.yul\":20325:20334   */\n      dup3\n        /* \"#utility.yul\":20321:20339   */\n      add\n        /* \"#utility.yul\":20313:20339   */\n      swap1\n      pop\n        /* \"#utility.yul\":20385:20394   */\n      dup2\n        /* \"#utility.yul\":20379:20383   */\n      dup2\n        /* \"#utility.yul\":20375:20395   */\n      sub\n        /* \"#utility.yul\":20371:20372   */\n      0x00\n        /* \"#utility.yul\":20360:20369   */\n      dup4\n        /* \"#utility.yul\":20356:20373   */\n      add\n        /* \"#utility.yul\":20349:20396   */\n      mstore\n        /* \"#utility.yul\":20413:20544   */\n      tag_464\n        /* \"#utility.yul\":20539:20543   */\n      dup2\n        /* \"#utility.yul\":20413:20544   */\n      tag_262\n      jump\t// in\n    tag_464:\n        /* \"#utility.yul\":20405:20544   */\n      swap1\n      pop\n        /* \"#utility.yul\":20132:20551   */\n      swap2\n      swap1\n      pop\n      jump\t// out\n        /* \"#utility.yul\":20557:20673   */\n    tag_263:\n        /* \"#utility.yul\":20627:20648   */\n      tag_466\n        /* \"#utility.yul\":20642:20647   */\n      dup2\n        /* \"#utility.yul\":20627:20648   */\n      tag_249\n      jump\t// in\n    tag_466:\n        /* \"#utility.yul\":20620:20625   */\n      dup2\n        /* \"#utility.yul\":20617:20649   */\n      eq\n        /* \"#utility.yul\":20607:20667   */\n      tag_467\n      jumpi\n        /* \"#utility.yul\":20663:20664   */\n      0x00\n        /* \"#utility.yul\":20660:20661   */\n      dup1\n        /* \"#utility.yul\":20653:20665   */\n      revert\n        /* \"#utility.yul\":20607:20667   */\n    tag_467:\n        /* \"#utility.yul\":20557:20673   */\n      pop\n      jump\t// out\n        /* \"#utility.yul\":20679:20816   */\n    tag_264:\n        /* \"#utility.yul\":20733:20738   */\n      0x00\n        /* \"#utility.yul\":20764:20770   */\n      dup2\n        /* \"#utility.yul\":20758:20771   */\n      mload\n        /* \"#utility.yul\":20749:20771   */\n      swap1\n      pop\n        /* \"#utility.yul\":20780:20810   */\n      tag_469\n        /* \"#utility.yul\":20804:20809   */\n      dup2\n        /* \"#utility.yul\":20780:20810   */\n      tag_263\n      jump\t// in\n    tag_469:\n        /* \"#utility.yul\":20679:20816   */\n      swap3\n      swap2\n      pop\n      pop\n      jump\t// out\n        /* \"#utility.yul\":20822:21167   */\n    tag_170:\n        /* \"#utility.yul\":20889:20895   */\n      0x00\n        /* \"#utility.yul\":20938:20940   */\n      0x20\n        /* \"#utility.yul\":20926:20935   */\n      dup3\n        /* \"#utility.yul\":20917:20924   */\n      dup5\n        /* \"#utility.yul\":20913:20936   */\n      sub\n        /* \"#utility.yul\":20909:20941   */\n      slt\n        /* \"#utility.yul\":20906:21025   */\n      iszero\n      tag_471\n      jumpi\n        /* \"#utility.yul\":20944:21023   */\n      tag_472\n      tag_208\n      jump\t// in\n    tag_472:\n        /* \"#utility.yul\":20906:21025   */\n    tag_471:\n        /* \"#utility.yul\":21064:21065   */\n      0x00\n        /* \"#utility.yul\":21089:21150   */\n      tag_473\n        /* \"#utility.yul\":21142:21149   */\n      dup5\n        /* \"#utility.yul\":21133:21139   */\n      dup3\n        /* \"#utility.yul\":21122:21131   */\n      dup6\n        /* \"#utility.yul\":21118:21140   */\n      add\n        /* \"#utility.yul\":21089:21150   */\n      tag_264\n      jump\t// in\n    tag_473:\n        /* \"#utility.yul\":21079:21150   */\n      swap2\n      pop\n        /* \"#utility.yul\":21035:21160   */\n      pop\n        /* \"#utility.yul\":20822:21167   */\n      swap3\n      swap2\n      pop\n      pop\n      jump\t// out\n        /* \"#utility.yul\":21173:21397   */\n    tag_265:\n        /* \"#utility.yul\":21313:21347   */\n      0x4d61726b65743a204552433230207472616e73666572206e6f74207375636365\n        /* \"#utility.yul\":21309:21310   */\n      0x00\n        /* \"#utility.yul\":21301:21307   */\n      dup3\n        /* \"#utility.yul\":21297:21311   */\n      add\n        /* \"#utility.yul\":21290:21348   */\n      mstore\n        /* \"#utility.yul\":21382:21389   */\n      0x737366756c000000000000000000000000000000000000000000000000000000\n        /* \"#utility.yul\":21377:21379   */\n      0x20\n        /* \"#utility.yul\":21369:21375   */\n      dup3\n        /* \"#utility.yul\":21365:21380   */\n      add\n        /* \"#utility.yul\":21358:21390   */\n      mstore\n        /* \"#utility.yul\":21173:21397   */\n      pop\n      jump\t// out\n        /* \"#utility.yul\":21403:21769   */\n    tag_266:\n        /* \"#utility.yul\":21545:21548   */\n      0x00\n        /* \"#utility.yul\":21566:21633   */\n      tag_476\n        /* \"#utility.yul\":21630:21632   */\n      0x25\n        /* \"#utility.yul\":21625:21628   */\n      dup4\n        /* \"#utility.yul\":21566:21633   */\n      tag_251\n      jump\t// in\n    tag_476:\n        /* \"#utility.yul\":21559:21633   */\n      swap2\n      pop\n        /* \"#utility.yul\":21642:21735   */\n      tag_477\n        /* \"#utility.yul\":21731:21734   */\n      dup3\n        /* \"#utility.yul\":21642:21735   */\n      tag_265\n      jump\t// in\n    tag_477:\n        /* \"#utility.yul\":21760:21762   */\n      0x40\n        /* \"#utility.yul\":21755:21758   */\n      dup3\n        /* \"#utility.yul\":21751:21763   */\n      add\n        /* \"#utility.yul\":21744:21763   */\n      swap1\n      pop\n        /* \"#utility.yul\":21403:21769   */\n      swap2\n      swap1\n      pop\n      jump\t// out\n        /* \"#utility.yul\":21775:22194   */\n    tag_173:\n        /* \"#utility.yul\":21941:21945   */\n      0x00\n        /* \"#utility.yul\":21979:21981   */\n      0x20\n        /* \"#utility.yul\":21968:21977   */\n      dup3\n        /* \"#utility.yul\":21964:21982   */\n      add\n        /* \"#utility.yul\":21956:21982   */\n      swap1\n      pop\n        /* \"#utility.yul\":22028:22037   */\n      dup2\n        /* \"#utility.yul\":22022:22026   */\n      dup2\n        /* \"#utility.yul\":22018:22038   */\n      sub\n        /* \"#utility.yul\":22014:22015   */\n      0x00\n        /* \"#utility.yul\":22003:22012   */\n      dup4\n        /* \"#utility.yul\":21999:22016   */\n      add\n        /* \"#utility.yul\":21992:22039   */\n      mstore\n        /* \"#utility.yul\":22056:22187   */\n      tag_479\n        /* \"#utility.yul\":22182:22186   */\n      dup2\n        /* \"#utility.yul\":22056:22187   */\n      tag_266\n      jump\t// in\n    tag_479:\n        /* \"#utility.yul\":22048:22187   */\n      swap1\n      pop\n        /* \"#utility.yul\":21775:22194   */\n      swap2\n      swap1\n      pop\n      jump\t// out\n        /* \"#utility.yul\":22200:22753   */\n    tag_180:\n        /* \"#utility.yul\":22377:22381   */\n      0x00\n        /* \"#utility.yul\":22415:22418   */\n      0x80\n        /* \"#utility.yul\":22404:22413   */\n      dup3\n        /* \"#utility.yul\":22400:22419   */\n      add\n        /* \"#utility.yul\":22392:22419   */\n      swap1\n      pop\n        /* \"#utility.yul\":22429:22500   */\n      tag_481\n        /* \"#utility.yul\":22497:22498   */\n      0x00\n        /* \"#utility.yul\":22486:22495   */\n      dup4\n        /* \"#utility.yul\":22482:22499   */\n      add\n        /* \"#utility.yul\":22473:22479   */\n      dup8\n        /* \"#utility.yul\":22429:22500   */\n      tag_223\n      jump\t// in\n    tag_481:\n        /* \"#utility.yul\":22510:22582   */\n      tag_482\n        /* \"#utility.yul\":22578:22580   */\n      0x20\n        /* \"#utility.yul\":22567:22576   */\n      dup4\n        /* \"#utility.yul\":22563:22581   */\n      add\n        /* \"#utility.yul\":22554:22560   */\n      dup7\n        /* \"#utility.yul\":22510:22582   */\n      tag_223\n      jump\t// in\n    tag_482:\n        /* \"#utility.yul\":22592:22664   */\n      tag_483\n        /* \"#utility.yul\":22660:22662   */\n      0x40\n        /* \"#utility.yul\":22649:22658   */\n      dup4\n        /* \"#utility.yul\":22645:22663   */\n      add\n        /* \"#utility.yul\":22636:22642   */\n      dup6\n        /* \"#utility.yul\":22592:22664   */\n      tag_224\n      jump\t// in\n    tag_483:\n        /* \"#utility.yul\":22674:22746   */\n      tag_484\n        /* \"#utility.yul\":22742:22744   */\n      0x60\n        /* \"#utility.yul\":22731:22740   */\n      dup4\n        /* \"#utility.yul\":22727:22745   */\n      add\n        /* \"#utility.yul\":22718:22724   */\n      dup5\n        /* \"#utility.yul\":22674:22746   */\n      tag_224\n      jump\t// in\n    tag_484:\n        /* \"#utility.yul\":22200:22753   */\n      swap6\n      swap5\n      pop\n      pop\n      pop\n      pop\n      pop\n      jump\t// out\n        /* \"#utility.yul\":22759:22985   */\n    tag_267:\n        /* \"#utility.yul\":22899:22933   */\n      0x4d61726b65743a205072696365206d7573742062652067726561746572207468\n        /* \"#utility.yul\":22895:22896   */\n      0x00\n        /* \"#utility.yul\":22887:22893   */\n      dup3\n        /* \"#utility.yul\":22883:22897   */\n      add\n        /* \"#utility.yul\":22876:22934   */\n      mstore\n        /* \"#utility.yul\":22968:22977   */\n      0x616e207a65726f00000000000000000000000000000000000000000000000000\n        /* \"#utility.yul\":22963:22965   */\n      0x20\n        /* \"#utility.yul\":22955:22961   */\n      dup3\n        /* \"#utility.yul\":22951:22966   */\n      add\n        /* \"#utility.yul\":22944:22978   */\n      mstore\n        /* \"#utility.yul\":22759:22985   */\n      pop\n      jump\t// out\n        /* \"#utility.yul\":22991:23357   */\n    tag_268:\n        /* \"#utility.yul\":23133:23136   */\n      0x00\n        /* \"#utility.yul\":23154:23221   */\n      tag_487\n        /* \"#utility.yul\":23218:23220   */\n      0x27\n        /* \"#utility.yul\":23213:23216   */\n      dup4\n        /* \"#utility.yul\":23154:23221   */\n      tag_251\n      jump\t// in\n    tag_487:\n        /* \"#utility.yul\":23147:23221   */\n      swap2\n      pop\n        /* \"#utility.yul\":23230:23323   */\n      tag_488\n        /* \"#utility.yul\":23319:23322   */\n      dup3\n        /* \"#utility.yul\":23230:23323   */\n      tag_267\n      jump\t// in\n    tag_488:\n        /* \"#utility.yul\":23348:23350   */\n      0x40\n        /* \"#utility.yul\":23343:23346   */\n      dup3\n        /* \"#utility.yul\":23339:23351   */\n      add\n        /* \"#utility.yul\":23332:23351   */\n      swap1\n      pop\n        /* \"#utility.yul\":22991:23357   */\n      swap2\n      swap1\n      pop\n      jump\t// out\n        /* \"#utility.yul\":23363:23782   */\n    tag_189:\n        /* \"#utility.yul\":23529:23533   */\n      0x00\n        /* \"#utility.yul\":23567:23569   */\n      0x20\n        /* \"#utility.yul\":23556:23565   */\n      dup3\n        /* \"#utility.yul\":23552:23570   */\n      add\n        /* \"#utility.yul\":23544:23570   */\n      swap1\n      pop\n        /* \"#utility.yul\":23616:23625   */\n      dup2\n        /* \"#utility.yul\":23610:23614   */\n      dup2\n        /* \"#utility.yul\":23606:23626   */\n      sub\n        /* \"#utility.yul\":23602:23603   */\n      0x00\n        /* \"#utility.yul\":23591:23600   */\n      dup4\n        /* \"#utility.yul\":23587:23604   */\n      add\n        /* \"#utility.yul\":23580:23627   */\n      mstore\n        /* \"#utility.yul\":23644:23775   */\n      tag_490\n        /* \"#utility.yul\":23770:23774   */\n      dup2\n        /* \"#utility.yul\":23644:23775   */\n      tag_268\n      jump\t// in\n    tag_490:\n        /* \"#utility.yul\":23636:23775   */\n      swap1\n      pop\n        /* \"#utility.yul\":23363:23782   */\n      swap2\n      swap1\n      pop\n      jump\t// out\n        /* \"#utility.yul\":23788:23982   */\n    tag_192:\n        /* \"#utility.yul\":23828:23832   */\n      0x00\n        /* \"#utility.yul\":23848:23868   */\n      tag_492\n        /* \"#utility.yul\":23866:23867   */\n      dup3\n        /* \"#utility.yul\":23848:23868   */\n      tag_214\n      jump\t// in\n    tag_492:\n        /* \"#utility.yul\":23843:23868   */\n      swap2\n      pop\n        /* \"#utility.yul\":23882:23902   */\n      tag_493\n        /* \"#utility.yul\":23900:23901   */\n      dup4\n        /* \"#utility.yul\":23882:23902   */\n      tag_214\n      jump\t// in\n    tag_493:\n        /* \"#utility.yul\":23877:23902   */\n      swap3\n      pop\n        /* \"#utility.yul\":23926:23927   */\n      dup3\n        /* \"#utility.yul\":23923:23924   */\n      dup3\n        /* \"#utility.yul\":23919:23928   */\n      sub\n        /* \"#utility.yul\":23911:23928   */\n      swap1\n      pop\n        /* \"#utility.yul\":23950:23951   */\n      dup2\n        /* \"#utility.yul\":23944:23948   */\n      dup2\n        /* \"#utility.yul\":23941:23952   */\n      gt\n        /* \"#utility.yul\":23938:23975   */\n      iszero\n      tag_494\n      jumpi\n        /* \"#utility.yul\":23955:23973   */\n      tag_495\n      tag_258\n      jump\t// in\n    tag_495:\n        /* \"#utility.yul\":23938:23975   */\n    tag_494:\n        /* \"#utility.yul\":23788:23982   */\n      swap3\n      swap2\n      pop\n      pop\n      jump\t// out\n        /* \"#utility.yul\":23988:24168   */\n    tag_205:\n        /* \"#utility.yul\":24036:24113   */\n      0x4e487b7100000000000000000000000000000000000000000000000000000000\n        /* \"#utility.yul\":24033:24034   */\n      0x00\n        /* \"#utility.yul\":24026:24114   */\n      mstore\n        /* \"#utility.yul\":24133:24137   */\n      0x31\n        /* \"#utility.yul\":24130:24131   */\n      0x04\n        /* \"#utility.yul\":24123:24138   */\n      mstore\n        /* \"#utility.yul\":24157:24161   */\n      0x24\n        /* \"#utility.yul\":24154:24155   */\n      0x00\n        /* \"#utility.yul\":24147:24162   */\n      revert\n\n    auxdata: 0xa264697066735822122093311ee6aefacb567c09f500566844cf09c3b15d3646437413d5c08276d1810264736f6c634300081a0033\n}\n",
				"bytecode": {
					"linkReferences": {},
					"object": "608060405234801561000f575f80fd5b506040516122a93803806122a98339818101604052810190610031919061023d565b5f73ffffffffffffffffffffffffffffffffffffffff168273ffffffffffffffffffffffffffffffffffffffff160361009f576040517f08c379a0000000000000000000000000000000000000000000000000000000008152600401610096906102fb565b60405180910390fd5b5f73ffffffffffffffffffffffffffffffffffffffff168173ffffffffffffffffffffffffffffffffffffffff160361010d576040517f08c379a000000000000000000000000000000000000000000000000000000000815260040161010490610389565b60405180910390fd5b815f806101000a81548173ffffffffffffffffffffffffffffffffffffffff021916908373ffffffffffffffffffffffffffffffffffffffff1602179055508060015f6101000a81548173ffffffffffffffffffffffffffffffffffffffff021916908373ffffffffffffffffffffffffffffffffffffffff16021790555050506103a7565b5f80fd5b5f73ffffffffffffffffffffffffffffffffffffffff82169050919050565b5f6101c082610197565b9050919050565b5f6101d1826101b6565b9050919050565b6101e1816101c7565b81146101eb575f80fd5b50565b5f815190506101fc816101d8565b92915050565b5f61020c826101b6565b9050919050565b61021c81610202565b8114610226575f80fd5b50565b5f8151905061023781610213565b92915050565b5f806040838503121561025357610252610193565b5b5f610260858286016101ee565b925050602061027185828601610229565b9150509250929050565b5f82825260208201905092915050565b7f4d61726b65743a2049455243323020636f6e74726163742061646472657373205f8201527f6d757374206265206e6f6e2d6e756c6c00000000000000000000000000000000602082015250565b5f6102e560308361027b565b91506102f08261028b565b604082019050919050565b5f6020820190508181035f830152610312816102d9565b9050919050565b7f4d61726b65743a204945524337323120636f6e747261637420616464726573735f8201527f206d757374206265206e6f6e2d6e756c6c000000000000000000000000000000602082015250565b5f61037360318361027b565b915061037e82610319565b604082019050919050565b5f6020820190508181035f8301526103a081610367565b9050919050565b611ef5806103b45f395ff3fe608060405234801561000f575f80fd5b50600436106100e8575f3560e01c8063b3de019c1161008a578063d96a094a11610064578063d96a094a14610260578063da694df01461027c578063e0391b09146102ac578063fcce4883146102ca576100e8565b8063b3de019c146101f6578063b5cdf92414610212578063bca6ce6414610242576100e8565b8063629cb2e4116100c6578063629cb2e41461016a578063785e9e86146101885780639d4971b7146101a6578063a85c38ef146101c4576100e8565b8063150b7a02146100ec578063394a90771461011c578063514fcac71461014e575b5f80fd5b610106600480360381019061010191906113dc565b6102fa565b604051610113919061149a565b60405180910390f35b610136600480360381019061013191906114b3565b6103d8565b604051610145939291906114fc565b60405180910390f35b610168600480360381019061016391906114b3565b61041d565b005b6101726105da565b60405161017f9190611637565b60405180910390f35b61019061083b565b60405161019d91906116b2565b60405180910390f35b6101ae61085e565b6040516101bb91906116cb565b60405180910390f35b6101de60048036038101906101d991906114b3565b61086a565b6040516101ed939291906114fc565b60405180910390f35b610210600480360381019061020b91906116e4565b6108be565b005b61022c6004803603810190610227919061185a565b610a5c565b60405161023991906116cb565b60405180910390f35b61024a610b10565b60405161025791906118d4565b60405180910390f35b61027a600480360381019061027591906114b3565b610b35565b005b610296600480360381019061029191906114b3565b610d81565b6040516102a391906116cb565b60405180910390f35b6102b4610d96565b6040516102c19190611637565b60405180910390f35b6102e460048036038101906102df91906114b3565b610e5a565b6040516102f19190611907565b60405180910390f35b5f8473ffffffffffffffffffffffffffffffffffffffff168673ffffffffffffffffffffffffffffffffffffffff1614610369576040517f08c379a00000000000000000000000000000000000000000000000000000000081526004016103609061197a565b60405180910390fd5b5f6103b784848080601f0160208091040260200160405190810160405280939291908181526020018383808284375f81840152601f19601f820116905080830192505050505050505f610a5c565b90506103c4868683610ec4565b63150b7a0260e01b91505095945050505050565b6002602052805f5260405f205f91509050805f015f9054906101000a900473ffffffffffffffffffffffffffffffffffffffff16908060010154908060020154905083565b61042681610e5a565b610465576040517f08c379a000000000000000000000000000000000000000000000000000000000815260040161045c906119e2565b60405180910390fd5b5f60025f8381526020019081526020015f205f015f9054906101000a900473ffffffffffffffffffffffffffffffffffffffff1690503373ffffffffffffffffffffffffffffffffffffffff168173ffffffffffffffffffffffffffffffffffffffff1614610509576040517f08c379a000000000000000000000000000000000000000000000000000000000815260040161050090611a4a565b60405180910390fd5b60015f9054906101000a900473ffffffffffffffffffffffffffffffffffffffff1673ffffffffffffffffffffffffffffffffffffffff166342842e0e3083856040518463ffffffff1660e01b815260040161056793929190611a68565b5f604051808303815f87803b15801561057e575f80fd5b505af1158015610590573d5f803e3d5ffd5b5050505061059d826110a2565b7fc0e68d6b69f741c21e955cad2ae4d505b6f6735c7e7b278251b3f6283a5f07eb81836040516105ce929190611a9d565b60405180910390a15050565b60605f60038054905067ffffffffffffffff8111156105fc576105fb611736565b5b60405190808252806020026020018201604052801561063557816020015b6106226112a9565b81526020019060019003908161061a5790505b5090505f805b600380549050811015610789573373ffffffffffffffffffffffffffffffffffffffff166003828154811061067357610672611ac4565b5b905f5260205f2090600302015f015f9054906101000a900473ffffffffffffffffffffffffffffffffffffffff1673ffffffffffffffffffffffffffffffffffffffff160361077c57600381815481106106d0576106cf611ac4565b5b905f5260205f2090600302016040518060600160405290815f82015f9054906101000a900473ffffffffffffffffffffffffffffffffffffffff1673ffffffffffffffffffffffffffffffffffffffff1673ffffffffffffffffffffffffffffffffffffffff1681526020016001820154815260200160028201548152505083838151811061076257610761611ac4565b5b6020026020010181905250818061077890611b1e565b9250505b808060010191505061063b565b505f8167ffffffffffffffff8111156107a5576107a4611736565b5b6040519080825280602002602001820160405280156107de57816020015b6107cb6112a9565b8152602001906001900390816107c35790505b5090505f5b82811015610831578381815181106107fe576107fd611ac4565b5b602002602001015182828151811061081957610818611ac4565b5b602002602001018190525080806001019150506107e3565b5080935050505090565b5f8054906101000a900473ffffffffffffffffffffffffffffffffffffffff1681565b5f600380549050905090565b60038181548110610879575f80fd5b905f5260205f2090600302015f91509050805f015f9054906101000a900473ffffffffffffffffffffffffffffffffffffffff16908060010154908060020154905083565b6108c782610e5a565b610906576040517f08c379a00000000000000000000000000000000000000000000000000000000081526004016108fd906119e2565b60405180910390fd5b5f60025f8481526020019081526020015f205f015f9054906101000a900473ffffffffffffffffffffffffffffffffffffffff1690503373ffffffffffffffffffffffffffffffffffffffff168173ffffffffffffffffffffffffffffffffffffffff16146109aa576040517f08c379a00000000000000000000000000000000000000000000000000000000081526004016109a190611a4a565b60405180910390fd5b5f60025f8581526020019081526020015f206002015490508260025f8681526020019081526020015f20600201819055505f600360045f8781526020019081526020015f205481548110610a0157610a00611ac4565b5b905f5260205f20906003020190508381600201819055507f342a7f6248980b0f191b96eb6b7a439c4da78b2c97b86ca66cc7ee90d4b04cce83868487604051610a4d9493929190611b65565b60405180910390a15050505050565b5f81602083610a6b9190611ba8565b1015610aac576040517f08c379a0000000000000000000000000000000000000000000000000000000008152600401610aa390611c25565b60405180910390fd5b602082610ab99190611ba8565b83511015610afc576040517f08c379a0000000000000000000000000000000000000000000000000000000008152600401610af390611c8d565b60405180910390fd5b5f8260208501015190508091505092915050565b60015f9054906101000a900473ffffffffffffffffffffffffffffffffffffffff1681565b610b3e81610e5a565b610b7d576040517f08c379a0000000000000000000000000000000000000000000000000000000008152600401610b74906119e2565b60405180910390fd5b5f60025f8381526020019081526020015f205f015f9054906101000a900473ffffffffffffffffffffffffffffffffffffffff1690505f3390505f60025f8581526020019081526020015f206002015490505f8054906101000a900473ffffffffffffffffffffffffffffffffffffffff1673ffffffffffffffffffffffffffffffffffffffff166323b872dd8385846040518463ffffffff1660e01b8152600401610c2b93929190611a68565b6020604051808303815f875af1158015610c47573d5f803e3d5ffd5b505050506040513d601f19601f82011682018060405250810190610c6b9190611cd5565b610caa576040517f08c379a0000000000000000000000000000000000000000000000000000000008152600401610ca190611d70565b60405180910390fd5b60015f9054906101000a900473ffffffffffffffffffffffffffffffffffffffff1673ffffffffffffffffffffffffffffffffffffffff166342842e0e3084876040518463ffffffff1660e01b8152600401610d0893929190611a68565b5f604051808303815f87803b158015610d1f575f80fd5b505af1158015610d31573d5f803e3d5ffd5b50505050610d3e846110a2565b7f424d5e5f0192c7dacdbe646ca31b00299146d883d76a95ef5cddbac7cd342eab82848684604051610d739493929190611d8e565b60405180910390a150505050565b6004602052805f5260405f205f915090505481565b60606003805480602002602001604051908101604052809291908181526020015f905b82821015610e51578382905f5260205f2090600302016040518060600160405290815f82015f9054906101000a900473ffffffffffffffffffffffffffffffffffffffff1673ffffffffffffffffffffffffffffffffffffffff1673ffffffffffffffffffffffffffffffffffffffff1681526020016001820154815260200160028201548152505081526020019060010190610db9565b50505050905090565b5f8073ffffffffffffffffffffffffffffffffffffffff1660025f8481526020019081526020015f205f015f9054906101000a900473ffffffffffffffffffffffffffffffffffffffff1673ffffffffffffffffffffffffffffffffffffffff1614159050919050565b5f8111610f06576040517f08c379a0000000000000000000000000000000000000000000000000000000008152600401610efd90611e41565b60405180910390fd5b8260025f8481526020019081526020015f205f015f6101000a81548173ffffffffffffffffffffffffffffffffffffffff021916908373ffffffffffffffffffffffffffffffffffffffff1602179055508060025f8481526020019081526020015f20600201819055508160025f8481526020019081526020015f2060010181905550600360025f8481526020019081526020015f20908060018154018082558091505060019003905f5260205f2090600302015f909190919091505f82015f9054906101000a900473ffffffffffffffffffffffffffffffffffffffff16815f015f6101000a81548173ffffffffffffffffffffffffffffffffffffffff021916908373ffffffffffffffffffffffffffffffffffffffff16021790555060018201548160010155600282015481600201555050600160038054905061104d9190611e5f565b60045f8481526020019081526020015f20819055507fd5b509e657d5ec37ae4bdcab658b7340c0453bb630516d26623359a34c1cecf3838383604051611095939291906114fc565b60405180910390a1505050565b60025f8281526020019081526020015f205f8082015f6101000a81549073ffffffffffffffffffffffffffffffffffffffff0219169055600182015f9055600282015f905550505f60045f8381526020019081526020015f205490505f60016003805490506111119190611e5f565b9050818114611248575f6003828154811061112f5761112e611ac4565b5b905f5260205f2090600302016040518060600160405290815f82015f9054906101000a900473ffffffffffffffffffffffffffffffffffffffff1673ffffffffffffffffffffffffffffffffffffffff1673ffffffffffffffffffffffffffffffffffffffff16815260200160018201548152602001600282015481525050905080600384815481106111c5576111c4611ac4565b5b905f5260205f2090600302015f820151815f015f6101000a81548173ffffffffffffffffffffffffffffffffffffffff021916908373ffffffffffffffffffffffffffffffffffffffff16021790555060208201518160010155604082015181600201559050508260045f836020015181526020019081526020015f2081905550505b600380548061125a57611259611e92565b5b600190038181905f5260205f2090600302015f8082015f6101000a81549073ffffffffffffffffffffffffffffffffffffffff0219169055600182015f9055600282015f905550509055505050565b60405180606001604052805f73ffffffffffffffffffffffffffffffffffffffff1681526020015f81526020015f81525090565b5f604051905090565b5f80fd5b5f80fd5b5f73ffffffffffffffffffffffffffffffffffffffff82169050919050565b5f611317826112ee565b9050919050565b6113278161130d565b8114611331575f80fd5b50565b5f813590506113428161131e565b92915050565b5f819050919050565b61135a81611348565b8114611364575f80fd5b50565b5f8135905061137581611351565b92915050565b5f80fd5b5f80fd5b5f80fd5b5f8083601f84011261139c5761139b61137b565b5b8235905067ffffffffffffffff8111156113b9576113b861137f565b5b6020830191508360018202830111156113d5576113d4611383565b5b9250929050565b5f805f805f608086880312156113f5576113f46112e6565b5b5f61140288828901611334565b955050602061141388828901611334565b945050604061142488828901611367565b935050606086013567ffffffffffffffff811115611445576114446112ea565b5b61145188828901611387565b92509250509295509295909350565b5f7fffffffff0000000000000000000000000000000000000000000000000000000082169050919050565b61149481611460565b82525050565b5f6020820190506114ad5f83018461148b565b92915050565b5f602082840312156114c8576114c76112e6565b5b5f6114d584828501611367565b91505092915050565b6114e78161130d565b82525050565b6114f681611348565b82525050565b5f60608201905061150f5f8301866114de565b61151c60208301856114ed565b61152960408301846114ed565b949350505050565b5f81519050919050565b5f82825260208201905092915050565b5f819050602082019050919050565b6115638161130d565b82525050565b61157281611348565b82525050565b606082015f82015161158c5f85018261155a565b50602082015161159f6020850182611569565b5060408201516115b26040850182611569565b50505050565b5f6115c38383611578565b60608301905092915050565b5f602082019050919050565b5f6115e582611531565b6115ef818561153b565b93506115fa8361154b565b805f5b8381101561162a57815161161188826115b8565b975061161c836115cf565b9250506001810190506115fd565b5085935050505092915050565b5f6020820190508181035f83015261164f81846115db565b905092915050565b5f819050919050565b5f61167a611675611670846112ee565b611657565b6112ee565b9050919050565b5f61168b82611660565b9050919050565b5f61169c82611681565b9050919050565b6116ac81611692565b82525050565b5f6020820190506116c55f8301846116a3565b92915050565b5f6020820190506116de5f8301846114ed565b92915050565b5f80604083850312156116fa576116f96112e6565b5b5f61170785828601611367565b925050602061171885828601611367565b9150509250929050565b5f80fd5b5f601f19601f8301169050919050565b7f4e487b71000000000000000000000000000000000000000000000000000000005f52604160045260245ffd5b61176c82611726565b810181811067ffffffffffffffff8211171561178b5761178a611736565b5b80604052505050565b5f61179d6112dd565b90506117a98282611763565b919050565b5f67ffffffffffffffff8211156117c8576117c7611736565b5b6117d182611726565b9050602081019050919050565b828183375f83830152505050565b5f6117fe6117f9846117ae565b611794565b90508281526020810184848401111561181a57611819611722565b5b6118258482856117de565b509392505050565b5f82601f8301126118415761184061137b565b5b81356118518482602086016117ec565b91505092915050565b5f80604083850312156118705761186f6112e6565b5b5f83013567ffffffffffffffff81111561188d5761188c6112ea565b5b6118998582860161182d565b92505060206118aa85828601611367565b9150509250929050565b5f6118be82611681565b9050919050565b6118ce816118b4565b82525050565b5f6020820190506118e75f8301846118c5565b92915050565b5f8115159050919050565b611901816118ed565b82525050565b5f60208201905061191a5f8301846118f8565b92915050565b5f82825260208201905092915050565b7f4d61726b65743a2053656c6c6572206d757374206265206f70657261746f72005f82015250565b5f611964601f83611920565b915061196f82611930565b602082019050919050565b5f6020820190508181035f83015261199181611958565b9050919050565b7f4d61726b65743a20546f6b656e204944206973206e6f74206c697374656400005f82015250565b5f6119cc601e83611920565b91506119d782611998565b602082019050919050565b5f6020820190508181035f8301526119f9816119c0565b9050919050565b7f4d61726b65743a2053656e646572206973206e6f742073656c6c6572000000005f82015250565b5f611a34601c83611920565b9150611a3f82611a00565b602082019050919050565b5f6020820190508181035f830152611a6181611a28565b9050919050565b5f606082019050611a7b5f8301866114de565b611a8860208301856114de565b611a9560408301846114ed565b949350505050565b5f604082019050611ab05f8301856114de565b611abd60208301846114ed565b9392505050565b7f4e487b71000000000000000000000000000000000000000000000000000000005f52603260045260245ffd5b7f4e487b71000000000000000000000000000000000000000000000000000000005f52601160045260245ffd5b5f611b2882611348565b91507fffffffffffffffffffffffffffffffffffffffffffffffffffffffffffffffff8203611b5a57611b59611af1565b5b600182019050919050565b5f608082019050611b785f8301876114de565b611b8560208301866114ed565b611b9260408301856114ed565b611b9f60608301846114ed565b95945050505050565b5f611bb282611348565b9150611bbd83611348565b9250828201905080821115611bd557611bd4611af1565b5b92915050565b7f4d61726b65743a20746f55696e743235365f6f766572666c6f770000000000005f82015250565b5f611c0f601a83611920565b9150611c1a82611bdb565b602082019050919050565b5f6020820190508181035f830152611c3c81611c03565b9050919050565b7f4d61726b65743a20746f55696e743235365f6f75744f66426f756e64730000005f82015250565b5f611c77601d83611920565b9150611c8282611c43565b602082019050919050565b5f6020820190508181035f830152611ca481611c6b565b9050919050565b611cb4816118ed565b8114611cbe575f80fd5b50565b5f81519050611ccf81611cab565b92915050565b5f60208284031215611cea57611ce96112e6565b5b5f611cf784828501611cc1565b91505092915050565b7f4d61726b65743a204552433230207472616e73666572206e6f742073756363655f8201527f737366756c000000000000000000000000000000000000000000000000000000602082015250565b5f611d5a602583611920565b9150611d6582611d00565b604082019050919050565b5f6020820190508181035f830152611d8781611d4e565b9050919050565b5f608082019050611da15f8301876114de565b611dae60208301866114de565b611dbb60408301856114ed565b611dc860608301846114ed565b95945050505050565b7f4d61726b65743a205072696365206d75737420626520677265617465722074685f8201527f616e207a65726f00000000000000000000000000000000000000000000000000602082015250565b5f611e2b602783611920565b9150611e3682611dd1565b604082019050919050565b5f6020820190508181035f830152611e5881611e1f565b9050919050565b5f611e6982611348565b9150611e7483611348565b9250828203905081811115611e8c57611e8b611af1565b5b92915050565b7f4e487b71000000000000000000000000000000000000000000000000000000005f52603160045260245ffdfea264697066735822122093311ee6aefacb567c09f500566844cf09c3b15d3646437413d5c08276d1810264736f6c634300081a0033",
					"opcodes": "PUSH1 0x80 PUSH1 0x40 MSTORE CALLVALUE DUP1 ISZERO PUSH2 0xF JUMPI PUSH0 DUP1 REVERT JUMPDEST POP PUSH1 0x40 MLOAD PUSH2 0x22A9 CODESIZE SUB DUP1 PUSH2 0x22A9 DUP4 CODECOPY DUP2 DUP2 ADD PUSH1 0x40 MSTORE DUP2 ADD SWAP1 PUSH2 0x31 SWAP2 SWAP1 PUSH2 0x23D JUMP JUMPDEST PUSH0 PUSH20 0xFFFFFFFFFFFFFFFFFFFFFFFFFFFFFFFFFFFFFFFF AND DUP3 PUSH20 0xFFFFFFFFFFFFFFFFFFFFFFFFFFFFFFFFFFFFFFFF AND SUB PUSH2 0x9F JUMPI PUSH1 0x40 MLOAD PUSH32 0x8C379A000000000000000000000000000000000000000000000000000000000 DUP2 MSTORE PUSH1 0x4 ADD PUSH2 0x96 SWAP1 PUSH2 0x2FB JUMP JUMPDEST PUSH1 0x40 MLOAD DUP1 SWAP2 SUB SWAP1 REVERT JUMPDEST PUSH0 PUSH20 0xFFFFFFFFFFFFFFFFFFFFFFFFFFFFFFFFFFFFFFFF AND DUP2 PUSH20 0xFFFFFFFFFFFFFFFFFFFFFFFFFFFFFFFFFFFFFFFF AND SUB PUSH2 0x10D JUMPI PUSH1 0x40 MLOAD PUSH32 0x8C379A000000000000000000000000000000000000000000000000000000000 DUP2 MSTORE PUSH1 0x4 ADD PUSH2 0x104 SWAP1 PUSH2 0x389 JUMP JUMPDEST PUSH1 0x40 MLOAD DUP1 SWAP2 SUB SWAP1 REVERT JUMPDEST DUP2 PUSH0 DUP1 PUSH2 0x100 EXP DUP2 SLOAD DUP2 PUSH20 0xFFFFFFFFFFFFFFFFFFFFFFFFFFFFFFFFFFFFFFFF MUL NOT AND SWAP1 DUP4 PUSH20 0xFFFFFFFFFFFFFFFFFFFFFFFFFFFFFFFFFFFFFFFF AND MUL OR SWAP1 SSTORE POP DUP1 PUSH1 0x1 PUSH0 PUSH2 0x100 EXP DUP2 SLOAD DUP2 PUSH20 0xFFFFFFFFFFFFFFFFFFFFFFFFFFFFFFFFFFFFFFFF MUL NOT AND SWAP1 DUP4 PUSH20 0xFFFFFFFFFFFFFFFFFFFFFFFFFFFFFFFFFFFFFFFF AND MUL OR SWAP1 SSTORE POP POP POP PUSH2 0x3A7 JUMP JUMPDEST PUSH0 DUP1 REVERT JUMPDEST PUSH0 PUSH20 0xFFFFFFFFFFFFFFFFFFFFFFFFFFFFFFFFFFFFFFFF DUP3 AND SWAP1 POP SWAP2 SWAP1 POP JUMP JUMPDEST PUSH0 PUSH2 0x1C0 DUP3 PUSH2 0x197 JUMP JUMPDEST SWAP1 POP SWAP2 SWAP1 POP JUMP JUMPDEST PUSH0 PUSH2 0x1D1 DUP3 PUSH2 0x1B6 JUMP JUMPDEST SWAP1 POP SWAP2 SWAP1 POP JUMP JUMPDEST PUSH2 0x1E1 DUP2 PUSH2 0x1C7 JUMP JUMPDEST DUP2 EQ PUSH2 0x1EB JUMPI PUSH0 DUP1 REVERT JUMPDEST POP JUMP JUMPDEST PUSH0 DUP2 MLOAD SWAP1 POP PUSH2 0x1FC DUP2 PUSH2 0x1D8 JUMP JUMPDEST SWAP3 SWAP2 POP POP JUMP JUMPDEST PUSH0 PUSH2 0x20C DUP3 PUSH2 0x1B6 JUMP JUMPDEST SWAP1 POP SWAP2 SWAP1 POP JUMP JUMPDEST PUSH2 0x21C DUP2 PUSH2 0x202 JUMP JUMPDEST DUP2 EQ PUSH2 0x226 JUMPI PUSH0 DUP1 REVERT JUMPDEST POP JUMP JUMPDEST PUSH0 DUP2 MLOAD SWAP1 POP PUSH2 0x237 DUP2 PUSH2 0x213 JUMP JUMPDEST SWAP3 SWAP2 POP POP JUMP JUMPDEST PUSH0 DUP1 PUSH1 0x40 DUP4 DUP6 SUB SLT ISZERO PUSH2 0x253 JUMPI PUSH2 0x252 PUSH2 0x193 JUMP JUMPDEST JUMPDEST PUSH0 PUSH2 0x260 DUP6 DUP3 DUP7 ADD PUSH2 0x1EE JUMP JUMPDEST SWAP3 POP POP PUSH1 0x20 PUSH2 0x271 DUP6 DUP3 DUP7 ADD PUSH2 0x229 JUMP JUMPDEST SWAP2 POP POP SWAP3 POP SWAP3 SWAP1 POP JUMP JUMPDEST PUSH0 DUP3 DUP3 MSTORE PUSH1 0x20 DUP3 ADD SWAP1 POP SWAP3 SWAP2 POP POP JUMP JUMPDEST PUSH32 0x4D61726B65743A2049455243323020636F6E7472616374206164647265737320 PUSH0 DUP3 ADD MSTORE PUSH32 0x6D757374206265206E6F6E2D6E756C6C00000000000000000000000000000000 PUSH1 0x20 DUP3 ADD MSTORE POP JUMP JUMPDEST PUSH0 PUSH2 0x2E5 PUSH1 0x30 DUP4 PUSH2 0x27B JUMP JUMPDEST SWAP2 POP PUSH2 0x2F0 DUP3 PUSH2 0x28B JUMP JUMPDEST PUSH1 0x40 DUP3 ADD SWAP1 POP SWAP2 SWAP1 POP JUMP JUMPDEST PUSH0 PUSH1 0x20 DUP3 ADD SWAP1 POP DUP2 DUP2 SUB PUSH0 DUP4 ADD MSTORE PUSH2 0x312 DUP2 PUSH2 0x2D9 JUMP JUMPDEST SWAP1 POP SWAP2 SWAP1 POP JUMP JUMPDEST PUSH32 0x4D61726B65743A204945524337323120636F6E74726163742061646472657373 PUSH0 DUP3 ADD MSTORE PUSH32 0x206D757374206265206E6F6E2D6E756C6C000000000000000000000000000000 PUSH1 0x20 DUP3 ADD MSTORE POP JUMP JUMPDEST PUSH0 PUSH2 0x373 PUSH1 0x31 DUP4 PUSH2 0x27B JUMP JUMPDEST SWAP2 POP PUSH2 0x37E DUP3 PUSH2 0x319 JUMP JUMPDEST PUSH1 0x40 DUP3 ADD SWAP1 POP SWAP2 SWAP1 POP JUMP JUMPDEST PUSH0 PUSH1 0x20 DUP3 ADD SWAP1 POP DUP2 DUP2 SUB PUSH0 DUP4 ADD MSTORE PUSH2 0x3A0 DUP2 PUSH2 0x367 JUMP JUMPDEST SWAP1 POP SWAP2 SWAP1 POP JUMP JUMPDEST PUSH2 0x1EF5 DUP1 PUSH2 0x3B4 PUSH0 CODECOPY PUSH0 RETURN INVALID PUSH1 0x80 PUSH1 0x40 MSTORE CALLVALUE DUP1 ISZERO PUSH2 0xF JUMPI PUSH0 DUP1 REVERT JUMPDEST POP PUSH1 0x4 CALLDATASIZE LT PUSH2 0xE8 JUMPI PUSH0 CALLDATALOAD PUSH1 0xE0 SHR DUP1 PUSH4 0xB3DE019C GT PUSH2 0x8A JUMPI DUP1 PUSH4 0xD96A094A GT PUSH2 0x64 JUMPI DUP1 PUSH4 0xD96A094A EQ PUSH2 0x260 JUMPI DUP1 PUSH4 0xDA694DF0 EQ PUSH2 0x27C JUMPI DUP1 PUSH4 0xE0391B09 EQ PUSH2 0x2AC JUMPI DUP1 PUSH4 0xFCCE4883 EQ PUSH2 0x2CA JUMPI PUSH2 0xE8 JUMP JUMPDEST DUP1 PUSH4 0xB3DE019C EQ PUSH2 0x1F6 JUMPI DUP1 PUSH4 0xB5CDF924 EQ PUSH2 0x212 JUMPI DUP1 PUSH4 0xBCA6CE64 EQ PUSH2 0x242 JUMPI PUSH2 0xE8 JUMP JUMPDEST DUP1 PUSH4 0x629CB2E4 GT PUSH2 0xC6 JUMPI DUP1 PUSH4 0x629CB2E4 EQ PUSH2 0x16A JUMPI DUP1 PUSH4 0x785E9E86 EQ PUSH2 0x188 JUMPI DUP1 PUSH4 0x9D4971B7 EQ PUSH2 0x1A6 JUMPI DUP1 PUSH4 0xA85C38EF EQ PUSH2 0x1C4 JUMPI PUSH2 0xE8 JUMP JUMPDEST DUP1 PUSH4 0x150B7A02 EQ PUSH2 0xEC JUMPI DUP1 PUSH4 0x394A9077 EQ PUSH2 0x11C JUMPI DUP1 PUSH4 0x514FCAC7 EQ PUSH2 0x14E JUMPI JUMPDEST PUSH0 DUP1 REVERT JUMPDEST PUSH2 0x106 PUSH1 0x4 DUP1 CALLDATASIZE SUB DUP2 ADD SWAP1 PUSH2 0x101 SWAP2 SWAP1 PUSH2 0x13DC JUMP JUMPDEST PUSH2 0x2FA JUMP JUMPDEST PUSH1 0x40 MLOAD PUSH2 0x113 SWAP2 SWAP1 PUSH2 0x149A JUMP JUMPDEST PUSH1 0x40 MLOAD DUP1 SWAP2 SUB SWAP1 RETURN JUMPDEST PUSH2 0x136 PUSH1 0x4 DUP1 CALLDATASIZE SUB DUP2 ADD SWAP1 PUSH2 0x131 SWAP2 SWAP1 PUSH2 0x14B3 JUMP JUMPDEST PUSH2 0x3D8 JUMP JUMPDEST PUSH1 0x40 MLOAD PUSH2 0x145 SWAP4 SWAP3 SWAP2 SWAP1 PUSH2 0x14FC JUMP JUMPDEST PUSH1 0x40 MLOAD DUP1 SWAP2 SUB SWAP1 RETURN JUMPDEST PUSH2 0x168 PUSH1 0x4 DUP1 CALLDATASIZE SUB DUP2 ADD SWAP1 PUSH2 0x163 SWAP2 SWAP1 PUSH2 0x14B3 JUMP JUMPDEST PUSH2 0x41D JUMP JUMPDEST STOP JUMPDEST PUSH2 0x172 PUSH2 0x5DA JUMP JUMPDEST PUSH1 0x40 MLOAD PUSH2 0x17F SWAP2 SWAP1 PUSH2 0x1637 JUMP JUMPDEST PUSH1 0x40 MLOAD DUP1 SWAP2 SUB SWAP1 RETURN JUMPDEST PUSH2 0x190 PUSH2 0x83B JUMP JUMPDEST PUSH1 0x40 MLOAD PUSH2 0x19D SWAP2 SWAP1 PUSH2 0x16B2 JUMP JUMPDEST PUSH1 0x40 MLOAD DUP1 SWAP2 SUB SWAP1 RETURN JUMPDEST PUSH2 0x1AE PUSH2 0x85E JUMP JUMPDEST PUSH1 0x40 MLOAD PUSH2 0x1BB SWAP2 SWAP1 PUSH2 0x16CB JUMP JUMPDEST PUSH1 0x40 MLOAD DUP1 SWAP2 SUB SWAP1 RETURN JUMPDEST PUSH2 0x1DE PUSH1 0x4 DUP1 CALLDATASIZE SUB DUP2 ADD SWAP1 PUSH2 0x1D9 SWAP2 SWAP1 PUSH2 0x14B3 JUMP JUMPDEST PUSH2 0x86A JUMP JUMPDEST PUSH1 0x40 MLOAD PUSH2 0x1ED SWAP4 SWAP3 SWAP2 SWAP1 PUSH2 0x14FC JUMP JUMPDEST PUSH1 0x40 MLOAD DUP1 SWAP2 SUB SWAP1 RETURN JUMPDEST PUSH2 0x210 PUSH1 0x4 DUP1 CALLDATASIZE SUB DUP2 ADD SWAP1 PUSH2 0x20B SWAP2 SWAP1 PUSH2 0x16E4 JUMP JUMPDEST PUSH2 0x8BE JUMP JUMPDEST STOP JUMPDEST PUSH2 0x22C PUSH1 0x4 DUP1 CALLDATASIZE SUB DUP2 ADD SWAP1 PUSH2 0x227 SWAP2 SWAP1 PUSH2 0x185A JUMP JUMPDEST PUSH2 0xA5C JUMP JUMPDEST PUSH1 0x40 MLOAD PUSH2 0x239 SWAP2 SWAP1 PUSH2 0x16CB JUMP JUMPDEST PUSH1 0x40 MLOAD DUP1 SWAP2 SUB SWAP1 RETURN JUMPDEST PUSH2 0x24A PUSH2 0xB10 JUMP JUMPDEST PUSH1 0x40 MLOAD PUSH2 0x257 SWAP2 SWAP1 PUSH2 0x18D4 JUMP JUMPDEST PUSH1 0x40 MLOAD DUP1 SWAP2 SUB SWAP1 RETURN JUMPDEST PUSH2 0x27A PUSH1 0x4 DUP1 CALLDATASIZE SUB DUP2 ADD SWAP1 PUSH2 0x275 SWAP2 SWAP1 PUSH2 0x14B3 JUMP JUMPDEST PUSH2 0xB35 JUMP JUMPDEST STOP JUMPDEST PUSH2 0x296 PUSH1 0x4 DUP1 CALLDATASIZE SUB DUP2 ADD SWAP1 PUSH2 0x291 SWAP2 SWAP1 PUSH2 0x14B3 JUMP JUMPDEST PUSH2 0xD81 JUMP JUMPDEST PUSH1 0x40 MLOAD PUSH2 0x2A3 SWAP2 SWAP1 PUSH2 0x16CB JUMP JUMPDEST PUSH1 0x40 MLOAD DUP1 SWAP2 SUB SWAP1 RETURN JUMPDEST PUSH2 0x2B4 PUSH2 0xD96 JUMP JUMPDEST PUSH1 0x40 MLOAD PUSH2 0x2C1 SWAP2 SWAP1 PUSH2 0x1637 JUMP JUMPDEST PUSH1 0x40 MLOAD DUP1 SWAP2 SUB SWAP1 RETURN JUMPDEST PUSH2 0x2E4 PUSH1 0x4 DUP1 CALLDATASIZE SUB DUP2 ADD SWAP1 PUSH2 0x2DF SWAP2 SWAP1 PUSH2 0x14B3 JUMP JUMPDEST PUSH2 0xE5A JUMP JUMPDEST PUSH1 0x40 MLOAD PUSH2 0x2F1 SWAP2 SWAP1 PUSH2 0x1907 JUMP JUMPDEST PUSH1 0x40 MLOAD DUP1 SWAP2 SUB SWAP1 RETURN JUMPDEST PUSH0 DUP5 PUSH20 0xFFFFFFFFFFFFFFFFFFFFFFFFFFFFFFFFFFFFFFFF AND DUP7 PUSH20 0xFFFFFFFFFFFFFFFFFFFFFFFFFFFFFFFFFFFFFFFF AND EQ PUSH2 0x369 JUMPI PUSH1 0x40 MLOAD PUSH32 0x8C379A000000000000000000000000000000000000000000000000000000000 DUP2 MSTORE PUSH1 0x4 ADD PUSH2 0x360 SWAP1 PUSH2 0x197A JUMP JUMPDEST PUSH1 0x40 MLOAD DUP1 SWAP2 SUB SWAP1 REVERT JUMPDEST PUSH0 PUSH2 0x3B7 DUP5 DUP5 DUP1 DUP1 PUSH1 0x1F ADD PUSH1 0x20 DUP1 SWAP2 DIV MUL PUSH1 0x20 ADD PUSH1 0x40 MLOAD SWAP1 DUP2 ADD PUSH1 0x40 MSTORE DUP1 SWAP4 SWAP3 SWAP2 SWAP1 DUP2 DUP2 MSTORE PUSH1 0x20 ADD DUP4 DUP4 DUP1 DUP3 DUP5 CALLDATACOPY PUSH0 DUP2 DUP5 ADD MSTORE PUSH1 0x1F NOT PUSH1 0x1F DUP3 ADD AND SWAP1 POP DUP1 DUP4 ADD SWAP3 POP POP POP POP POP POP POP PUSH0 PUSH2 0xA5C JUMP JUMPDEST SWAP1 POP PUSH2 0x3C4 DUP7 DUP7 DUP4 PUSH2 0xEC4 JUMP JUMPDEST PUSH4 0x150B7A02 PUSH1 0xE0 SHL SWAP2 POP POP SWAP6 SWAP5 POP POP POP POP POP JUMP JUMPDEST PUSH1 0x2 PUSH1 0x20 MSTORE DUP1 PUSH0 MSTORE PUSH1 0x40 PUSH0 KECCAK256 PUSH0 SWAP2 POP SWAP1 POP DUP1 PUSH0 ADD PUSH0 SWAP1 SLOAD SWAP1 PUSH2 0x100 EXP SWAP1 DIV PUSH20 0xFFFFFFFFFFFFFFFFFFFFFFFFFFFFFFFFFFFFFFFF AND SWAP1 DUP1 PUSH1 0x1 ADD SLOAD SWAP1 DUP1 PUSH1 0x2 ADD SLOAD SWAP1 POP DUP4 JUMP JUMPDEST PUSH2 0x426 DUP2 PUSH2 0xE5A JUMP JUMPDEST PUSH2 0x465 JUMPI PUSH1 0x40 MLOAD PUSH32 0x8C379A000000000000000000000000000000000000000000000000000000000 DUP2 MSTORE PUSH1 0x4 ADD PUSH2 0x45C SWAP1 PUSH2 0x19E2 JUMP JUMPDEST PUSH1 0x40 MLOAD DUP1 SWAP2 SUB SWAP1 REVERT JUMPDEST PUSH0 PUSH1 0x2 PUSH0 DUP4 DUP2 MSTORE PUSH1 0x20 ADD SWAP1 DUP2 MSTORE PUSH1 0x20 ADD PUSH0 KECCAK256 PUSH0 ADD PUSH0 SWAP1 SLOAD SWAP1 PUSH2 0x100 EXP SWAP1 DIV PUSH20 0xFFFFFFFFFFFFFFFFFFFFFFFFFFFFFFFFFFFFFFFF AND SWAP1 POP CALLER PUSH20 0xFFFFFFFFFFFFFFFFFFFFFFFFFFFFFFFFFFFFFFFF AND DUP2 PUSH20 0xFFFFFFFFFFFFFFFFFFFFFFFFFFFFFFFFFFFFFFFF AND EQ PUSH2 0x509 JUMPI PUSH1 0x40 MLOAD PUSH32 0x8C379A000000000000000000000000000000000000000000000000000000000 DUP2 MSTORE PUSH1 0x4 ADD PUSH2 0x500 SWAP1 PUSH2 0x1A4A JUMP JUMPDEST PUSH1 0x40 MLOAD DUP1 SWAP2 SUB SWAP1 REVERT JUMPDEST PUSH1 0x1 PUSH0 SWAP1 SLOAD SWAP1 PUSH2 0x100 EXP SWAP1 DIV PUSH20 0xFFFFFFFFFFFFFFFFFFFFFFFFFFFFFFFFFFFFFFFF AND PUSH20 0xFFFFFFFFFFFFFFFFFFFFFFFFFFFFFFFFFFFFFFFF AND PUSH4 0x42842E0E ADDRESS DUP4 DUP6 PUSH1 0x40 MLOAD DUP5 PUSH4 0xFFFFFFFF AND PUSH1 0xE0 SHL DUP2 MSTORE PUSH1 0x4 ADD PUSH2 0x567 SWAP4 SWAP3 SWAP2 SWAP1 PUSH2 0x1A68 JUMP JUMPDEST PUSH0 PUSH1 0x40 MLOAD DUP1 DUP4 SUB DUP2 PUSH0 DUP8 DUP1 EXTCODESIZE ISZERO DUP1 ISZERO PUSH2 0x57E JUMPI PUSH0 DUP1 REVERT JUMPDEST POP GAS CALL ISZERO DUP1 ISZERO PUSH2 0x590 JUMPI RETURNDATASIZE PUSH0 DUP1 RETURNDATACOPY RETURNDATASIZE PUSH0 REVERT JUMPDEST POP POP POP POP PUSH2 0x59D DUP3 PUSH2 0x10A2 JUMP JUMPDEST PUSH32 0xC0E68D6B69F741C21E955CAD2AE4D505B6F6735C7E7B278251B3F6283A5F07EB DUP2 DUP4 PUSH1 0x40 MLOAD PUSH2 0x5CE SWAP3 SWAP2 SWAP1 PUSH2 0x1A9D JUMP JUMPDEST PUSH1 0x40 MLOAD DUP1 SWAP2 SUB SWAP1 LOG1 POP POP JUMP JUMPDEST PUSH1 0x60 PUSH0 PUSH1 0x3 DUP1 SLOAD SWAP1 POP PUSH8 0xFFFFFFFFFFFFFFFF DUP2 GT ISZERO PUSH2 0x5FC JUMPI PUSH2 0x5FB PUSH2 0x1736 JUMP JUMPDEST JUMPDEST PUSH1 0x40 MLOAD SWAP1 DUP1 DUP3 MSTORE DUP1 PUSH1 0x20 MUL PUSH1 0x20 ADD DUP3 ADD PUSH1 0x40 MSTORE DUP1 ISZERO PUSH2 0x635 JUMPI DUP2 PUSH1 0x20 ADD JUMPDEST PUSH2 0x622 PUSH2 0x12A9 JUMP JUMPDEST DUP2 MSTORE PUSH1 0x20 ADD SWAP1 PUSH1 0x1 SWAP1 SUB SWAP1 DUP2 PUSH2 0x61A JUMPI SWAP1 POP JUMPDEST POP SWAP1 POP PUSH0 DUP1 JUMPDEST PUSH1 0x3 DUP1 SLOAD SWAP1 POP DUP2 LT ISZERO PUSH2 0x789 JUMPI CALLER PUSH20 0xFFFFFFFFFFFFFFFFFFFFFFFFFFFFFFFFFFFFFFFF AND PUSH1 0x3 DUP3 DUP2 SLOAD DUP2 LT PUSH2 0x673 JUMPI PUSH2 0x672 PUSH2 0x1AC4 JUMP JUMPDEST JUMPDEST SWAP1 PUSH0 MSTORE PUSH1 0x20 PUSH0 KECCAK256 SWAP1 PUSH1 0x3 MUL ADD PUSH0 ADD PUSH0 SWAP1 SLOAD SWAP1 PUSH2 0x100 EXP SWAP1 DIV PUSH20 0xFFFFFFFFFFFFFFFFFFFFFFFFFFFFFFFFFFFFFFFF AND PUSH20 0xFFFFFFFFFFFFFFFFFFFFFFFFFFFFFFFFFFFFFFFF AND SUB PUSH2 0x77C JUMPI PUSH1 0x3 DUP2 DUP2 SLOAD DUP2 LT PUSH2 0x6D0 JUMPI PUSH2 0x6CF PUSH2 0x1AC4 JUMP JUMPDEST JUMPDEST SWAP1 PUSH0 MSTORE PUSH1 0x20 PUSH0 KECCAK256 SWAP1 PUSH1 0x3 MUL ADD PUSH1 0x40 MLOAD DUP1 PUSH1 0x60 ADD PUSH1 0x40 MSTORE SWAP1 DUP2 PUSH0 DUP3 ADD PUSH0 SWAP1 SLOAD SWAP1 PUSH2 0x100 EXP SWAP1 DIV PUSH20 0xFFFFFFFFFFFFFFFFFFFFFFFFFFFFFFFFFFFFFFFF AND PUSH20 0xFFFFFFFFFFFFFFFFFFFFFFFFFFFFFFFFFFFFFFFF AND PUSH20 0xFFFFFFFFFFFFFFFFFFFFFFFFFFFFFFFFFFFFFFFF AND DUP2 MSTORE PUSH1 0x20 ADD PUSH1 0x1 DUP3 ADD SLOAD DUP2 MSTORE PUSH1 0x20 ADD PUSH1 0x2 DUP3 ADD SLOAD DUP2 MSTORE POP POP DUP4 DUP4 DUP2 MLOAD DUP2 LT PUSH2 0x762 JUMPI PUSH2 0x761 PUSH2 0x1AC4 JUMP JUMPDEST JUMPDEST PUSH1 0x20 MUL PUSH1 0x20 ADD ADD DUP2 SWAP1 MSTORE POP DUP2 DUP1 PUSH2 0x778 SWAP1 PUSH2 0x1B1E JUMP JUMPDEST SWAP3 POP POP JUMPDEST DUP1 DUP1 PUSH1 0x1 ADD SWAP2 POP POP PUSH2 0x63B JUMP JUMPDEST POP PUSH0 DUP2 PUSH8 0xFFFFFFFFFFFFFFFF DUP2 GT ISZERO PUSH2 0x7A5 JUMPI PUSH2 0x7A4 PUSH2 0x1736 JUMP JUMPDEST JUMPDEST PUSH1 0x40 MLOAD SWAP1 DUP1 DUP3 MSTORE DUP1 PUSH1 0x20 MUL PUSH1 0x20 ADD DUP3 ADD PUSH1 0x40 MSTORE DUP1 ISZERO PUSH2 0x7DE JUMPI DUP2 PUSH1 0x20 ADD JUMPDEST PUSH2 0x7CB PUSH2 0x12A9 JUMP JUMPDEST DUP2 MSTORE PUSH1 0x20 ADD SWAP1 PUSH1 0x1 SWAP1 SUB SWAP1 DUP2 PUSH2 0x7C3 JUMPI SWAP1 POP JUMPDEST POP SWAP1 POP PUSH0 JUMPDEST DUP3 DUP2 LT ISZERO PUSH2 0x831 JUMPI DUP4 DUP2 DUP2 MLOAD DUP2 LT PUSH2 0x7FE JUMPI PUSH2 0x7FD PUSH2 0x1AC4 JUMP JUMPDEST JUMPDEST PUSH1 0x20 MUL PUSH1 0x20 ADD ADD MLOAD DUP3 DUP3 DUP2 MLOAD DUP2 LT PUSH2 0x819 JUMPI PUSH2 0x818 PUSH2 0x1AC4 JUMP JUMPDEST JUMPDEST PUSH1 0x20 MUL PUSH1 0x20 ADD ADD DUP2 SWAP1 MSTORE POP DUP1 DUP1 PUSH1 0x1 ADD SWAP2 POP POP PUSH2 0x7E3 JUMP JUMPDEST POP DUP1 SWAP4 POP POP POP POP SWAP1 JUMP JUMPDEST PUSH0 DUP1 SLOAD SWAP1 PUSH2 0x100 EXP SWAP1 DIV PUSH20 0xFFFFFFFFFFFFFFFFFFFFFFFFFFFFFFFFFFFFFFFF AND DUP2 JUMP JUMPDEST PUSH0 PUSH1 0x3 DUP1 SLOAD SWAP1 POP SWAP1 POP SWAP1 JUMP JUMPDEST PUSH1 0x3 DUP2 DUP2 SLOAD DUP2 LT PUSH2 0x879 JUMPI PUSH0 DUP1 REVERT JUMPDEST SWAP1 PUSH0 MSTORE PUSH1 0x20 PUSH0 KECCAK256 SWAP1 PUSH1 0x3 MUL ADD PUSH0 SWAP2 POP SWAP1 POP DUP1 PUSH0 ADD PUSH0 SWAP1 SLOAD SWAP1 PUSH2 0x100 EXP SWAP1 DIV PUSH20 0xFFFFFFFFFFFFFFFFFFFFFFFFFFFFFFFFFFFFFFFF AND SWAP1 DUP1 PUSH1 0x1 ADD SLOAD SWAP1 DUP1 PUSH1 0x2 ADD SLOAD SWAP1 POP DUP4 JUMP JUMPDEST PUSH2 0x8C7 DUP3 PUSH2 0xE5A JUMP JUMPDEST PUSH2 0x906 JUMPI PUSH1 0x40 MLOAD PUSH32 0x8C379A000000000000000000000000000000000000000000000000000000000 DUP2 MSTORE PUSH1 0x4 ADD PUSH2 0x8FD SWAP1 PUSH2 0x19E2 JUMP JUMPDEST PUSH1 0x40 MLOAD DUP1 SWAP2 SUB SWAP1 REVERT JUMPDEST PUSH0 PUSH1 0x2 PUSH0 DUP5 DUP2 MSTORE PUSH1 0x20 ADD SWAP1 DUP2 MSTORE PUSH1 0x20 ADD PUSH0 KECCAK256 PUSH0 ADD PUSH0 SWAP1 SLOAD SWAP1 PUSH2 0x100 EXP SWAP1 DIV PUSH20 0xFFFFFFFFFFFFFFFFFFFFFFFFFFFFFFFFFFFFFFFF AND SWAP1 POP CALLER PUSH20 0xFFFFFFFFFFFFFFFFFFFFFFFFFFFFFFFFFFFFFFFF AND DUP2 PUSH20 0xFFFFFFFFFFFFFFFFFFFFFFFFFFFFFFFFFFFFFFFF AND EQ PUSH2 0x9AA JUMPI PUSH1 0x40 MLOAD PUSH32 0x8C379A000000000000000000000000000000000000000000000000000000000 DUP2 MSTORE PUSH1 0x4 ADD PUSH2 0x9A1 SWAP1 PUSH2 0x1A4A JUMP JUMPDEST PUSH1 0x40 MLOAD DUP1 SWAP2 SUB SWAP1 REVERT JUMPDEST PUSH0 PUSH1 0x2 PUSH0 DUP6 DUP2 MSTORE PUSH1 0x20 ADD SWAP1 DUP2 MSTORE PUSH1 0x20 ADD PUSH0 KECCAK256 PUSH1 0x2 ADD SLOAD SWAP1 POP DUP3 PUSH1 0x2 PUSH0 DUP7 DUP2 MSTORE PUSH1 0x20 ADD SWAP1 DUP2 MSTORE PUSH1 0x20 ADD PUSH0 KECCAK256 PUSH1 0x2 ADD DUP2 SWAP1 SSTORE POP PUSH0 PUSH1 0x3 PUSH1 0x4 PUSH0 DUP8 DUP2 MSTORE PUSH1 0x20 ADD SWAP1 DUP2 MSTORE PUSH1 0x20 ADD PUSH0 KECCAK256 SLOAD DUP2 SLOAD DUP2 LT PUSH2 0xA01 JUMPI PUSH2 0xA00 PUSH2 0x1AC4 JUMP JUMPDEST JUMPDEST SWAP1 PUSH0 MSTORE PUSH1 0x20 PUSH0 KECCAK256 SWAP1 PUSH1 0x3 MUL ADD SWAP1 POP DUP4 DUP2 PUSH1 0x2 ADD DUP2 SWAP1 SSTORE POP PUSH32 0x342A7F6248980B0F191B96EB6B7A439C4DA78B2C97B86CA66CC7EE90D4B04CCE DUP4 DUP7 DUP5 DUP8 PUSH1 0x40 MLOAD PUSH2 0xA4D SWAP5 SWAP4 SWAP3 SWAP2 SWAP1 PUSH2 0x1B65 JUMP JUMPDEST PUSH1 0x40 MLOAD DUP1 SWAP2 SUB SWAP1 LOG1 POP POP POP POP POP JUMP JUMPDEST PUSH0 DUP2 PUSH1 0x20 DUP4 PUSH2 0xA6B SWAP2 SWAP1 PUSH2 0x1BA8 JUMP JUMPDEST LT ISZERO PUSH2 0xAAC JUMPI PUSH1 0x40 MLOAD PUSH32 0x8C379A000000000000000000000000000000000000000000000000000000000 DUP2 MSTORE PUSH1 0x4 ADD PUSH2 0xAA3 SWAP1 PUSH2 0x1C25 JUMP JUMPDEST PUSH1 0x40 MLOAD DUP1 SWAP2 SUB SWAP1 REVERT JUMPDEST PUSH1 0x20 DUP3 PUSH2 0xAB9 SWAP2 SWAP1 PUSH2 0x1BA8 JUMP JUMPDEST DUP4 MLOAD LT ISZERO PUSH2 0xAFC JUMPI PUSH1 0x40 MLOAD PUSH32 0x8C379A000000000000000000000000000000000000000000000000000000000 DUP2 MSTORE PUSH1 0x4 ADD PUSH2 0xAF3 SWAP1 PUSH2 0x1C8D JUMP JUMPDEST PUSH1 0x40 MLOAD DUP1 SWAP2 SUB SWAP1 REVERT JUMPDEST PUSH0 DUP3 PUSH1 0x20 DUP6 ADD ADD MLOAD SWAP1 POP DUP1 SWAP2 POP POP SWAP3 SWAP2 POP POP JUMP JUMPDEST PUSH1 0x1 PUSH0 SWAP1 SLOAD SWAP1 PUSH2 0x100 EXP SWAP1 DIV PUSH20 0xFFFFFFFFFFFFFFFFFFFFFFFFFFFFFFFFFFFFFFFF AND DUP2 JUMP JUMPDEST PUSH2 0xB3E DUP2 PUSH2 0xE5A JUMP JUMPDEST PUSH2 0xB7D JUMPI PUSH1 0x40 MLOAD PUSH32 0x8C379A000000000000000000000000000000000000000000000000000000000 DUP2 MSTORE PUSH1 0x4 ADD PUSH2 0xB74 SWAP1 PUSH2 0x19E2 JUMP JUMPDEST PUSH1 0x40 MLOAD DUP1 SWAP2 SUB SWAP1 REVERT JUMPDEST PUSH0 PUSH1 0x2 PUSH0 DUP4 DUP2 MSTORE PUSH1 0x20 ADD SWAP1 DUP2 MSTORE PUSH1 0x20 ADD PUSH0 KECCAK256 PUSH0 ADD PUSH0 SWAP1 SLOAD SWAP1 PUSH2 0x100 EXP SWAP1 DIV PUSH20 0xFFFFFFFFFFFFFFFFFFFFFFFFFFFFFFFFFFFFFFFF AND SWAP1 POP PUSH0 CALLER SWAP1 POP PUSH0 PUSH1 0x2 PUSH0 DUP6 DUP2 MSTORE PUSH1 0x20 ADD SWAP1 DUP2 MSTORE PUSH1 0x20 ADD PUSH0 KECCAK256 PUSH1 0x2 ADD SLOAD SWAP1 POP PUSH0 DUP1 SLOAD SWAP1 PUSH2 0x100 EXP SWAP1 DIV PUSH20 0xFFFFFFFFFFFFFFFFFFFFFFFFFFFFFFFFFFFFFFFF AND PUSH20 0xFFFFFFFFFFFFFFFFFFFFFFFFFFFFFFFFFFFFFFFF AND PUSH4 0x23B872DD DUP4 DUP6 DUP5 PUSH1 0x40 MLOAD DUP5 PUSH4 0xFFFFFFFF AND PUSH1 0xE0 SHL DUP2 MSTORE PUSH1 0x4 ADD PUSH2 0xC2B SWAP4 SWAP3 SWAP2 SWAP1 PUSH2 0x1A68 JUMP JUMPDEST PUSH1 0x20 PUSH1 0x40 MLOAD DUP1 DUP4 SUB DUP2 PUSH0 DUP8 GAS CALL ISZERO DUP1 ISZERO PUSH2 0xC47 JUMPI RETURNDATASIZE PUSH0 DUP1 RETURNDATACOPY RETURNDATASIZE PUSH0 REVERT JUMPDEST POP POP POP POP PUSH1 0x40 MLOAD RETURNDATASIZE PUSH1 0x1F NOT PUSH1 0x1F DUP3 ADD AND DUP3 ADD DUP1 PUSH1 0x40 MSTORE POP DUP2 ADD SWAP1 PUSH2 0xC6B SWAP2 SWAP1 PUSH2 0x1CD5 JUMP JUMPDEST PUSH2 0xCAA JUMPI PUSH1 0x40 MLOAD PUSH32 0x8C379A000000000000000000000000000000000000000000000000000000000 DUP2 MSTORE PUSH1 0x4 ADD PUSH2 0xCA1 SWAP1 PUSH2 0x1D70 JUMP JUMPDEST PUSH1 0x40 MLOAD DUP1 SWAP2 SUB SWAP1 REVERT JUMPDEST PUSH1 0x1 PUSH0 SWAP1 SLOAD SWAP1 PUSH2 0x100 EXP SWAP1 DIV PUSH20 0xFFFFFFFFFFFFFFFFFFFFFFFFFFFFFFFFFFFFFFFF AND PUSH20 0xFFFFFFFFFFFFFFFFFFFFFFFFFFFFFFFFFFFFFFFF AND PUSH4 0x42842E0E ADDRESS DUP5 DUP8 PUSH1 0x40 MLOAD DUP5 PUSH4 0xFFFFFFFF AND PUSH1 0xE0 SHL DUP2 MSTORE PUSH1 0x4 ADD PUSH2 0xD08 SWAP4 SWAP3 SWAP2 SWAP1 PUSH2 0x1A68 JUMP JUMPDEST PUSH0 PUSH1 0x40 MLOAD DUP1 DUP4 SUB DUP2 PUSH0 DUP8 DUP1 EXTCODESIZE ISZERO DUP1 ISZERO PUSH2 0xD1F JUMPI PUSH0 DUP1 REVERT JUMPDEST POP GAS CALL ISZERO DUP1 ISZERO PUSH2 0xD31 JUMPI RETURNDATASIZE PUSH0 DUP1 RETURNDATACOPY RETURNDATASIZE PUSH0 REVERT JUMPDEST POP POP POP POP PUSH2 0xD3E DUP5 PUSH2 0x10A2 JUMP JUMPDEST PUSH32 0x424D5E5F0192C7DACDBE646CA31B00299146D883D76A95EF5CDDBAC7CD342EAB DUP3 DUP5 DUP7 DUP5 PUSH1 0x40 MLOAD PUSH2 0xD73 SWAP5 SWAP4 SWAP3 SWAP2 SWAP1 PUSH2 0x1D8E JUMP JUMPDEST PUSH1 0x40 MLOAD DUP1 SWAP2 SUB SWAP1 LOG1 POP POP POP POP JUMP JUMPDEST PUSH1 0x4 PUSH1 0x20 MSTORE DUP1 PUSH0 MSTORE PUSH1 0x40 PUSH0 KECCAK256 PUSH0 SWAP2 POP SWAP1 POP SLOAD DUP2 JUMP JUMPDEST PUSH1 0x60 PUSH1 0x3 DUP1 SLOAD DUP1 PUSH1 0x20 MUL PUSH1 0x20 ADD PUSH1 0x40 MLOAD SWAP1 DUP2 ADD PUSH1 0x40 MSTORE DUP1 SWAP3 SWAP2 SWAP1 DUP2 DUP2 MSTORE PUSH1 0x20 ADD PUSH0 SWAP1 JUMPDEST DUP3 DUP3 LT ISZERO PUSH2 0xE51 JUMPI DUP4 DUP3 SWAP1 PUSH0 MSTORE PUSH1 0x20 PUSH0 KECCAK256 SWAP1 PUSH1 0x3 MUL ADD PUSH1 0x40 MLOAD DUP1 PUSH1 0x60 ADD PUSH1 0x40 MSTORE SWAP1 DUP2 PUSH0 DUP3 ADD PUSH0 SWAP1 SLOAD SWAP1 PUSH2 0x100 EXP SWAP1 DIV PUSH20 0xFFFFFFFFFFFFFFFFFFFFFFFFFFFFFFFFFFFFFFFF AND PUSH20 0xFFFFFFFFFFFFFFFFFFFFFFFFFFFFFFFFFFFFFFFF AND PUSH20 0xFFFFFFFFFFFFFFFFFFFFFFFFFFFFFFFFFFFFFFFF AND DUP2 MSTORE PUSH1 0x20 ADD PUSH1 0x1 DUP3 ADD SLOAD DUP2 MSTORE PUSH1 0x20 ADD PUSH1 0x2 DUP3 ADD SLOAD DUP2 MSTORE POP POP DUP2 MSTORE PUSH1 0x20 ADD SWAP1 PUSH1 0x1 ADD SWAP1 PUSH2 0xDB9 JUMP JUMPDEST POP POP POP POP SWAP1 POP SWAP1 JUMP JUMPDEST PUSH0 DUP1 PUSH20 0xFFFFFFFFFFFFFFFFFFFFFFFFFFFFFFFFFFFFFFFF AND PUSH1 0x2 PUSH0 DUP5 DUP2 MSTORE PUSH1 0x20 ADD SWAP1 DUP2 MSTORE PUSH1 0x20 ADD PUSH0 KECCAK256 PUSH0 ADD PUSH0 SWAP1 SLOAD SWAP1 PUSH2 0x100 EXP SWAP1 DIV PUSH20 0xFFFFFFFFFFFFFFFFFFFFFFFFFFFFFFFFFFFFFFFF AND PUSH20 0xFFFFFFFFFFFFFFFFFFFFFFFFFFFFFFFFFFFFFFFF AND EQ ISZERO SWAP1 POP SWAP2 SWAP1 POP JUMP JUMPDEST PUSH0 DUP2 GT PUSH2 0xF06 JUMPI PUSH1 0x40 MLOAD PUSH32 0x8C379A000000000000000000000000000000000000000000000000000000000 DUP2 MSTORE PUSH1 0x4 ADD PUSH2 0xEFD SWAP1 PUSH2 0x1E41 JUMP JUMPDEST PUSH1 0x40 MLOAD DUP1 SWAP2 SUB SWAP1 REVERT JUMPDEST DUP3 PUSH1 0x2 PUSH0 DUP5 DUP2 MSTORE PUSH1 0x20 ADD SWAP1 DUP2 MSTORE PUSH1 0x20 ADD PUSH0 KECCAK256 PUSH0 ADD PUSH0 PUSH2 0x100 EXP DUP2 SLOAD DUP2 PUSH20 0xFFFFFFFFFFFFFFFFFFFFFFFFFFFFFFFFFFFFFFFF MUL NOT AND SWAP1 DUP4 PUSH20 0xFFFFFFFFFFFFFFFFFFFFFFFFFFFFFFFFFFFFFFFF AND MUL OR SWAP1 SSTORE POP DUP1 PUSH1 0x2 PUSH0 DUP5 DUP2 MSTORE PUSH1 0x20 ADD SWAP1 DUP2 MSTORE PUSH1 0x20 ADD PUSH0 KECCAK256 PUSH1 0x2 ADD DUP2 SWAP1 SSTORE POP DUP2 PUSH1 0x2 PUSH0 DUP5 DUP2 MSTORE PUSH1 0x20 ADD SWAP1 DUP2 MSTORE PUSH1 0x20 ADD PUSH0 KECCAK256 PUSH1 0x1 ADD DUP2 SWAP1 SSTORE POP PUSH1 0x3 PUSH1 0x2 PUSH0 DUP5 DUP2 MSTORE PUSH1 0x20 ADD SWAP1 DUP2 MSTORE PUSH1 0x20 ADD PUSH0 KECCAK256 SWAP1 DUP1 PUSH1 0x1 DUP2 SLOAD ADD DUP1 DUP3 SSTORE DUP1 SWAP2 POP POP PUSH1 0x1 SWAP1 SUB SWAP1 PUSH0 MSTORE PUSH1 0x20 PUSH0 KECCAK256 SWAP1 PUSH1 0x3 MUL ADD PUSH0 SWAP1 SWAP2 SWAP1 SWAP2 SWAP1 SWAP2 POP PUSH0 DUP3 ADD PUSH0 SWAP1 SLOAD SWAP1 PUSH2 0x100 EXP SWAP1 DIV PUSH20 0xFFFFFFFFFFFFFFFFFFFFFFFFFFFFFFFFFFFFFFFF AND DUP2 PUSH0 ADD PUSH0 PUSH2 0x100 EXP DUP2 SLOAD DUP2 PUSH20 0xFFFFFFFFFFFFFFFFFFFFFFFFFFFFFFFFFFFFFFFF MUL NOT AND SWAP1 DUP4 PUSH20 0xFFFFFFFFFFFFFFFFFFFFFFFFFFFFFFFFFFFFFFFF AND MUL OR SWAP1 SSTORE POP PUSH1 0x1 DUP3 ADD SLOAD DUP2 PUSH1 0x1 ADD SSTORE PUSH1 0x2 DUP3 ADD SLOAD DUP2 PUSH1 0x2 ADD SSTORE POP POP PUSH1 0x1 PUSH1 0x3 DUP1 SLOAD SWAP1 POP PUSH2 0x104D SWAP2 SWAP1 PUSH2 0x1E5F JUMP JUMPDEST PUSH1 0x4 PUSH0 DUP5 DUP2 MSTORE PUSH1 0x20 ADD SWAP1 DUP2 MSTORE PUSH1 0x20 ADD PUSH0 KECCAK256 DUP2 SWAP1 SSTORE POP PUSH32 0xD5B509E657D5EC37AE4BDCAB658B7340C0453BB630516D26623359A34C1CECF3 DUP4 DUP4 DUP4 PUSH1 0x40 MLOAD PUSH2 0x1095 SWAP4 SWAP3 SWAP2 SWAP1 PUSH2 0x14FC JUMP JUMPDEST PUSH1 0x40 MLOAD DUP1 SWAP2 SUB SWAP1 LOG1 POP POP POP JUMP JUMPDEST PUSH1 0x2 PUSH0 DUP3 DUP2 MSTORE PUSH1 0x20 ADD SWAP1 DUP2 MSTORE PUSH1 0x20 ADD PUSH0 KECCAK256 PUSH0 DUP1 DUP3 ADD PUSH0 PUSH2 0x100 EXP DUP2 SLOAD SWAP1 PUSH20 0xFFFFFFFFFFFFFFFFFFFFFFFFFFFFFFFFFFFFFFFF MUL NOT AND SWAP1 SSTORE PUSH1 0x1 DUP3 ADD PUSH0 SWAP1 SSTORE PUSH1 0x2 DUP3 ADD PUSH0 SWAP1 SSTORE POP POP PUSH0 PUSH1 0x4 PUSH0 DUP4 DUP2 MSTORE PUSH1 0x20 ADD SWAP1 DUP2 MSTORE PUSH1 0x20 ADD PUSH0 KECCAK256 SLOAD SWAP1 POP PUSH0 PUSH1 0x1 PUSH1 0x3 DUP1 SLOAD SWAP1 POP PUSH2 0x1111 SWAP2 SWAP1 PUSH2 0x1E5F JUMP JUMPDEST SWAP1 POP DUP2 DUP2 EQ PUSH2 0x1248 JUMPI PUSH0 PUSH1 0x3 DUP3 DUP2 SLOAD DUP2 LT PUSH2 0x112F JUMPI PUSH2 0x112E PUSH2 0x1AC4 JUMP JUMPDEST JUMPDEST SWAP1 PUSH0 MSTORE PUSH1 0x20 PUSH0 KECCAK256 SWAP1 PUSH1 0x3 MUL ADD PUSH1 0x40 MLOAD DUP1 PUSH1 0x60 ADD PUSH1 0x40 MSTORE SWAP1 DUP2 PUSH0 DUP3 ADD PUSH0 SWAP1 SLOAD SWAP1 PUSH2 0x100 EXP SWAP1 DIV PUSH20 0xFFFFFFFFFFFFFFFFFFFFFFFFFFFFFFFFFFFFFFFF AND PUSH20 0xFFFFFFFFFFFFFFFFFFFFFFFFFFFFFFFFFFFFFFFF AND PUSH20 0xFFFFFFFFFFFFFFFFFFFFFFFFFFFFFFFFFFFFFFFF AND DUP2 MSTORE PUSH1 0x20 ADD PUSH1 0x1 DUP3 ADD SLOAD DUP2 MSTORE PUSH1 0x20 ADD PUSH1 0x2 DUP3 ADD SLOAD DUP2 MSTORE POP POP SWAP1 POP DUP1 PUSH1 0x3 DUP5 DUP2 SLOAD DUP2 LT PUSH2 0x11C5 JUMPI PUSH2 0x11C4 PUSH2 0x1AC4 JUMP JUMPDEST JUMPDEST SWAP1 PUSH0 MSTORE PUSH1 0x20 PUSH0 KECCAK256 SWAP1 PUSH1 0x3 MUL ADD PUSH0 DUP3 ADD MLOAD DUP2 PUSH0 ADD PUSH0 PUSH2 0x100 EXP DUP2 SLOAD DUP2 PUSH20 0xFFFFFFFFFFFFFFFFFFFFFFFFFFFFFFFFFFFFFFFF MUL NOT AND SWAP1 DUP4 PUSH20 0xFFFFFFFFFFFFFFFFFFFFFFFFFFFFFFFFFFFFFFFF AND MUL OR SWAP1 SSTORE POP PUSH1 0x20 DUP3 ADD MLOAD DUP2 PUSH1 0x1 ADD SSTORE PUSH1 0x40 DUP3 ADD MLOAD DUP2 PUSH1 0x2 ADD SSTORE SWAP1 POP POP DUP3 PUSH1 0x4 PUSH0 DUP4 PUSH1 0x20 ADD MLOAD DUP2 MSTORE PUSH1 0x20 ADD SWAP1 DUP2 MSTORE PUSH1 0x20 ADD PUSH0 KECCAK256 DUP2 SWAP1 SSTORE POP POP JUMPDEST PUSH1 0x3 DUP1 SLOAD DUP1 PUSH2 0x125A JUMPI PUSH2 0x1259 PUSH2 0x1E92 JUMP JUMPDEST JUMPDEST PUSH1 0x1 SWAP1 SUB DUP2 DUP2 SWAP1 PUSH0 MSTORE PUSH1 0x20 PUSH0 KECCAK256 SWAP1 PUSH1 0x3 MUL ADD PUSH0 DUP1 DUP3 ADD PUSH0 PUSH2 0x100 EXP DUP2 SLOAD SWAP1 PUSH20 0xFFFFFFFFFFFFFFFFFFFFFFFFFFFFFFFFFFFFFFFF MUL NOT AND SWAP1 SSTORE PUSH1 0x1 DUP3 ADD PUSH0 SWAP1 SSTORE PUSH1 0x2 DUP3 ADD PUSH0 SWAP1 SSTORE POP POP SWAP1 SSTORE POP POP POP JUMP JUMPDEST PUSH1 0x40 MLOAD DUP1 PUSH1 0x60 ADD PUSH1 0x40 MSTORE DUP1 PUSH0 PUSH20 0xFFFFFFFFFFFFFFFFFFFFFFFFFFFFFFFFFFFFFFFF AND DUP2 MSTORE PUSH1 0x20 ADD PUSH0 DUP2 MSTORE PUSH1 0x20 ADD PUSH0 DUP2 MSTORE POP SWAP1 JUMP JUMPDEST PUSH0 PUSH1 0x40 MLOAD SWAP1 POP SWAP1 JUMP JUMPDEST PUSH0 DUP1 REVERT JUMPDEST PUSH0 DUP1 REVERT JUMPDEST PUSH0 PUSH20 0xFFFFFFFFFFFFFFFFFFFFFFFFFFFFFFFFFFFFFFFF DUP3 AND SWAP1 POP SWAP2 SWAP1 POP JUMP JUMPDEST PUSH0 PUSH2 0x1317 DUP3 PUSH2 0x12EE JUMP JUMPDEST SWAP1 POP SWAP2 SWAP1 POP JUMP JUMPDEST PUSH2 0x1327 DUP2 PUSH2 0x130D JUMP JUMPDEST DUP2 EQ PUSH2 0x1331 JUMPI PUSH0 DUP1 REVERT JUMPDEST POP JUMP JUMPDEST PUSH0 DUP2 CALLDATALOAD SWAP1 POP PUSH2 0x1342 DUP2 PUSH2 0x131E JUMP JUMPDEST SWAP3 SWAP2 POP POP JUMP JUMPDEST PUSH0 DUP2 SWAP1 POP SWAP2 SWAP1 POP JUMP JUMPDEST PUSH2 0x135A DUP2 PUSH2 0x1348 JUMP JUMPDEST DUP2 EQ PUSH2 0x1364 JUMPI PUSH0 DUP1 REVERT JUMPDEST POP JUMP JUMPDEST PUSH0 DUP2 CALLDATALOAD SWAP1 POP PUSH2 0x1375 DUP2 PUSH2 0x1351 JUMP JUMPDEST SWAP3 SWAP2 POP POP JUMP JUMPDEST PUSH0 DUP1 REVERT JUMPDEST PUSH0 DUP1 REVERT JUMPDEST PUSH0 DUP1 REVERT JUMPDEST PUSH0 DUP1 DUP4 PUSH1 0x1F DUP5 ADD SLT PUSH2 0x139C JUMPI PUSH2 0x139B PUSH2 0x137B JUMP JUMPDEST JUMPDEST DUP3 CALLDATALOAD SWAP1 POP PUSH8 0xFFFFFFFFFFFFFFFF DUP2 GT ISZERO PUSH2 0x13B9 JUMPI PUSH2 0x13B8 PUSH2 0x137F JUMP JUMPDEST JUMPDEST PUSH1 0x20 DUP4 ADD SWAP2 POP DUP4 PUSH1 0x1 DUP3 MUL DUP4 ADD GT ISZERO PUSH2 0x13D5 JUMPI PUSH2 0x13D4 PUSH2 0x1383 JUMP JUMPDEST JUMPDEST SWAP3 POP SWAP3 SWAP1 POP JUMP JUMPDEST PUSH0 DUP1 PUSH0 DUP1 PUSH0 PUSH1 0x80 DUP7 DUP9 SUB SLT ISZERO PUSH2 0x13F5 JUMPI PUSH2 0x13F4 PUSH2 0x12E6 JUMP JUMPDEST JUMPDEST PUSH0 PUSH2 0x1402 DUP9 DUP3 DUP10 ADD PUSH2 0x1334 JUMP JUMPDEST SWAP6 POP POP PUSH1 0x20 PUSH2 0x1413 DUP9 DUP3 DUP10 ADD PUSH2 0x1334 JUMP JUMPDEST SWAP5 POP POP PUSH1 0x40 PUSH2 0x1424 DUP9 DUP3 DUP10 ADD PUSH2 0x1367 JUMP JUMPDEST SWAP4 POP POP PUSH1 0x60 DUP7 ADD CALLDATALOAD PUSH8 0xFFFFFFFFFFFFFFFF DUP2 GT ISZERO PUSH2 0x1445 JUMPI PUSH2 0x1444 PUSH2 0x12EA JUMP JUMPDEST JUMPDEST PUSH2 0x1451 DUP9 DUP3 DUP10 ADD PUSH2 0x1387 JUMP JUMPDEST SWAP3 POP SWAP3 POP POP SWAP3 SWAP6 POP SWAP3 SWAP6 SWAP1 SWAP4 POP JUMP JUMPDEST PUSH0 PUSH32 0xFFFFFFFF00000000000000000000000000000000000000000000000000000000 DUP3 AND SWAP1 POP SWAP2 SWAP1 POP JUMP JUMPDEST PUSH2 0x1494 DUP2 PUSH2 0x1460 JUMP JUMPDEST DUP3 MSTORE POP POP JUMP JUMPDEST PUSH0 PUSH1 0x20 DUP3 ADD SWAP1 POP PUSH2 0x14AD PUSH0 DUP4 ADD DUP5 PUSH2 0x148B JUMP JUMPDEST SWAP3 SWAP2 POP POP JUMP JUMPDEST PUSH0 PUSH1 0x20 DUP3 DUP5 SUB SLT ISZERO PUSH2 0x14C8 JUMPI PUSH2 0x14C7 PUSH2 0x12E6 JUMP JUMPDEST JUMPDEST PUSH0 PUSH2 0x14D5 DUP5 DUP3 DUP6 ADD PUSH2 0x1367 JUMP JUMPDEST SWAP2 POP POP SWAP3 SWAP2 POP POP JUMP JUMPDEST PUSH2 0x14E7 DUP2 PUSH2 0x130D JUMP JUMPDEST DUP3 MSTORE POP POP JUMP JUMPDEST PUSH2 0x14F6 DUP2 PUSH2 0x1348 JUMP JUMPDEST DUP3 MSTORE POP POP JUMP JUMPDEST PUSH0 PUSH1 0x60 DUP3 ADD SWAP1 POP PUSH2 0x150F PUSH0 DUP4 ADD DUP7 PUSH2 0x14DE JUMP JUMPDEST PUSH2 0x151C PUSH1 0x20 DUP4 ADD DUP6 PUSH2 0x14ED JUMP JUMPDEST PUSH2 0x1529 PUSH1 0x40 DUP4 ADD DUP5 PUSH2 0x14ED JUMP JUMPDEST SWAP5 SWAP4 POP POP POP POP JUMP JUMPDEST PUSH0 DUP2 MLOAD SWAP1 POP SWAP2 SWAP1 POP JUMP JUMPDEST PUSH0 DUP3 DUP3 MSTORE PUSH1 0x20 DUP3 ADD SWAP1 POP SWAP3 SWAP2 POP POP JUMP JUMPDEST PUSH0 DUP2 SWAP1 POP PUSH1 0x20 DUP3 ADD SWAP1 POP SWAP2 SWAP1 POP JUMP JUMPDEST PUSH2 0x1563 DUP2 PUSH2 0x130D JUMP JUMPDEST DUP3 MSTORE POP POP JUMP JUMPDEST PUSH2 0x1572 DUP2 PUSH2 0x1348 JUMP JUMPDEST DUP3 MSTORE POP POP JUMP JUMPDEST PUSH1 0x60 DUP3 ADD PUSH0 DUP3 ADD MLOAD PUSH2 0x158C PUSH0 DUP6 ADD DUP3 PUSH2 0x155A JUMP JUMPDEST POP PUSH1 0x20 DUP3 ADD MLOAD PUSH2 0x159F PUSH1 0x20 DUP6 ADD DUP3 PUSH2 0x1569 JUMP JUMPDEST POP PUSH1 0x40 DUP3 ADD MLOAD PUSH2 0x15B2 PUSH1 0x40 DUP6 ADD DUP3 PUSH2 0x1569 JUMP JUMPDEST POP POP POP POP JUMP JUMPDEST PUSH0 PUSH2 0x15C3 DUP4 DUP4 PUSH2 0x1578 JUMP JUMPDEST PUSH1 0x60 DUP4 ADD SWAP1 POP SWAP3 SWAP2 POP POP JUMP JUMPDEST PUSH0 PUSH1 0x20 DUP3 ADD SWAP1 POP SWAP2 SWAP1 POP JUMP JUMPDEST PUSH0 PUSH2 0x15E5 DUP3 PUSH2 0x1531 JUMP JUMPDEST PUSH2 0x15EF DUP2 DUP6 PUSH2 0x153B JUMP JUMPDEST SWAP4 POP PUSH2 0x15FA DUP4 PUSH2 0x154B JUMP JUMPDEST DUP1 PUSH0 JUMPDEST DUP4 DUP2 LT ISZERO PUSH2 0x162A JUMPI DUP2 MLOAD PUSH2 0x1611 DUP9 DUP3 PUSH2 0x15B8 JUMP JUMPDEST SWAP8 POP PUSH2 0x161C DUP4 PUSH2 0x15CF JUMP JUMPDEST SWAP3 POP POP PUSH1 0x1 DUP2 ADD SWAP1 POP PUSH2 0x15FD JUMP JUMPDEST POP DUP6 SWAP4 POP POP POP POP SWAP3 SWAP2 POP POP JUMP JUMPDEST PUSH0 PUSH1 0x20 DUP3 ADD SWAP1 POP DUP2 DUP2 SUB PUSH0 DUP4 ADD MSTORE PUSH2 0x164F DUP2 DUP5 PUSH2 0x15DB JUMP JUMPDEST SWAP1 POP SWAP3 SWAP2 POP POP JUMP JUMPDEST PUSH0 DUP2 SWAP1 POP SWAP2 SWAP1 POP JUMP JUMPDEST PUSH0 PUSH2 0x167A PUSH2 0x1675 PUSH2 0x1670 DUP5 PUSH2 0x12EE JUMP JUMPDEST PUSH2 0x1657 JUMP JUMPDEST PUSH2 0x12EE JUMP JUMPDEST SWAP1 POP SWAP2 SWAP1 POP JUMP JUMPDEST PUSH0 PUSH2 0x168B DUP3 PUSH2 0x1660 JUMP JUMPDEST SWAP1 POP SWAP2 SWAP1 POP JUMP JUMPDEST PUSH0 PUSH2 0x169C DUP3 PUSH2 0x1681 JUMP JUMPDEST SWAP1 POP SWAP2 SWAP1 POP JUMP JUMPDEST PUSH2 0x16AC DUP2 PUSH2 0x1692 JUMP JUMPDEST DUP3 MSTORE POP POP JUMP JUMPDEST PUSH0 PUSH1 0x20 DUP3 ADD SWAP1 POP PUSH2 0x16C5 PUSH0 DUP4 ADD DUP5 PUSH2 0x16A3 JUMP JUMPDEST SWAP3 SWAP2 POP POP JUMP JUMPDEST PUSH0 PUSH1 0x20 DUP3 ADD SWAP1 POP PUSH2 0x16DE PUSH0 DUP4 ADD DUP5 PUSH2 0x14ED JUMP JUMPDEST SWAP3 SWAP2 POP POP JUMP JUMPDEST PUSH0 DUP1 PUSH1 0x40 DUP4 DUP6 SUB SLT ISZERO PUSH2 0x16FA JUMPI PUSH2 0x16F9 PUSH2 0x12E6 JUMP JUMPDEST JUMPDEST PUSH0 PUSH2 0x1707 DUP6 DUP3 DUP7 ADD PUSH2 0x1367 JUMP JUMPDEST SWAP3 POP POP PUSH1 0x20 PUSH2 0x1718 DUP6 DUP3 DUP7 ADD PUSH2 0x1367 JUMP JUMPDEST SWAP2 POP POP SWAP3 POP SWAP3 SWAP1 POP JUMP JUMPDEST PUSH0 DUP1 REVERT JUMPDEST PUSH0 PUSH1 0x1F NOT PUSH1 0x1F DUP4 ADD AND SWAP1 POP SWAP2 SWAP1 POP JUMP JUMPDEST PUSH32 0x4E487B7100000000000000000000000000000000000000000000000000000000 PUSH0 MSTORE PUSH1 0x41 PUSH1 0x4 MSTORE PUSH1 0x24 PUSH0 REVERT JUMPDEST PUSH2 0x176C DUP3 PUSH2 0x1726 JUMP JUMPDEST DUP2 ADD DUP2 DUP2 LT PUSH8 0xFFFFFFFFFFFFFFFF DUP3 GT OR ISZERO PUSH2 0x178B JUMPI PUSH2 0x178A PUSH2 0x1736 JUMP JUMPDEST JUMPDEST DUP1 PUSH1 0x40 MSTORE POP POP POP JUMP JUMPDEST PUSH0 PUSH2 0x179D PUSH2 0x12DD JUMP JUMPDEST SWAP1 POP PUSH2 0x17A9 DUP3 DUP3 PUSH2 0x1763 JUMP JUMPDEST SWAP2 SWAP1 POP JUMP JUMPDEST PUSH0 PUSH8 0xFFFFFFFFFFFFFFFF DUP3 GT ISZERO PUSH2 0x17C8 JUMPI PUSH2 0x17C7 PUSH2 0x1736 JUMP JUMPDEST JUMPDEST PUSH2 0x17D1 DUP3 PUSH2 0x1726 JUMP JUMPDEST SWAP1 POP PUSH1 0x20 DUP2 ADD SWAP1 POP SWAP2 SWAP1 POP JUMP JUMPDEST DUP3 DUP2 DUP4 CALLDATACOPY PUSH0 DUP4 DUP4 ADD MSTORE POP POP POP JUMP JUMPDEST PUSH0 PUSH2 0x17FE PUSH2 0x17F9 DUP5 PUSH2 0x17AE JUMP JUMPDEST PUSH2 0x1794 JUMP JUMPDEST SWAP1 POP DUP3 DUP2 MSTORE PUSH1 0x20 DUP2 ADD DUP5 DUP5 DUP5 ADD GT ISZERO PUSH2 0x181A JUMPI PUSH2 0x1819 PUSH2 0x1722 JUMP JUMPDEST JUMPDEST PUSH2 0x1825 DUP5 DUP3 DUP6 PUSH2 0x17DE JUMP JUMPDEST POP SWAP4 SWAP3 POP POP POP JUMP JUMPDEST PUSH0 DUP3 PUSH1 0x1F DUP4 ADD SLT PUSH2 0x1841 JUMPI PUSH2 0x1840 PUSH2 0x137B JUMP JUMPDEST JUMPDEST DUP2 CALLDATALOAD PUSH2 0x1851 DUP5 DUP3 PUSH1 0x20 DUP7 ADD PUSH2 0x17EC JUMP JUMPDEST SWAP2 POP POP SWAP3 SWAP2 POP POP JUMP JUMPDEST PUSH0 DUP1 PUSH1 0x40 DUP4 DUP6 SUB SLT ISZERO PUSH2 0x1870 JUMPI PUSH2 0x186F PUSH2 0x12E6 JUMP JUMPDEST JUMPDEST PUSH0 DUP4 ADD CALLDATALOAD PUSH8 0xFFFFFFFFFFFFFFFF DUP2 GT ISZERO PUSH2 0x188D JUMPI PUSH2 0x188C PUSH2 0x12EA JUMP JUMPDEST JUMPDEST PUSH2 0x1899 DUP6 DUP3 DUP7 ADD PUSH2 0x182D JUMP JUMPDEST SWAP3 POP POP PUSH1 0x20 PUSH2 0x18AA DUP6 DUP3 DUP7 ADD PUSH2 0x1367 JUMP JUMPDEST SWAP2 POP POP SWAP3 POP SWAP3 SWAP1 POP JUMP JUMPDEST PUSH0 PUSH2 0x18BE DUP3 PUSH2 0x1681 JUMP JUMPDEST SWAP1 POP SWAP2 SWAP1 POP JUMP JUMPDEST PUSH2 0x18CE DUP2 PUSH2 0x18B4 JUMP JUMPDEST DUP3 MSTORE POP POP JUMP JUMPDEST PUSH0 PUSH1 0x20 DUP3 ADD SWAP1 POP PUSH2 0x18E7 PUSH0 DUP4 ADD DUP5 PUSH2 0x18C5 JUMP JUMPDEST SWAP3 SWAP2 POP POP JUMP JUMPDEST PUSH0 DUP2 ISZERO ISZERO SWAP1 POP SWAP2 SWAP1 POP JUMP JUMPDEST PUSH2 0x1901 DUP2 PUSH2 0x18ED JUMP JUMPDEST DUP3 MSTORE POP POP JUMP JUMPDEST PUSH0 PUSH1 0x20 DUP3 ADD SWAP1 POP PUSH2 0x191A PUSH0 DUP4 ADD DUP5 PUSH2 0x18F8 JUMP JUMPDEST SWAP3 SWAP2 POP POP JUMP JUMPDEST PUSH0 DUP3 DUP3 MSTORE PUSH1 0x20 DUP3 ADD SWAP1 POP SWAP3 SWAP2 POP POP JUMP JUMPDEST PUSH32 0x4D61726B65743A2053656C6C6572206D757374206265206F70657261746F7200 PUSH0 DUP3 ADD MSTORE POP JUMP JUMPDEST PUSH0 PUSH2 0x1964 PUSH1 0x1F DUP4 PUSH2 0x1920 JUMP JUMPDEST SWAP2 POP PUSH2 0x196F DUP3 PUSH2 0x1930 JUMP JUMPDEST PUSH1 0x20 DUP3 ADD SWAP1 POP SWAP2 SWAP1 POP JUMP JUMPDEST PUSH0 PUSH1 0x20 DUP3 ADD SWAP1 POP DUP2 DUP2 SUB PUSH0 DUP4 ADD MSTORE PUSH2 0x1991 DUP2 PUSH2 0x1958 JUMP JUMPDEST SWAP1 POP SWAP2 SWAP1 POP JUMP JUMPDEST PUSH32 0x4D61726B65743A20546F6B656E204944206973206E6F74206C69737465640000 PUSH0 DUP3 ADD MSTORE POP JUMP JUMPDEST PUSH0 PUSH2 0x19CC PUSH1 0x1E DUP4 PUSH2 0x1920 JUMP JUMPDEST SWAP2 POP PUSH2 0x19D7 DUP3 PUSH2 0x1998 JUMP JUMPDEST PUSH1 0x20 DUP3 ADD SWAP1 POP SWAP2 SWAP1 POP JUMP JUMPDEST PUSH0 PUSH1 0x20 DUP3 ADD SWAP1 POP DUP2 DUP2 SUB PUSH0 DUP4 ADD MSTORE PUSH2 0x19F9 DUP2 PUSH2 0x19C0 JUMP JUMPDEST SWAP1 POP SWAP2 SWAP1 POP JUMP JUMPDEST PUSH32 0x4D61726B65743A2053656E646572206973206E6F742073656C6C657200000000 PUSH0 DUP3 ADD MSTORE POP JUMP JUMPDEST PUSH0 PUSH2 0x1A34 PUSH1 0x1C DUP4 PUSH2 0x1920 JUMP JUMPDEST SWAP2 POP PUSH2 0x1A3F DUP3 PUSH2 0x1A00 JUMP JUMPDEST PUSH1 0x20 DUP3 ADD SWAP1 POP SWAP2 SWAP1 POP JUMP JUMPDEST PUSH0 PUSH1 0x20 DUP3 ADD SWAP1 POP DUP2 DUP2 SUB PUSH0 DUP4 ADD MSTORE PUSH2 0x1A61 DUP2 PUSH2 0x1A28 JUMP JUMPDEST SWAP1 POP SWAP2 SWAP1 POP JUMP JUMPDEST PUSH0 PUSH1 0x60 DUP3 ADD SWAP1 POP PUSH2 0x1A7B PUSH0 DUP4 ADD DUP7 PUSH2 0x14DE JUMP JUMPDEST PUSH2 0x1A88 PUSH1 0x20 DUP4 ADD DUP6 PUSH2 0x14DE JUMP JUMPDEST PUSH2 0x1A95 PUSH1 0x40 DUP4 ADD DUP5 PUSH2 0x14ED JUMP JUMPDEST SWAP5 SWAP4 POP POP POP POP JUMP JUMPDEST PUSH0 PUSH1 0x40 DUP3 ADD SWAP1 POP PUSH2 0x1AB0 PUSH0 DUP4 ADD DUP6 PUSH2 0x14DE JUMP JUMPDEST PUSH2 0x1ABD PUSH1 0x20 DUP4 ADD DUP5 PUSH2 0x14ED JUMP JUMPDEST SWAP4 SWAP3 POP POP POP JUMP JUMPDEST PUSH32 0x4E487B7100000000000000000000000000000000000000000000000000000000 PUSH0 MSTORE PUSH1 0x32 PUSH1 0x4 MSTORE PUSH1 0x24 PUSH0 REVERT JUMPDEST PUSH32 0x4E487B7100000000000000000000000000000000000000000000000000000000 PUSH0 MSTORE PUSH1 0x11 PUSH1 0x4 MSTORE PUSH1 0x24 PUSH0 REVERT JUMPDEST PUSH0 PUSH2 0x1B28 DUP3 PUSH2 0x1348 JUMP JUMPDEST SWAP2 POP PUSH32 0xFFFFFFFFFFFFFFFFFFFFFFFFFFFFFFFFFFFFFFFFFFFFFFFFFFFFFFFFFFFFFFFF DUP3 SUB PUSH2 0x1B5A JUMPI PUSH2 0x1B59 PUSH2 0x1AF1 JUMP JUMPDEST JUMPDEST PUSH1 0x1 DUP3 ADD SWAP1 POP SWAP2 SWAP1 POP JUMP JUMPDEST PUSH0 PUSH1 0x80 DUP3 ADD SWAP1 POP PUSH2 0x1B78 PUSH0 DUP4 ADD DUP8 PUSH2 0x14DE JUMP JUMPDEST PUSH2 0x1B85 PUSH1 0x20 DUP4 ADD DUP7 PUSH2 0x14ED JUMP JUMPDEST PUSH2 0x1B92 PUSH1 0x40 DUP4 ADD DUP6 PUSH2 0x14ED JUMP JUMPDEST PUSH2 0x1B9F PUSH1 0x60 DUP4 ADD DUP5 PUSH2 0x14ED JUMP JUMPDEST SWAP6 SWAP5 POP POP POP POP POP JUMP JUMPDEST PUSH0 PUSH2 0x1BB2 DUP3 PUSH2 0x1348 JUMP JUMPDEST SWAP2 POP PUSH2 0x1BBD DUP4 PUSH2 0x1348 JUMP JUMPDEST SWAP3 POP DUP3 DUP3 ADD SWAP1 POP DUP1 DUP3 GT ISZERO PUSH2 0x1BD5 JUMPI PUSH2 0x1BD4 PUSH2 0x1AF1 JUMP JUMPDEST JUMPDEST SWAP3 SWAP2 POP POP JUMP JUMPDEST PUSH32 0x4D61726B65743A20746F55696E743235365F6F766572666C6F77000000000000 PUSH0 DUP3 ADD MSTORE POP JUMP JUMPDEST PUSH0 PUSH2 0x1C0F PUSH1 0x1A DUP4 PUSH2 0x1920 JUMP JUMPDEST SWAP2 POP PUSH2 0x1C1A DUP3 PUSH2 0x1BDB JUMP JUMPDEST PUSH1 0x20 DUP3 ADD SWAP1 POP SWAP2 SWAP1 POP JUMP JUMPDEST PUSH0 PUSH1 0x20 DUP3 ADD SWAP1 POP DUP2 DUP2 SUB PUSH0 DUP4 ADD MSTORE PUSH2 0x1C3C DUP2 PUSH2 0x1C03 JUMP JUMPDEST SWAP1 POP SWAP2 SWAP1 POP JUMP JUMPDEST PUSH32 0x4D61726B65743A20746F55696E743235365F6F75744F66426F756E6473000000 PUSH0 DUP3 ADD MSTORE POP JUMP JUMPDEST PUSH0 PUSH2 0x1C77 PUSH1 0x1D DUP4 PUSH2 0x1920 JUMP JUMPDEST SWAP2 POP PUSH2 0x1C82 DUP3 PUSH2 0x1C43 JUMP JUMPDEST PUSH1 0x20 DUP3 ADD SWAP1 POP SWAP2 SWAP1 POP JUMP JUMPDEST PUSH0 PUSH1 0x20 DUP3 ADD SWAP1 POP DUP2 DUP2 SUB PUSH0 DUP4 ADD MSTORE PUSH2 0x1CA4 DUP2 PUSH2 0x1C6B JUMP JUMPDEST SWAP1 POP SWAP2 SWAP1 POP JUMP JUMPDEST PUSH2 0x1CB4 DUP2 PUSH2 0x18ED JUMP JUMPDEST DUP2 EQ PUSH2 0x1CBE JUMPI PUSH0 DUP1 REVERT JUMPDEST POP JUMP JUMPDEST PUSH0 DUP2 MLOAD SWAP1 POP PUSH2 0x1CCF DUP2 PUSH2 0x1CAB JUMP JUMPDEST SWAP3 SWAP2 POP POP JUMP JUMPDEST PUSH0 PUSH1 0x20 DUP3 DUP5 SUB SLT ISZERO PUSH2 0x1CEA JUMPI PUSH2 0x1CE9 PUSH2 0x12E6 JUMP JUMPDEST JUMPDEST PUSH0 PUSH2 0x1CF7 DUP5 DUP3 DUP6 ADD PUSH2 0x1CC1 JUMP JUMPDEST SWAP2 POP POP SWAP3 SWAP2 POP POP JUMP JUMPDEST PUSH32 0x4D61726B65743A204552433230207472616E73666572206E6F74207375636365 PUSH0 DUP3 ADD MSTORE PUSH32 0x737366756C000000000000000000000000000000000000000000000000000000 PUSH1 0x20 DUP3 ADD MSTORE POP JUMP JUMPDEST PUSH0 PUSH2 0x1D5A PUSH1 0x25 DUP4 PUSH2 0x1920 JUMP JUMPDEST SWAP2 POP PUSH2 0x1D65 DUP3 PUSH2 0x1D00 JUMP JUMPDEST PUSH1 0x40 DUP3 ADD SWAP1 POP SWAP2 SWAP1 POP JUMP JUMPDEST PUSH0 PUSH1 0x20 DUP3 ADD SWAP1 POP DUP2 DUP2 SUB PUSH0 DUP4 ADD MSTORE PUSH2 0x1D87 DUP2 PUSH2 0x1D4E JUMP JUMPDEST SWAP1 POP SWAP2 SWAP1 POP JUMP JUMPDEST PUSH0 PUSH1 0x80 DUP3 ADD SWAP1 POP PUSH2 0x1DA1 PUSH0 DUP4 ADD DUP8 PUSH2 0x14DE JUMP JUMPDEST PUSH2 0x1DAE PUSH1 0x20 DUP4 ADD DUP7 PUSH2 0x14DE JUMP JUMPDEST PUSH2 0x1DBB PUSH1 0x40 DUP4 ADD DUP6 PUSH2 0x14ED JUMP JUMPDEST PUSH2 0x1DC8 PUSH1 0x60 DUP4 ADD DUP5 PUSH2 0x14ED JUMP JUMPDEST SWAP6 SWAP5 POP POP POP POP POP JUMP JUMPDEST PUSH32 0x4D61726B65743A205072696365206D7573742062652067726561746572207468 PUSH0 DUP3 ADD MSTORE PUSH32 0x616E207A65726F00000000000000000000000000000000000000000000000000 PUSH1 0x20 DUP3 ADD MSTORE POP JUMP JUMPDEST PUSH0 PUSH2 0x1E2B PUSH1 0x27 DUP4 PUSH2 0x1920 JUMP JUMPDEST SWAP2 POP PUSH2 0x1E36 DUP3 PUSH2 0x1DD1 JUMP JUMPDEST PUSH1 0x40 DUP3 ADD SWAP1 POP SWAP2 SWAP1 POP JUMP JUMPDEST PUSH0 PUSH1 0x20 DUP3 ADD SWAP1 POP DUP2 DUP2 SUB PUSH0 DUP4 ADD MSTORE PUSH2 0x1E58 DUP2 PUSH2 0x1E1F JUMP JUMPDEST SWAP1 POP SWAP2 SWAP1 POP JUMP JUMPDEST PUSH0 PUSH2 0x1E69 DUP3 PUSH2 0x1348 JUMP JUMPDEST SWAP2 POP PUSH2 0x1E74 DUP4 PUSH2 0x1348 JUMP JUMPDEST SWAP3 POP DUP3 DUP3 SUB SWAP1 POP DUP2 DUP2 GT ISZERO PUSH2 0x1E8C JUMPI PUSH2 0x1E8B PUSH2 0x1AF1 JUMP JUMPDEST JUMPDEST SWAP3 SWAP2 POP POP JUMP JUMPDEST PUSH32 0x4E487B7100000000000000000000000000000000000000000000000000000000 PUSH0 MSTORE PUSH1 0x31 PUSH1 0x4 MSTORE PUSH1 0x24 PUSH0 REVERT INVALID LOG2 PUSH5 0x6970667358 0x22 SLT KECCAK256 SWAP4 BALANCE 0x1E 0xE6 0xAE STATICCALL 0xCB JUMP PUSH29 0x9F500566844CF09C3B15D3646437413D5C08276D1810264736F6C6343 STOP ADDMOD BYTE STOP CALLER "
				},
				"gasEstimates": {
					"creation": {
						"codeDepositCost": "1585000",
						"executionCost": "infinite",
						"totalCost": "infinite"
					},
					"external": {
						"buy(uint256)": "infinite",
						"cancelOrder(uint256)": "infinite",
						"changePrice(uint256,uint256)": "infinite",
						"erc20()": "infinite",
						"erc721()": "infinite",
						"getAllNFTs()": "infinite",
						"getMyNFTs()": "infinite",
						"getOrderLength()": "2507",
						"idToOrderIndex(uint256)": "infinite",
						"isListed(uint256)": "2924",
						"onERC721Received(address,address,uint256,bytes)": "infinite",
						"orderOfId(uint256)": "infinite",
						"orders(uint256)": "infinite",
						"toUint256(bytes,uint256)": "infinite"
					},
					"internal": {
						"placeOrder(address,uint256,uint256)": "infinite",
						"removeListing(uint256)": "infinite"
					}
				},
				"methodIdentifiers": {
					"buy(uint256)": "d96a094a",
					"cancelOrder(uint256)": "514fcac7",
					"changePrice(uint256,uint256)": "b3de019c",
					"erc20()": "785e9e86",
					"erc721()": "bca6ce64",
					"getAllNFTs()": "e0391b09",
					"getMyNFTs()": "629cb2e4",
					"getOrderLength()": "9d4971b7",
					"idToOrderIndex(uint256)": "da694df0",
					"isListed(uint256)": "fcce4883",
					"onERC721Received(address,address,uint256,bytes)": "150b7a02",
					"orderOfId(uint256)": "394a9077",
					"orders(uint256)": "a85c38ef",
					"toUint256(bytes,uint256)": "b5cdf924"
				}
			},
			"storageLayout": {
				"storage": [
					{
						"astId": 247,
						"contract": "contracts/nft-market.sol:Market",
						"label": "erc20",
						"offset": 0,
						"slot": "0",
						"type": "t_contract(IERC20)89"
					},
					{
						"astId": 250,
						"contract": "contracts/nft-market.sol:Market",
						"label": "erc721",
						"offset": 0,
						"slot": "1",
						"type": "t_contract(IERC721)206"
					},
					{
						"astId": 265,
						"contract": "contracts/nft-market.sol:Market",
						"label": "orderOfId",
						"offset": 0,
						"slot": "2",
						"type": "t_mapping(t_uint256,t_struct(Order)260_storage)"
					},
					{
						"astId": 269,
						"contract": "contracts/nft-market.sol:Market",
						"label": "orders",
						"offset": 0,
						"slot": "3",
						"type": "t_array(t_struct(Order)260_storage)dyn_storage"
					},
					{
						"astId": 273,
						"contract": "contracts/nft-market.sol:Market",
						"label": "idToOrderIndex",
						"offset": 0,
						"slot": "4",
						"type": "t_mapping(t_uint256,t_uint256)"
					}
				],
				"types": {
					"t_address": {
						"encoding": "inplace",
						"label": "address",
						"numberOfBytes": "20"
					},
					"t_array(t_struct(Order)260_storage)dyn_storage": {
						"base": "t_struct(Order)260_storage",
						"encoding": "dynamic_array",
						"label": "struct Market.Order[]",
						"numberOfBytes": "32"
					},
					"t_contract(IERC20)89": {
						"encoding": "inplace",
						"label": "contract IERC20",
						"numberOfBytes": "20"
					},
					"t_contract(IERC721)206": {
						"encoding": "inplace",
						"label": "contract IERC721",
						"numberOfBytes": "20"
					},
					"t_mapping(t_uint256,t_struct(Order)260_storage)": {
						"encoding": "mapping",
						"key": "t_uint256",
						"label": "mapping(uint256 => struct Market.Order)",
						"numberOfBytes": "32",
						"value": "t_struct(Order)260_storage"
					},
					"t_mapping(t_uint256,t_uint256)": {
						"encoding": "mapping",
						"key": "t_uint256",
						"label": "mapping(uint256 => uint256)",
						"numberOfBytes": "32",
						"value": "t_uint256"
					},
					"t_struct(Order)260_storage": {
						"encoding": "inplace",
						"label": "struct Market.Order",
						"members": [
							{
								"astId": 255,
								"contract": "contracts/nft-market.sol:Market",
								"label": "seller",
								"offset": 0,
								"slot": "0",
								"type": "t_address"
							},
							{
								"astId": 257,
								"contract": "contracts/nft-market.sol:Market",
								"label": "tokenId",
								"offset": 0,
								"slot": "1",
								"type": "t_uint256"
							},
							{
								"astId": 259,
								"contract": "contracts/nft-market.sol:Market",
								"label": "price",
								"offset": 0,
								"slot": "2",
								"type": "t_uint256"
							}
						],
						"numberOfBytes": "96"
					},
					"t_uint256": {
						"encoding": "inplace",
						"label": "uint256",
						"numberOfBytes": "32"
					}
				}
			},
			"userdoc": {
				"kind": "user",
				"methods": {},
				"version": 1
			}
		}
	}
}